{
	"data": {
		"bytecode": {
			"linkReferences": {},
			"object": "6080604052348015600e575f5ffd5b50610ce68061001c5f395ff3fe608060405234801561000f575f5ffd5b5060043610610086575f3560e01c80636f760f41116100595780636f760f411461010057806385a26d7d1461011c5780639d40e57c1461013a5780639e7a13ad1461016a57610086565b80632e64cec11461008a5780632f64d386146100a8578063471f7cdf146100c65780636057361d146100e4575b5f5ffd5b61009261019b565b60405161009f91906104be565b60405180910390f35b6100b06101a4565b6040516100bd9190610547565b60405180910390f35b6100ce61022f565b6040516100db91906104be565b60405180910390f35b6100fe60048036038101906100f991906105a2565b610235565b005b61011a600480360381019061011591906106f9565b61024b565b005b6101246102cf565b604051610131919061089f565b60405180910390f35b610154600480360381019061014f91906108bf565b6103c4565b60405161016191906104be565b60405180910390f35b610184600480360381019061017f91906105a2565b6103f1565b604051610192929190610906565b60405180910390f35b5f600154905090565b5f80546101b090610961565b80601f01602080910402602001604051908101604052809291908181526020018280546101dc90610961565b80156102275780601f106101fe57610100808354040283529160200191610227565b820191905f5260205f20905b81548152906001019060200180831161020a57829003601f168201915b505050505081565b60015481565b60058161024291906109be565b60018190555050565b6002604051806040016040528084815260200183815250908060018154018082558091505060019003905f5260205f2090600202015f909190919091505f820151815f01908161029b9190610b91565b50602082015181600101555050806003836040516102b99190610c9a565b9081526020016040518091039020819055505050565b60606002805480602002602001604051908101604052809291908181526020015f905b828210156103bb578382905f5260205f2090600202016040518060400160405290815f8201805461032290610961565b80601f016020809104026020016040519081016040528092919081815260200182805461034e90610961565b80156103995780601f1061037057610100808354040283529160200191610399565b820191905f5260205f20905b81548152906001019060200180831161037c57829003601f168201915b50505050508152602001600182015481525050815260200190600101906102f2565b50505050905090565b6003818051602081018201805184825260208301602085012081835280955050505050505f915090505481565b60028181548110610400575f80fd5b905f5260205f2090600202015f91509050805f01805461041f90610961565b80601f016020809104026020016040519081016040528092919081815260200182805461044b90610961565b80156104965780601f1061046d57610100808354040283529160200191610496565b820191905f5260205f20905b81548152906001019060200180831161047957829003601f168201915b5050505050908060010154905082565b5f819050919050565b6104b8816104a6565b82525050565b5f6020820190506104d15f8301846104af565b92915050565b5f81519050919050565b5f82825260208201905092915050565b8281835e5f83830152505050565b5f601f19601f8301169050919050565b5f610519826104d7565b61052381856104e1565b93506105338185602086016104f1565b61053c816104ff565b840191505092915050565b5f6020820190508181035f83015261055f818461050f565b905092915050565b5f604051905090565b5f5ffd5b5f5ffd5b610581816104a6565b811461058b575f5ffd5b50565b5f8135905061059c81610578565b92915050565b5f602082840312156105b7576105b6610570565b5b5f6105c48482850161058e565b91505092915050565b5f5ffd5b5f5ffd5b7f4e487b71000000000000000000000000000000000000000000000000000000005f52604160045260245ffd5b61060b826104ff565b810181811067ffffffffffffffff8211171561062a576106296105d5565b5b80604052505050565b5f61063c610567565b90506106488282610602565b919050565b5f67ffffffffffffffff821115610667576106666105d5565b5b610670826104ff565b9050602081019050919050565b828183375f83830152505050565b5f61069d6106988461064d565b610633565b9050828152602081018484840111156106b9576106b86105d1565b5b6106c484828561067d565b509392505050565b5f82601f8301126106e0576106df6105cd565b5b81356106f084826020860161068b565b91505092915050565b5f5f6040838503121561070f5761070e610570565b5b5f83013567ffffffffffffffff81111561072c5761072b610574565b5b610738858286016106cc565b92505060206107498582860161058e565b9150509250929050565b5f81519050919050565b5f82825260208201905092915050565b5f819050602082019050919050565b5f82825260208201905092915050565b5f610796826104d7565b6107a0818561077c565b93506107b08185602086016104f1565b6107b9816104ff565b840191505092915050565b6107cd816104a6565b82525050565b5f604083015f8301518482035f8601526107ed828261078c565b915050602083015161080260208601826107c4565b508091505092915050565b5f61081883836107d3565b905092915050565b5f602082019050919050565b5f61083682610753565b610840818561075d565b9350836020820285016108528561076d565b805f5b8581101561088d578484038952815161086e858261080d565b945061087983610820565b925060208a01995050600181019050610855565b50829750879550505050505092915050565b5f6020820190508181035f8301526108b7818461082c565b905092915050565b5f602082840312156108d4576108d3610570565b5b5f82013567ffffffffffffffff8111156108f1576108f0610574565b5b6108fd848285016106cc565b91505092915050565b5f6040820190508181035f83015261091e818561050f565b905061092d60208301846104af565b9392505050565b7f4e487b71000000000000000000000000000000000000000000000000000000005f52602260045260245ffd5b5f600282049050600182168061097857607f821691505b60208210810361098b5761098a610934565b5b50919050565b7f4e487b71000000000000000000000000000000000000000000000000000000005f52601160045260245ffd5b5f6109c8826104a6565b91506109d3836104a6565b92508282019050808211156109eb576109ea610991565b5b92915050565b5f819050815f5260205f209050919050565b5f6020601f8301049050919050565b5f82821b905092915050565b5f60088302610a4d7fffffffffffffffffffffffffffffffffffffffffffffffffffffffffffffffff82610a12565b610a578683610a12565b95508019841693508086168417925050509392505050565b5f819050919050565b5f610a92610a8d610a88846104a6565b610a6f565b6104a6565b9050919050565b5f819050919050565b610aab83610a78565b610abf610ab782610a99565b848454610a1e565b825550505050565b5f5f905090565b610ad6610ac7565b610ae1818484610aa2565b505050565b5b81811015610b0457610af95f82610ace565b600181019050610ae7565b5050565b601f821115610b4957610b1a816109f1565b610b2384610a03565b81016020851015610b32578190505b610b46610b3e85610a03565b830182610ae6565b50505b505050565b5f82821c905092915050565b5f610b695f1984600802610b4e565b1980831691505092915050565b5f610b818383610b5a565b9150826002028217905092915050565b610b9a826104d7565b67ffffffffffffffff811115610bb357610bb26105d5565b5b610bbd8254610961565b610bc8828285610b08565b5f60209050601f831160018114610bf9575f8415610be7578287015190505b610bf18582610b76565b865550610c58565b601f198416610c07866109f1565b5f5b82811015610c2e57848901518255600182019150602085019450602081019050610c09565b86831015610c4b5784890151610c47601f891682610b5a565b8355505b6001600288020188555050505b505050505050565b5f81905092915050565b5f610c74826104d7565b610c7e8185610c60565b9350610c8e8185602086016104f1565b80840191505092915050565b5f610ca58284610c6a565b91508190509291505056fea2646970667358221220b70e2d6989e9a8fa7f3c962683d44dc6279db2d9bcbba3484842b008f139872664736f6c634300081c0033",
			"opcodes": "PUSH1 0x80 PUSH1 0x40 MSTORE CALLVALUE DUP1 ISZERO PUSH1 0xE JUMPI PUSH0 PUSH0 REVERT JUMPDEST POP PUSH2 0xCE6 DUP1 PUSH2 0x1C PUSH0 CODECOPY PUSH0 RETURN INVALID PUSH1 0x80 PUSH1 0x40 MSTORE CALLVALUE DUP1 ISZERO PUSH2 0xF JUMPI PUSH0 PUSH0 REVERT JUMPDEST POP PUSH1 0x4 CALLDATASIZE LT PUSH2 0x86 JUMPI PUSH0 CALLDATALOAD PUSH1 0xE0 SHR DUP1 PUSH4 0x6F760F41 GT PUSH2 0x59 JUMPI DUP1 PUSH4 0x6F760F41 EQ PUSH2 0x100 JUMPI DUP1 PUSH4 0x85A26D7D EQ PUSH2 0x11C JUMPI DUP1 PUSH4 0x9D40E57C EQ PUSH2 0x13A JUMPI DUP1 PUSH4 0x9E7A13AD EQ PUSH2 0x16A JUMPI PUSH2 0x86 JUMP JUMPDEST DUP1 PUSH4 0x2E64CEC1 EQ PUSH2 0x8A JUMPI DUP1 PUSH4 0x2F64D386 EQ PUSH2 0xA8 JUMPI DUP1 PUSH4 0x471F7CDF EQ PUSH2 0xC6 JUMPI DUP1 PUSH4 0x6057361D EQ PUSH2 0xE4 JUMPI JUMPDEST PUSH0 PUSH0 REVERT JUMPDEST PUSH2 0x92 PUSH2 0x19B JUMP JUMPDEST PUSH1 0x40 MLOAD PUSH2 0x9F SWAP2 SWAP1 PUSH2 0x4BE JUMP JUMPDEST PUSH1 0x40 MLOAD DUP1 SWAP2 SUB SWAP1 RETURN JUMPDEST PUSH2 0xB0 PUSH2 0x1A4 JUMP JUMPDEST PUSH1 0x40 MLOAD PUSH2 0xBD SWAP2 SWAP1 PUSH2 0x547 JUMP JUMPDEST PUSH1 0x40 MLOAD DUP1 SWAP2 SUB SWAP1 RETURN JUMPDEST PUSH2 0xCE PUSH2 0x22F JUMP JUMPDEST PUSH1 0x40 MLOAD PUSH2 0xDB SWAP2 SWAP1 PUSH2 0x4BE JUMP JUMPDEST PUSH1 0x40 MLOAD DUP1 SWAP2 SUB SWAP1 RETURN JUMPDEST PUSH2 0xFE PUSH1 0x4 DUP1 CALLDATASIZE SUB DUP2 ADD SWAP1 PUSH2 0xF9 SWAP2 SWAP1 PUSH2 0x5A2 JUMP JUMPDEST PUSH2 0x235 JUMP JUMPDEST STOP JUMPDEST PUSH2 0x11A PUSH1 0x4 DUP1 CALLDATASIZE SUB DUP2 ADD SWAP1 PUSH2 0x115 SWAP2 SWAP1 PUSH2 0x6F9 JUMP JUMPDEST PUSH2 0x24B JUMP JUMPDEST STOP JUMPDEST PUSH2 0x124 PUSH2 0x2CF JUMP JUMPDEST PUSH1 0x40 MLOAD PUSH2 0x131 SWAP2 SWAP1 PUSH2 0x89F JUMP JUMPDEST PUSH1 0x40 MLOAD DUP1 SWAP2 SUB SWAP1 RETURN JUMPDEST PUSH2 0x154 PUSH1 0x4 DUP1 CALLDATASIZE SUB DUP2 ADD SWAP1 PUSH2 0x14F SWAP2 SWAP1 PUSH2 0x8BF JUMP JUMPDEST PUSH2 0x3C4 JUMP JUMPDEST PUSH1 0x40 MLOAD PUSH2 0x161 SWAP2 SWAP1 PUSH2 0x4BE JUMP JUMPDEST PUSH1 0x40 MLOAD DUP1 SWAP2 SUB SWAP1 RETURN JUMPDEST PUSH2 0x184 PUSH1 0x4 DUP1 CALLDATASIZE SUB DUP2 ADD SWAP1 PUSH2 0x17F SWAP2 SWAP1 PUSH2 0x5A2 JUMP JUMPDEST PUSH2 0x3F1 JUMP JUMPDEST PUSH1 0x40 MLOAD PUSH2 0x192 SWAP3 SWAP2 SWAP1 PUSH2 0x906 JUMP JUMPDEST PUSH1 0x40 MLOAD DUP1 SWAP2 SUB SWAP1 RETURN JUMPDEST PUSH0 PUSH1 0x1 SLOAD SWAP1 POP SWAP1 JUMP JUMPDEST PUSH0 DUP1 SLOAD PUSH2 0x1B0 SWAP1 PUSH2 0x961 JUMP JUMPDEST DUP1 PUSH1 0x1F ADD PUSH1 0x20 DUP1 SWAP2 DIV MUL PUSH1 0x20 ADD PUSH1 0x40 MLOAD SWAP1 DUP2 ADD PUSH1 0x40 MSTORE DUP1 SWAP3 SWAP2 SWAP1 DUP2 DUP2 MSTORE PUSH1 0x20 ADD DUP3 DUP1 SLOAD PUSH2 0x1DC SWAP1 PUSH2 0x961 JUMP JUMPDEST DUP1 ISZERO PUSH2 0x227 JUMPI DUP1 PUSH1 0x1F LT PUSH2 0x1FE JUMPI PUSH2 0x100 DUP1 DUP4 SLOAD DIV MUL DUP4 MSTORE SWAP2 PUSH1 0x20 ADD SWAP2 PUSH2 0x227 JUMP JUMPDEST DUP3 ADD SWAP2 SWAP1 PUSH0 MSTORE PUSH1 0x20 PUSH0 KECCAK256 SWAP1 JUMPDEST DUP2 SLOAD DUP2 MSTORE SWAP1 PUSH1 0x1 ADD SWAP1 PUSH1 0x20 ADD DUP1 DUP4 GT PUSH2 0x20A JUMPI DUP3 SWAP1 SUB PUSH1 0x1F AND DUP3 ADD SWAP2 JUMPDEST POP POP POP POP POP DUP2 JUMP JUMPDEST PUSH1 0x1 SLOAD DUP2 JUMP JUMPDEST PUSH1 0x5 DUP2 PUSH2 0x242 SWAP2 SWAP1 PUSH2 0x9BE JUMP JUMPDEST PUSH1 0x1 DUP2 SWAP1 SSTORE POP POP JUMP JUMPDEST PUSH1 0x2 PUSH1 0x40 MLOAD DUP1 PUSH1 0x40 ADD PUSH1 0x40 MSTORE DUP1 DUP5 DUP2 MSTORE PUSH1 0x20 ADD DUP4 DUP2 MSTORE POP SWAP1 DUP1 PUSH1 0x1 DUP2 SLOAD ADD DUP1 DUP3 SSTORE DUP1 SWAP2 POP POP PUSH1 0x1 SWAP1 SUB SWAP1 PUSH0 MSTORE PUSH1 0x20 PUSH0 KECCAK256 SWAP1 PUSH1 0x2 MUL ADD PUSH0 SWAP1 SWAP2 SWAP1 SWAP2 SWAP1 SWAP2 POP PUSH0 DUP3 ADD MLOAD DUP2 PUSH0 ADD SWAP1 DUP2 PUSH2 0x29B SWAP2 SWAP1 PUSH2 0xB91 JUMP JUMPDEST POP PUSH1 0x20 DUP3 ADD MLOAD DUP2 PUSH1 0x1 ADD SSTORE POP POP DUP1 PUSH1 0x3 DUP4 PUSH1 0x40 MLOAD PUSH2 0x2B9 SWAP2 SWAP1 PUSH2 0xC9A JUMP JUMPDEST SWAP1 DUP2 MSTORE PUSH1 0x20 ADD PUSH1 0x40 MLOAD DUP1 SWAP2 SUB SWAP1 KECCAK256 DUP2 SWAP1 SSTORE POP POP POP JUMP JUMPDEST PUSH1 0x60 PUSH1 0x2 DUP1 SLOAD DUP1 PUSH1 0x20 MUL PUSH1 0x20 ADD PUSH1 0x40 MLOAD SWAP1 DUP2 ADD PUSH1 0x40 MSTORE DUP1 SWAP3 SWAP2 SWAP1 DUP2 DUP2 MSTORE PUSH1 0x20 ADD PUSH0 SWAP1 JUMPDEST DUP3 DUP3 LT ISZERO PUSH2 0x3BB JUMPI DUP4 DUP3 SWAP1 PUSH0 MSTORE PUSH1 0x20 PUSH0 KECCAK256 SWAP1 PUSH1 0x2 MUL ADD PUSH1 0x40 MLOAD DUP1 PUSH1 0x40 ADD PUSH1 0x40 MSTORE SWAP1 DUP2 PUSH0 DUP3 ADD DUP1 SLOAD PUSH2 0x322 SWAP1 PUSH2 0x961 JUMP JUMPDEST DUP1 PUSH1 0x1F ADD PUSH1 0x20 DUP1 SWAP2 DIV MUL PUSH1 0x20 ADD PUSH1 0x40 MLOAD SWAP1 DUP2 ADD PUSH1 0x40 MSTORE DUP1 SWAP3 SWAP2 SWAP1 DUP2 DUP2 MSTORE PUSH1 0x20 ADD DUP3 DUP1 SLOAD PUSH2 0x34E SWAP1 PUSH2 0x961 JUMP JUMPDEST DUP1 ISZERO PUSH2 0x399 JUMPI DUP1 PUSH1 0x1F LT PUSH2 0x370 JUMPI PUSH2 0x100 DUP1 DUP4 SLOAD DIV MUL DUP4 MSTORE SWAP2 PUSH1 0x20 ADD SWAP2 PUSH2 0x399 JUMP JUMPDEST DUP3 ADD SWAP2 SWAP1 PUSH0 MSTORE PUSH1 0x20 PUSH0 KECCAK256 SWAP1 JUMPDEST DUP2 SLOAD DUP2 MSTORE SWAP1 PUSH1 0x1 ADD SWAP1 PUSH1 0x20 ADD DUP1 DUP4 GT PUSH2 0x37C JUMPI DUP3 SWAP1 SUB PUSH1 0x1F AND DUP3 ADD SWAP2 JUMPDEST POP POP POP POP POP DUP2 MSTORE PUSH1 0x20 ADD PUSH1 0x1 DUP3 ADD SLOAD DUP2 MSTORE POP POP DUP2 MSTORE PUSH1 0x20 ADD SWAP1 PUSH1 0x1 ADD SWAP1 PUSH2 0x2F2 JUMP JUMPDEST POP POP POP POP SWAP1 POP SWAP1 JUMP JUMPDEST PUSH1 0x3 DUP2 DUP1 MLOAD PUSH1 0x20 DUP2 ADD DUP3 ADD DUP1 MLOAD DUP5 DUP3 MSTORE PUSH1 0x20 DUP4 ADD PUSH1 0x20 DUP6 ADD KECCAK256 DUP2 DUP4 MSTORE DUP1 SWAP6 POP POP POP POP POP POP PUSH0 SWAP2 POP SWAP1 POP SLOAD DUP2 JUMP JUMPDEST PUSH1 0x2 DUP2 DUP2 SLOAD DUP2 LT PUSH2 0x400 JUMPI PUSH0 DUP1 REVERT JUMPDEST SWAP1 PUSH0 MSTORE PUSH1 0x20 PUSH0 KECCAK256 SWAP1 PUSH1 0x2 MUL ADD PUSH0 SWAP2 POP SWAP1 POP DUP1 PUSH0 ADD DUP1 SLOAD PUSH2 0x41F SWAP1 PUSH2 0x961 JUMP JUMPDEST DUP1 PUSH1 0x1F ADD PUSH1 0x20 DUP1 SWAP2 DIV MUL PUSH1 0x20 ADD PUSH1 0x40 MLOAD SWAP1 DUP2 ADD PUSH1 0x40 MSTORE DUP1 SWAP3 SWAP2 SWAP1 DUP2 DUP2 MSTORE PUSH1 0x20 ADD DUP3 DUP1 SLOAD PUSH2 0x44B SWAP1 PUSH2 0x961 JUMP JUMPDEST DUP1 ISZERO PUSH2 0x496 JUMPI DUP1 PUSH1 0x1F LT PUSH2 0x46D JUMPI PUSH2 0x100 DUP1 DUP4 SLOAD DIV MUL DUP4 MSTORE SWAP2 PUSH1 0x20 ADD SWAP2 PUSH2 0x496 JUMP JUMPDEST DUP3 ADD SWAP2 SWAP1 PUSH0 MSTORE PUSH1 0x20 PUSH0 KECCAK256 SWAP1 JUMPDEST DUP2 SLOAD DUP2 MSTORE SWAP1 PUSH1 0x1 ADD SWAP1 PUSH1 0x20 ADD DUP1 DUP4 GT PUSH2 0x479 JUMPI DUP3 SWAP1 SUB PUSH1 0x1F AND DUP3 ADD SWAP2 JUMPDEST POP POP POP POP POP SWAP1 DUP1 PUSH1 0x1 ADD SLOAD SWAP1 POP DUP3 JUMP JUMPDEST PUSH0 DUP2 SWAP1 POP SWAP2 SWAP1 POP JUMP JUMPDEST PUSH2 0x4B8 DUP2 PUSH2 0x4A6 JUMP JUMPDEST DUP3 MSTORE POP POP JUMP JUMPDEST PUSH0 PUSH1 0x20 DUP3 ADD SWAP1 POP PUSH2 0x4D1 PUSH0 DUP4 ADD DUP5 PUSH2 0x4AF JUMP JUMPDEST SWAP3 SWAP2 POP POP JUMP JUMPDEST PUSH0 DUP2 MLOAD SWAP1 POP SWAP2 SWAP1 POP JUMP JUMPDEST PUSH0 DUP3 DUP3 MSTORE PUSH1 0x20 DUP3 ADD SWAP1 POP SWAP3 SWAP2 POP POP JUMP JUMPDEST DUP3 DUP2 DUP4 MCOPY PUSH0 DUP4 DUP4 ADD MSTORE POP POP POP JUMP JUMPDEST PUSH0 PUSH1 0x1F NOT PUSH1 0x1F DUP4 ADD AND SWAP1 POP SWAP2 SWAP1 POP JUMP JUMPDEST PUSH0 PUSH2 0x519 DUP3 PUSH2 0x4D7 JUMP JUMPDEST PUSH2 0x523 DUP2 DUP6 PUSH2 0x4E1 JUMP JUMPDEST SWAP4 POP PUSH2 0x533 DUP2 DUP6 PUSH1 0x20 DUP7 ADD PUSH2 0x4F1 JUMP JUMPDEST PUSH2 0x53C DUP2 PUSH2 0x4FF JUMP JUMPDEST DUP5 ADD SWAP2 POP POP SWAP3 SWAP2 POP POP JUMP JUMPDEST PUSH0 PUSH1 0x20 DUP3 ADD SWAP1 POP DUP2 DUP2 SUB PUSH0 DUP4 ADD MSTORE PUSH2 0x55F DUP2 DUP5 PUSH2 0x50F JUMP JUMPDEST SWAP1 POP SWAP3 SWAP2 POP POP JUMP JUMPDEST PUSH0 PUSH1 0x40 MLOAD SWAP1 POP SWAP1 JUMP JUMPDEST PUSH0 PUSH0 REVERT JUMPDEST PUSH0 PUSH0 REVERT JUMPDEST PUSH2 0x581 DUP2 PUSH2 0x4A6 JUMP JUMPDEST DUP2 EQ PUSH2 0x58B JUMPI PUSH0 PUSH0 REVERT JUMPDEST POP JUMP JUMPDEST PUSH0 DUP2 CALLDATALOAD SWAP1 POP PUSH2 0x59C DUP2 PUSH2 0x578 JUMP JUMPDEST SWAP3 SWAP2 POP POP JUMP JUMPDEST PUSH0 PUSH1 0x20 DUP3 DUP5 SUB SLT ISZERO PUSH2 0x5B7 JUMPI PUSH2 0x5B6 PUSH2 0x570 JUMP JUMPDEST JUMPDEST PUSH0 PUSH2 0x5C4 DUP5 DUP3 DUP6 ADD PUSH2 0x58E JUMP JUMPDEST SWAP2 POP POP SWAP3 SWAP2 POP POP JUMP JUMPDEST PUSH0 PUSH0 REVERT JUMPDEST PUSH0 PUSH0 REVERT JUMPDEST PUSH32 0x4E487B7100000000000000000000000000000000000000000000000000000000 PUSH0 MSTORE PUSH1 0x41 PUSH1 0x4 MSTORE PUSH1 0x24 PUSH0 REVERT JUMPDEST PUSH2 0x60B DUP3 PUSH2 0x4FF JUMP JUMPDEST DUP2 ADD DUP2 DUP2 LT PUSH8 0xFFFFFFFFFFFFFFFF DUP3 GT OR ISZERO PUSH2 0x62A JUMPI PUSH2 0x629 PUSH2 0x5D5 JUMP JUMPDEST JUMPDEST DUP1 PUSH1 0x40 MSTORE POP POP POP JUMP JUMPDEST PUSH0 PUSH2 0x63C PUSH2 0x567 JUMP JUMPDEST SWAP1 POP PUSH2 0x648 DUP3 DUP3 PUSH2 0x602 JUMP JUMPDEST SWAP2 SWAP1 POP JUMP JUMPDEST PUSH0 PUSH8 0xFFFFFFFFFFFFFFFF DUP3 GT ISZERO PUSH2 0x667 JUMPI PUSH2 0x666 PUSH2 0x5D5 JUMP JUMPDEST JUMPDEST PUSH2 0x670 DUP3 PUSH2 0x4FF JUMP JUMPDEST SWAP1 POP PUSH1 0x20 DUP2 ADD SWAP1 POP SWAP2 SWAP1 POP JUMP JUMPDEST DUP3 DUP2 DUP4 CALLDATACOPY PUSH0 DUP4 DUP4 ADD MSTORE POP POP POP JUMP JUMPDEST PUSH0 PUSH2 0x69D PUSH2 0x698 DUP5 PUSH2 0x64D JUMP JUMPDEST PUSH2 0x633 JUMP JUMPDEST SWAP1 POP DUP3 DUP2 MSTORE PUSH1 0x20 DUP2 ADD DUP5 DUP5 DUP5 ADD GT ISZERO PUSH2 0x6B9 JUMPI PUSH2 0x6B8 PUSH2 0x5D1 JUMP JUMPDEST JUMPDEST PUSH2 0x6C4 DUP5 DUP3 DUP6 PUSH2 0x67D JUMP JUMPDEST POP SWAP4 SWAP3 POP POP POP JUMP JUMPDEST PUSH0 DUP3 PUSH1 0x1F DUP4 ADD SLT PUSH2 0x6E0 JUMPI PUSH2 0x6DF PUSH2 0x5CD JUMP JUMPDEST JUMPDEST DUP2 CALLDATALOAD PUSH2 0x6F0 DUP5 DUP3 PUSH1 0x20 DUP7 ADD PUSH2 0x68B JUMP JUMPDEST SWAP2 POP POP SWAP3 SWAP2 POP POP JUMP JUMPDEST PUSH0 PUSH0 PUSH1 0x40 DUP4 DUP6 SUB SLT ISZERO PUSH2 0x70F JUMPI PUSH2 0x70E PUSH2 0x570 JUMP JUMPDEST JUMPDEST PUSH0 DUP4 ADD CALLDATALOAD PUSH8 0xFFFFFFFFFFFFFFFF DUP2 GT ISZERO PUSH2 0x72C JUMPI PUSH2 0x72B PUSH2 0x574 JUMP JUMPDEST JUMPDEST PUSH2 0x738 DUP6 DUP3 DUP7 ADD PUSH2 0x6CC JUMP JUMPDEST SWAP3 POP POP PUSH1 0x20 PUSH2 0x749 DUP6 DUP3 DUP7 ADD PUSH2 0x58E JUMP JUMPDEST SWAP2 POP POP SWAP3 POP SWAP3 SWAP1 POP JUMP JUMPDEST PUSH0 DUP2 MLOAD SWAP1 POP SWAP2 SWAP1 POP JUMP JUMPDEST PUSH0 DUP3 DUP3 MSTORE PUSH1 0x20 DUP3 ADD SWAP1 POP SWAP3 SWAP2 POP POP JUMP JUMPDEST PUSH0 DUP2 SWAP1 POP PUSH1 0x20 DUP3 ADD SWAP1 POP SWAP2 SWAP1 POP JUMP JUMPDEST PUSH0 DUP3 DUP3 MSTORE PUSH1 0x20 DUP3 ADD SWAP1 POP SWAP3 SWAP2 POP POP JUMP JUMPDEST PUSH0 PUSH2 0x796 DUP3 PUSH2 0x4D7 JUMP JUMPDEST PUSH2 0x7A0 DUP2 DUP6 PUSH2 0x77C JUMP JUMPDEST SWAP4 POP PUSH2 0x7B0 DUP2 DUP6 PUSH1 0x20 DUP7 ADD PUSH2 0x4F1 JUMP JUMPDEST PUSH2 0x7B9 DUP2 PUSH2 0x4FF JUMP JUMPDEST DUP5 ADD SWAP2 POP POP SWAP3 SWAP2 POP POP JUMP JUMPDEST PUSH2 0x7CD DUP2 PUSH2 0x4A6 JUMP JUMPDEST DUP3 MSTORE POP POP JUMP JUMPDEST PUSH0 PUSH1 0x40 DUP4 ADD PUSH0 DUP4 ADD MLOAD DUP5 DUP3 SUB PUSH0 DUP7 ADD MSTORE PUSH2 0x7ED DUP3 DUP3 PUSH2 0x78C JUMP JUMPDEST SWAP2 POP POP PUSH1 0x20 DUP4 ADD MLOAD PUSH2 0x802 PUSH1 0x20 DUP7 ADD DUP3 PUSH2 0x7C4 JUMP JUMPDEST POP DUP1 SWAP2 POP POP SWAP3 SWAP2 POP POP JUMP JUMPDEST PUSH0 PUSH2 0x818 DUP4 DUP4 PUSH2 0x7D3 JUMP JUMPDEST SWAP1 POP SWAP3 SWAP2 POP POP JUMP JUMPDEST PUSH0 PUSH1 0x20 DUP3 ADD SWAP1 POP SWAP2 SWAP1 POP JUMP JUMPDEST PUSH0 PUSH2 0x836 DUP3 PUSH2 0x753 JUMP JUMPDEST PUSH2 0x840 DUP2 DUP6 PUSH2 0x75D JUMP JUMPDEST SWAP4 POP DUP4 PUSH1 0x20 DUP3 MUL DUP6 ADD PUSH2 0x852 DUP6 PUSH2 0x76D JUMP JUMPDEST DUP1 PUSH0 JUMPDEST DUP6 DUP2 LT ISZERO PUSH2 0x88D JUMPI DUP5 DUP5 SUB DUP10 MSTORE DUP2 MLOAD PUSH2 0x86E DUP6 DUP3 PUSH2 0x80D JUMP JUMPDEST SWAP5 POP PUSH2 0x879 DUP4 PUSH2 0x820 JUMP JUMPDEST SWAP3 POP PUSH1 0x20 DUP11 ADD SWAP10 POP POP PUSH1 0x1 DUP2 ADD SWAP1 POP PUSH2 0x855 JUMP JUMPDEST POP DUP3 SWAP8 POP DUP8 SWAP6 POP POP POP POP POP POP SWAP3 SWAP2 POP POP JUMP JUMPDEST PUSH0 PUSH1 0x20 DUP3 ADD SWAP1 POP DUP2 DUP2 SUB PUSH0 DUP4 ADD MSTORE PUSH2 0x8B7 DUP2 DUP5 PUSH2 0x82C JUMP JUMPDEST SWAP1 POP SWAP3 SWAP2 POP POP JUMP JUMPDEST PUSH0 PUSH1 0x20 DUP3 DUP5 SUB SLT ISZERO PUSH2 0x8D4 JUMPI PUSH2 0x8D3 PUSH2 0x570 JUMP JUMPDEST JUMPDEST PUSH0 DUP3 ADD CALLDATALOAD PUSH8 0xFFFFFFFFFFFFFFFF DUP2 GT ISZERO PUSH2 0x8F1 JUMPI PUSH2 0x8F0 PUSH2 0x574 JUMP JUMPDEST JUMPDEST PUSH2 0x8FD DUP5 DUP3 DUP6 ADD PUSH2 0x6CC JUMP JUMPDEST SWAP2 POP POP SWAP3 SWAP2 POP POP JUMP JUMPDEST PUSH0 PUSH1 0x40 DUP3 ADD SWAP1 POP DUP2 DUP2 SUB PUSH0 DUP4 ADD MSTORE PUSH2 0x91E DUP2 DUP6 PUSH2 0x50F JUMP JUMPDEST SWAP1 POP PUSH2 0x92D PUSH1 0x20 DUP4 ADD DUP5 PUSH2 0x4AF JUMP JUMPDEST SWAP4 SWAP3 POP POP POP JUMP JUMPDEST PUSH32 0x4E487B7100000000000000000000000000000000000000000000000000000000 PUSH0 MSTORE PUSH1 0x22 PUSH1 0x4 MSTORE PUSH1 0x24 PUSH0 REVERT JUMPDEST PUSH0 PUSH1 0x2 DUP3 DIV SWAP1 POP PUSH1 0x1 DUP3 AND DUP1 PUSH2 0x978 JUMPI PUSH1 0x7F DUP3 AND SWAP2 POP JUMPDEST PUSH1 0x20 DUP3 LT DUP2 SUB PUSH2 0x98B JUMPI PUSH2 0x98A PUSH2 0x934 JUMP JUMPDEST JUMPDEST POP SWAP2 SWAP1 POP JUMP JUMPDEST PUSH32 0x4E487B7100000000000000000000000000000000000000000000000000000000 PUSH0 MSTORE PUSH1 0x11 PUSH1 0x4 MSTORE PUSH1 0x24 PUSH0 REVERT JUMPDEST PUSH0 PUSH2 0x9C8 DUP3 PUSH2 0x4A6 JUMP JUMPDEST SWAP2 POP PUSH2 0x9D3 DUP4 PUSH2 0x4A6 JUMP JUMPDEST SWAP3 POP DUP3 DUP3 ADD SWAP1 POP DUP1 DUP3 GT ISZERO PUSH2 0x9EB JUMPI PUSH2 0x9EA PUSH2 0x991 JUMP JUMPDEST JUMPDEST SWAP3 SWAP2 POP POP JUMP JUMPDEST PUSH0 DUP2 SWAP1 POP DUP2 PUSH0 MSTORE PUSH1 0x20 PUSH0 KECCAK256 SWAP1 POP SWAP2 SWAP1 POP JUMP JUMPDEST PUSH0 PUSH1 0x20 PUSH1 0x1F DUP4 ADD DIV SWAP1 POP SWAP2 SWAP1 POP JUMP JUMPDEST PUSH0 DUP3 DUP3 SHL SWAP1 POP SWAP3 SWAP2 POP POP JUMP JUMPDEST PUSH0 PUSH1 0x8 DUP4 MUL PUSH2 0xA4D PUSH32 0xFFFFFFFFFFFFFFFFFFFFFFFFFFFFFFFFFFFFFFFFFFFFFFFFFFFFFFFFFFFFFFFF DUP3 PUSH2 0xA12 JUMP JUMPDEST PUSH2 0xA57 DUP7 DUP4 PUSH2 0xA12 JUMP JUMPDEST SWAP6 POP DUP1 NOT DUP5 AND SWAP4 POP DUP1 DUP7 AND DUP5 OR SWAP3 POP POP POP SWAP4 SWAP3 POP POP POP JUMP JUMPDEST PUSH0 DUP2 SWAP1 POP SWAP2 SWAP1 POP JUMP JUMPDEST PUSH0 PUSH2 0xA92 PUSH2 0xA8D PUSH2 0xA88 DUP5 PUSH2 0x4A6 JUMP JUMPDEST PUSH2 0xA6F JUMP JUMPDEST PUSH2 0x4A6 JUMP JUMPDEST SWAP1 POP SWAP2 SWAP1 POP JUMP JUMPDEST PUSH0 DUP2 SWAP1 POP SWAP2 SWAP1 POP JUMP JUMPDEST PUSH2 0xAAB DUP4 PUSH2 0xA78 JUMP JUMPDEST PUSH2 0xABF PUSH2 0xAB7 DUP3 PUSH2 0xA99 JUMP JUMPDEST DUP5 DUP5 SLOAD PUSH2 0xA1E JUMP JUMPDEST DUP3 SSTORE POP POP POP POP JUMP JUMPDEST PUSH0 PUSH0 SWAP1 POP SWAP1 JUMP JUMPDEST PUSH2 0xAD6 PUSH2 0xAC7 JUMP JUMPDEST PUSH2 0xAE1 DUP2 DUP5 DUP5 PUSH2 0xAA2 JUMP JUMPDEST POP POP POP JUMP JUMPDEST JUMPDEST DUP2 DUP2 LT ISZERO PUSH2 0xB04 JUMPI PUSH2 0xAF9 PUSH0 DUP3 PUSH2 0xACE JUMP JUMPDEST PUSH1 0x1 DUP2 ADD SWAP1 POP PUSH2 0xAE7 JUMP JUMPDEST POP POP JUMP JUMPDEST PUSH1 0x1F DUP3 GT ISZERO PUSH2 0xB49 JUMPI PUSH2 0xB1A DUP2 PUSH2 0x9F1 JUMP JUMPDEST PUSH2 0xB23 DUP5 PUSH2 0xA03 JUMP JUMPDEST DUP2 ADD PUSH1 0x20 DUP6 LT ISZERO PUSH2 0xB32 JUMPI DUP2 SWAP1 POP JUMPDEST PUSH2 0xB46 PUSH2 0xB3E DUP6 PUSH2 0xA03 JUMP JUMPDEST DUP4 ADD DUP3 PUSH2 0xAE6 JUMP JUMPDEST POP POP JUMPDEST POP POP POP JUMP JUMPDEST PUSH0 DUP3 DUP3 SHR SWAP1 POP SWAP3 SWAP2 POP POP JUMP JUMPDEST PUSH0 PUSH2 0xB69 PUSH0 NOT DUP5 PUSH1 0x8 MUL PUSH2 0xB4E JUMP JUMPDEST NOT DUP1 DUP4 AND SWAP2 POP POP SWAP3 SWAP2 POP POP JUMP JUMPDEST PUSH0 PUSH2 0xB81 DUP4 DUP4 PUSH2 0xB5A JUMP JUMPDEST SWAP2 POP DUP3 PUSH1 0x2 MUL DUP3 OR SWAP1 POP SWAP3 SWAP2 POP POP JUMP JUMPDEST PUSH2 0xB9A DUP3 PUSH2 0x4D7 JUMP JUMPDEST PUSH8 0xFFFFFFFFFFFFFFFF DUP2 GT ISZERO PUSH2 0xBB3 JUMPI PUSH2 0xBB2 PUSH2 0x5D5 JUMP JUMPDEST JUMPDEST PUSH2 0xBBD DUP3 SLOAD PUSH2 0x961 JUMP JUMPDEST PUSH2 0xBC8 DUP3 DUP3 DUP6 PUSH2 0xB08 JUMP JUMPDEST PUSH0 PUSH1 0x20 SWAP1 POP PUSH1 0x1F DUP4 GT PUSH1 0x1 DUP2 EQ PUSH2 0xBF9 JUMPI PUSH0 DUP5 ISZERO PUSH2 0xBE7 JUMPI DUP3 DUP8 ADD MLOAD SWAP1 POP JUMPDEST PUSH2 0xBF1 DUP6 DUP3 PUSH2 0xB76 JUMP JUMPDEST DUP7 SSTORE POP PUSH2 0xC58 JUMP JUMPDEST PUSH1 0x1F NOT DUP5 AND PUSH2 0xC07 DUP7 PUSH2 0x9F1 JUMP JUMPDEST PUSH0 JUMPDEST DUP3 DUP2 LT ISZERO PUSH2 0xC2E JUMPI DUP5 DUP10 ADD MLOAD DUP3 SSTORE PUSH1 0x1 DUP3 ADD SWAP2 POP PUSH1 0x20 DUP6 ADD SWAP5 POP PUSH1 0x20 DUP2 ADD SWAP1 POP PUSH2 0xC09 JUMP JUMPDEST DUP7 DUP4 LT ISZERO PUSH2 0xC4B JUMPI DUP5 DUP10 ADD MLOAD PUSH2 0xC47 PUSH1 0x1F DUP10 AND DUP3 PUSH2 0xB5A JUMP JUMPDEST DUP4 SSTORE POP JUMPDEST PUSH1 0x1 PUSH1 0x2 DUP9 MUL ADD DUP9 SSTORE POP POP POP JUMPDEST POP POP POP POP POP POP JUMP JUMPDEST PUSH0 DUP2 SWAP1 POP SWAP3 SWAP2 POP POP JUMP JUMPDEST PUSH0 PUSH2 0xC74 DUP3 PUSH2 0x4D7 JUMP JUMPDEST PUSH2 0xC7E DUP2 DUP6 PUSH2 0xC60 JUMP JUMPDEST SWAP4 POP PUSH2 0xC8E DUP2 DUP6 PUSH1 0x20 DUP7 ADD PUSH2 0x4F1 JUMP JUMPDEST DUP1 DUP5 ADD SWAP2 POP POP SWAP3 SWAP2 POP POP JUMP JUMPDEST PUSH0 PUSH2 0xCA5 DUP3 DUP5 PUSH2 0xC6A JUMP JUMPDEST SWAP2 POP DUP2 SWAP1 POP SWAP3 SWAP2 POP POP JUMP INVALID LOG2 PUSH5 0x6970667358 0x22 SLT KECCAK256 0xB7 0xE 0x2D PUSH10 0x89E9A8FA7F3C962683D4 0x4D 0xC6 0x27 SWAP14 0xB2 0xD9 0xBC 0xBB LOG3 BASEFEE BASEFEE TIMESTAMP 0xB0 ADDMOD CALL CODECOPY DUP8 0x26 PUSH5 0x736F6C6343 STOP ADDMOD SHR STOP CALLER "
		},
		"gasEstimates": {
			"creation": {
				"codeDepositCost": "660400",
				"executionCost": "694",
				"totalCost": "661094"
			},
			"external": {
				"addPerson(string,uint256)": "infinite",
				"favoriteNumber()": "2470",
				"getAllPeople()": "infinite",
				"people(uint256)": "infinite",
				"peopleName(string)": "infinite",
				"retrieve()": "2433",
				"store(uint256)": "infinite",
				"word()": "infinite"
			}
		},
		"methodIdentifiers": {
			"addPerson(string,uint256)": "6f760f41",
			"favoriteNumber()": "471f7cdf",
			"getAllPeople()": "85a26d7d",
			"people(uint256)": "9e7a13ad",
			"peopleName(string)": "9d40e57c",
			"retrieve()": "2e64cec1",
			"store(uint256)": "6057361d",
			"word()": "2f64d386"
		}
	},
	"abi": [
		{
			"inputs": [
				{
					"internalType": "string",
					"name": "_name",
					"type": "string"
				},
				{
					"internalType": "uint256",
					"name": "_age",
					"type": "uint256"
				}
			],
			"name": "addPerson",
			"outputs": [],
			"stateMutability": "nonpayable",
			"type": "function"
		},
		{
			"inputs": [],
			"name": "favoriteNumber",
			"outputs": [
				{
					"internalType": "uint256",
					"name": "",
					"type": "uint256"
				}
			],
			"stateMutability": "view",
			"type": "function"
		},
		{
			"inputs": [],
			"name": "getAllPeople",
			"outputs": [
				{
					"components": [
						{
							"internalType": "string",
							"name": "name",
							"type": "string"
						},
						{
							"internalType": "uint256",
							"name": "age",
							"type": "uint256"
						}
					],
					"internalType": "struct SimpleStorage.People[]",
					"name": "",
					"type": "tuple[]"
				}
			],
			"stateMutability": "view",
			"type": "function"
		},
		{
			"inputs": [
				{
					"internalType": "uint256",
					"name": "",
					"type": "uint256"
				}
			],
			"name": "people",
			"outputs": [
				{
					"internalType": "string",
					"name": "name",
					"type": "string"
				},
				{
					"internalType": "uint256",
					"name": "age",
					"type": "uint256"
				}
			],
			"stateMutability": "view",
			"type": "function"
		},
		{
			"inputs": [
				{
					"internalType": "string",
					"name": "",
					"type": "string"
				}
			],
			"name": "peopleName",
			"outputs": [
				{
					"internalType": "uint256",
					"name": "",
					"type": "uint256"
				}
			],
			"stateMutability": "view",
			"type": "function"
		},
		{
			"inputs": [],
			"name": "retrieve",
			"outputs": [
				{
					"internalType": "uint256",
					"name": "",
					"type": "uint256"
				}
			],
			"stateMutability": "view",
			"type": "function"
		},
		{
			"inputs": [
				{
					"internalType": "uint256",
					"name": "_favoriteNumber",
					"type": "uint256"
				}
			],
			"name": "store",
			"outputs": [],
			"stateMutability": "nonpayable",
			"type": "function"
		},
		{
			"inputs": [],
			"name": "word",
			"outputs": [
				{
					"internalType": "string",
					"name": "",
					"type": "string"
				}
			],
			"stateMutability": "view",
			"type": "function"
		}
	]
}