{
	"data": {
		"bytecode": {
			"linkReferences": {},
			"object": "6080604052348015600e575f5ffd5b506114a58061001c5f395ff3fe608060405234801561000f575f5ffd5b506004361061004a575f3560e01c80631dda65411461004e57806364591bf1146100585780637bef6ae414610088578063c5f19c20146100a4575b5f5ffd5b6100566100d4565b005b610072600480360381019061006d9190610341565b61015f565b60405161007f91906103e6565b60405180910390f35b6100a2600480360381019061009d919061053b565b610199565b005b6100be60048036038101906100b99190610341565b61023d565b6040516100cb91906105f5565b60405180910390f35b5f6040516100e1906102f0565b604051809103905ff0801580156100fa573d5f5f3e3d5ffd5b5090505f81908060018154018082558091505060019003905f5260205f20015f9091909190916101000a81548173ffffffffffffffffffffffffffffffffffffffff021916908373ffffffffffffffffffffffffffffffffffffffff16021790555050565b5f818154811061016d575f80fd5b905f5260205f20015f915054906101000a900473ffffffffffffffffffffffffffffffffffffffff1681565b5f82815481106101ac576101ab610615565b5b905f5260205f20015f9054906101000a900473ffffffffffffffffffffffffffffffffffffffff1673ffffffffffffffffffffffffffffffffffffffff1663131a0680826040518263ffffffff1660e01b815260040161020c91906105f5565b5f604051808303815f87803b158015610223575f5ffd5b505af1158015610235573d5f5f3e3d5ffd5b505050505050565b60605f828154811061025257610251610615565b5b905f5260205f20015f9054906101000a900473ffffffffffffffffffffffffffffffffffffffff1673ffffffffffffffffffffffffffffffffffffffff16632e64cec16040518163ffffffff1660e01b81526004015f60405180830381865afa1580156102c1573d5f5f3e3d5ffd5b505050506040513d5f823e3d601f19601f820116820180604052508101906102e991906106b0565b9050919050565b610d78806106f883390190565b5f604051905090565b5f5ffd5b5f5ffd5b5f819050919050565b6103208161030e565b811461032a575f5ffd5b50565b5f8135905061033b81610317565b92915050565b5f6020828403121561035657610355610306565b5b5f6103638482850161032d565b91505092915050565b5f73ffffffffffffffffffffffffffffffffffffffff82169050919050565b5f819050919050565b5f6103ae6103a96103a48461036c565b61038b565b61036c565b9050919050565b5f6103bf82610394565b9050919050565b5f6103d0826103b5565b9050919050565b6103e0816103c6565b82525050565b5f6020820190506103f95f8301846103d7565b92915050565b5f5ffd5b5f5ffd5b5f601f19601f8301169050919050565b7f4e487b71000000000000000000000000000000000000000000000000000000005f52604160045260245ffd5b61044d82610407565b810181811067ffffffffffffffff8211171561046c5761046b610417565b5b80604052505050565b5f61047e6102fd565b905061048a8282610444565b919050565b5f67ffffffffffffffff8211156104a9576104a8610417565b5b6104b282610407565b9050602081019050919050565b828183375f83830152505050565b5f6104df6104da8461048f565b610475565b9050828152602081018484840111156104fb576104fa610403565b5b6105068482856104bf565b509392505050565b5f82601f830112610522576105216103ff565b5b81356105328482602086016104cd565b91505092915050565b5f5f6040838503121561055157610550610306565b5b5f61055e8582860161032d565b925050602083013567ffffffffffffffff81111561057f5761057e61030a565b5b61058b8582860161050e565b9150509250929050565b5f81519050919050565b5f82825260208201905092915050565b8281835e5f83830152505050565b5f6105c782610595565b6105d1818561059f565b93506105e18185602086016105af565b6105ea81610407565b840191505092915050565b5f6020820190508181035f83015261060d81846105bd565b905092915050565b7f4e487b71000000000000000000000000000000000000000000000000000000005f52603260045260245ffd5b5f61065461064f8461048f565b610475565b9050828152602081018484840111156106705761066f610403565b5b61067b8482856105af565b509392505050565b5f82601f830112610697576106966103ff565b5b81516106a7848260208601610642565b91505092915050565b5f602082840312156106c5576106c4610306565b5b5f82015167ffffffffffffffff8111156106e2576106e161030a565b5b6106ee84828501610683565b9150509291505056fe6080604052348015600e575f5ffd5b50610d5c8061001c5f395ff3fe608060405234801561000f575f5ffd5b506004361061007b575f3560e01c80636f760f41116100595780636f760f41146100d757806385a26d7d146100f35780639d40e57c146101115780639e7a13ad146101415761007b565b8063131a06801461007f5780632e64cec11461009b5780632f64d386146100b9575b5f5ffd5b610099600480360381019061009491906105de565b610172565b005b6100a3610184565b6040516100b09190610685565b60405180910390f35b6100c16101ab565b6040516100ce9190610685565b60405180910390f35b6100f160048036038101906100ec91906106d8565b610236565b005b6100fb6102ba565b604051610108919061087e565b60405180910390f35b61012b600480360381019061012691906105de565b6103af565b60405161013891906108ad565b60405180910390f35b61015b600480360381019061015691906108c6565b6103dc565b6040516101699291906108f1565b60405180910390f35b805f90816101809190610b1c565b5050565b60605f6040516020016101979190610cbf565b604051602081830303815290604052905090565b5f80546101b79061094c565b80601f01602080910402602001604051908101604052809291908181526020018280546101e39061094c565b801561022e5780601f106102055761010080835404028352916020019161022e565b820191905f5260205f20905b81548152906001019060200180831161021157829003601f168201915b505050505081565b6001604051806040016040528084815260200183815250908060018154018082558091505060019003905f5260205f2090600202015f909190919091505f820151815f0190816102869190610b1c565b50602082015181600101555050806002836040516102a49190610d10565b9081526020016040518091039020819055505050565b60606001805480602002602001604051908101604052809291908181526020015f905b828210156103a6578382905f5260205f2090600202016040518060400160405290815f8201805461030d9061094c565b80601f01602080910402602001604051908101604052809291908181526020018280546103399061094c565b80156103845780601f1061035b57610100808354040283529160200191610384565b820191905f5260205f20905b81548152906001019060200180831161036757829003601f168201915b50505050508152602001600182015481525050815260200190600101906102dd565b50505050905090565b6002818051602081018201805184825260208301602085012081835280955050505050505f915090505481565b600181815481106103eb575f80fd5b905f5260205f2090600202015f91509050805f01805461040a9061094c565b80601f01602080910402602001604051908101604052809291908181526020018280546104369061094c565b80156104815780601f1061045857610100808354040283529160200191610481565b820191905f5260205f20905b81548152906001019060200180831161046457829003601f168201915b5050505050908060010154905082565b5f604051905090565b5f5ffd5b5f5ffd5b5f5ffd5b5f5ffd5b5f601f19601f8301169050919050565b7f4e487b71000000000000000000000000000000000000000000000000000000005f52604160045260245ffd5b6104f0826104aa565b810181811067ffffffffffffffff8211171561050f5761050e6104ba565b5b80604052505050565b5f610521610491565b905061052d82826104e7565b919050565b5f67ffffffffffffffff82111561054c5761054b6104ba565b5b610555826104aa565b9050602081019050919050565b828183375f83830152505050565b5f61058261057d84610532565b610518565b90508281526020810184848401111561059e5761059d6104a6565b5b6105a9848285610562565b509392505050565b5f82601f8301126105c5576105c46104a2565b5b81356105d5848260208601610570565b91505092915050565b5f602082840312156105f3576105f261049a565b5b5f82013567ffffffffffffffff8111156106105761060f61049e565b5b61061c848285016105b1565b91505092915050565b5f81519050919050565b5f82825260208201905092915050565b8281835e5f83830152505050565b5f61065782610625565b610661818561062f565b935061067181856020860161063f565b61067a816104aa565b840191505092915050565b5f6020820190508181035f83015261069d818461064d565b905092915050565b5f819050919050565b6106b7816106a5565b81146106c1575f5ffd5b50565b5f813590506106d2816106ae565b92915050565b5f5f604083850312156106ee576106ed61049a565b5b5f83013567ffffffffffffffff81111561070b5761070a61049e565b5b610717858286016105b1565b9250506020610728858286016106c4565b9150509250929050565b5f81519050919050565b5f82825260208201905092915050565b5f819050602082019050919050565b5f82825260208201905092915050565b5f61077582610625565b61077f818561075b565b935061078f81856020860161063f565b610798816104aa565b840191505092915050565b6107ac816106a5565b82525050565b5f604083015f8301518482035f8601526107cc828261076b565b91505060208301516107e160208601826107a3565b508091505092915050565b5f6107f783836107b2565b905092915050565b5f602082019050919050565b5f61081582610732565b61081f818561073c565b9350836020820285016108318561074c565b805f5b8581101561086c578484038952815161084d85826107ec565b9450610858836107ff565b925060208a01995050600181019050610834565b50829750879550505050505092915050565b5f6020820190508181035f830152610896818461080b565b905092915050565b6108a7816106a5565b82525050565b5f6020820190506108c05f83018461089e565b92915050565b5f602082840312156108db576108da61049a565b5b5f6108e8848285016106c4565b91505092915050565b5f6040820190508181035f830152610909818561064d565b9050610918602083018461089e565b9392505050565b7f4e487b71000000000000000000000000000000000000000000000000000000005f52602260045260245ffd5b5f600282049050600182168061096357607f821691505b6020821081036109765761097561091f565b5b50919050565b5f819050815f5260205f209050919050565b5f6020601f8301049050919050565b5f82821b905092915050565b5f600883026109d87fffffffffffffffffffffffffffffffffffffffffffffffffffffffffffffffff8261099d565b6109e2868361099d565b95508019841693508086168417925050509392505050565b5f819050919050565b5f610a1d610a18610a13846106a5565b6109fa565b6106a5565b9050919050565b5f819050919050565b610a3683610a03565b610a4a610a4282610a24565b8484546109a9565b825550505050565b5f5f905090565b610a61610a52565b610a6c818484610a2d565b505050565b5b81811015610a8f57610a845f82610a59565b600181019050610a72565b5050565b601f821115610ad457610aa58161097c565b610aae8461098e565b81016020851015610abd578190505b610ad1610ac98561098e565b830182610a71565b50505b505050565b5f82821c905092915050565b5f610af45f1984600802610ad9565b1980831691505092915050565b5f610b0c8383610ae5565b9150826002028217905092915050565b610b2582610625565b67ffffffffffffffff811115610b3e57610b3d6104ba565b5b610b48825461094c565b610b53828285610a93565b5f60209050601f831160018114610b84575f8415610b72578287015190505b610b7c8582610b01565b865550610be3565b601f198416610b928661097c565b5f5b82811015610bb957848901518255600182019150602085019450602081019050610b94565b86831015610bd65784890151610bd2601f891682610ae5565b8355505b6001600288020188555050505b505050505050565b5f81905092915050565b5f8154610c018161094c565b610c0b8186610beb565b9450600182165f8114610c255760018114610c3a57610c6c565b60ff1983168652811515820286019350610c6c565b610c438561097c565b5f5b83811015610c6457815481890152600182019150602081019050610c45565b838801955050505b50505092915050565b7f20434f42412031000000000000000000000000000000000000000000000000005f82015250565b5f610ca9600783610beb565b9150610cb482610c75565b600782019050919050565b5f610cca8284610bf5565b9150610cd582610c9d565b915081905092915050565b5f610cea82610625565b610cf48185610beb565b9350610d0481856020860161063f565b80840191505092915050565b5f610d1b8284610ce0565b91508190509291505056fea2646970667358221220e4b53b2c9dc9068cffbb0def7ad6c3986ee498b2a5a61a6ac575af999d9da51164736f6c634300081c0033a2646970667358221220abb81247c5b39b4bde507b913965da4376bb652ce5756c2d06c70e7de43590a064736f6c634300081c0033",
			"opcodes": "PUSH1 0x80 PUSH1 0x40 MSTORE CALLVALUE DUP1 ISZERO PUSH1 0xE JUMPI PUSH0 PUSH0 REVERT JUMPDEST POP PUSH2 0x14A5 DUP1 PUSH2 0x1C PUSH0 CODECOPY PUSH0 RETURN INVALID PUSH1 0x80 PUSH1 0x40 MSTORE CALLVALUE DUP1 ISZERO PUSH2 0xF JUMPI PUSH0 PUSH0 REVERT JUMPDEST POP PUSH1 0x4 CALLDATASIZE LT PUSH2 0x4A JUMPI PUSH0 CALLDATALOAD PUSH1 0xE0 SHR DUP1 PUSH4 0x1DDA6541 EQ PUSH2 0x4E JUMPI DUP1 PUSH4 0x64591BF1 EQ PUSH2 0x58 JUMPI DUP1 PUSH4 0x7BEF6AE4 EQ PUSH2 0x88 JUMPI DUP1 PUSH4 0xC5F19C20 EQ PUSH2 0xA4 JUMPI JUMPDEST PUSH0 PUSH0 REVERT JUMPDEST PUSH2 0x56 PUSH2 0xD4 JUMP JUMPDEST STOP JUMPDEST PUSH2 0x72 PUSH1 0x4 DUP1 CALLDATASIZE SUB DUP2 ADD SWAP1 PUSH2 0x6D SWAP2 SWAP1 PUSH2 0x341 JUMP JUMPDEST PUSH2 0x15F JUMP JUMPDEST PUSH1 0x40 MLOAD PUSH2 0x7F SWAP2 SWAP1 PUSH2 0x3E6 JUMP JUMPDEST PUSH1 0x40 MLOAD DUP1 SWAP2 SUB SWAP1 RETURN JUMPDEST PUSH2 0xA2 PUSH1 0x4 DUP1 CALLDATASIZE SUB DUP2 ADD SWAP1 PUSH2 0x9D SWAP2 SWAP1 PUSH2 0x53B JUMP JUMPDEST PUSH2 0x199 JUMP JUMPDEST STOP JUMPDEST PUSH2 0xBE PUSH1 0x4 DUP1 CALLDATASIZE SUB DUP2 ADD SWAP1 PUSH2 0xB9 SWAP2 SWAP1 PUSH2 0x341 JUMP JUMPDEST PUSH2 0x23D JUMP JUMPDEST PUSH1 0x40 MLOAD PUSH2 0xCB SWAP2 SWAP1 PUSH2 0x5F5 JUMP JUMPDEST PUSH1 0x40 MLOAD DUP1 SWAP2 SUB SWAP1 RETURN JUMPDEST PUSH0 PUSH1 0x40 MLOAD PUSH2 0xE1 SWAP1 PUSH2 0x2F0 JUMP JUMPDEST PUSH1 0x40 MLOAD DUP1 SWAP2 SUB SWAP1 PUSH0 CREATE DUP1 ISZERO DUP1 ISZERO PUSH2 0xFA JUMPI RETURNDATASIZE PUSH0 PUSH0 RETURNDATACOPY RETURNDATASIZE PUSH0 REVERT JUMPDEST POP SWAP1 POP PUSH0 DUP2 SWAP1 DUP1 PUSH1 0x1 DUP2 SLOAD ADD DUP1 DUP3 SSTORE DUP1 SWAP2 POP POP PUSH1 0x1 SWAP1 SUB SWAP1 PUSH0 MSTORE PUSH1 0x20 PUSH0 KECCAK256 ADD PUSH0 SWAP1 SWAP2 SWAP1 SWAP2 SWAP1 SWAP2 PUSH2 0x100 EXP DUP2 SLOAD DUP2 PUSH20 0xFFFFFFFFFFFFFFFFFFFFFFFFFFFFFFFFFFFFFFFF MUL NOT AND SWAP1 DUP4 PUSH20 0xFFFFFFFFFFFFFFFFFFFFFFFFFFFFFFFFFFFFFFFF AND MUL OR SWAP1 SSTORE POP POP JUMP JUMPDEST PUSH0 DUP2 DUP2 SLOAD DUP2 LT PUSH2 0x16D JUMPI PUSH0 DUP1 REVERT JUMPDEST SWAP1 PUSH0 MSTORE PUSH1 0x20 PUSH0 KECCAK256 ADD PUSH0 SWAP2 POP SLOAD SWAP1 PUSH2 0x100 EXP SWAP1 DIV PUSH20 0xFFFFFFFFFFFFFFFFFFFFFFFFFFFFFFFFFFFFFFFF AND DUP2 JUMP JUMPDEST PUSH0 DUP3 DUP2 SLOAD DUP2 LT PUSH2 0x1AC JUMPI PUSH2 0x1AB PUSH2 0x615 JUMP JUMPDEST JUMPDEST SWAP1 PUSH0 MSTORE PUSH1 0x20 PUSH0 KECCAK256 ADD PUSH0 SWAP1 SLOAD SWAP1 PUSH2 0x100 EXP SWAP1 DIV PUSH20 0xFFFFFFFFFFFFFFFFFFFFFFFFFFFFFFFFFFFFFFFF AND PUSH20 0xFFFFFFFFFFFFFFFFFFFFFFFFFFFFFFFFFFFFFFFF AND PUSH4 0x131A0680 DUP3 PUSH1 0x40 MLOAD DUP3 PUSH4 0xFFFFFFFF AND PUSH1 0xE0 SHL DUP2 MSTORE PUSH1 0x4 ADD PUSH2 0x20C SWAP2 SWAP1 PUSH2 0x5F5 JUMP JUMPDEST PUSH0 PUSH1 0x40 MLOAD DUP1 DUP4 SUB DUP2 PUSH0 DUP8 DUP1 EXTCODESIZE ISZERO DUP1 ISZERO PUSH2 0x223 JUMPI PUSH0 PUSH0 REVERT JUMPDEST POP GAS CALL ISZERO DUP1 ISZERO PUSH2 0x235 JUMPI RETURNDATASIZE PUSH0 PUSH0 RETURNDATACOPY RETURNDATASIZE PUSH0 REVERT JUMPDEST POP POP POP POP POP POP JUMP JUMPDEST PUSH1 0x60 PUSH0 DUP3 DUP2 SLOAD DUP2 LT PUSH2 0x252 JUMPI PUSH2 0x251 PUSH2 0x615 JUMP JUMPDEST JUMPDEST SWAP1 PUSH0 MSTORE PUSH1 0x20 PUSH0 KECCAK256 ADD PUSH0 SWAP1 SLOAD SWAP1 PUSH2 0x100 EXP SWAP1 DIV PUSH20 0xFFFFFFFFFFFFFFFFFFFFFFFFFFFFFFFFFFFFFFFF AND PUSH20 0xFFFFFFFFFFFFFFFFFFFFFFFFFFFFFFFFFFFFFFFF AND PUSH4 0x2E64CEC1 PUSH1 0x40 MLOAD DUP2 PUSH4 0xFFFFFFFF AND PUSH1 0xE0 SHL DUP2 MSTORE PUSH1 0x4 ADD PUSH0 PUSH1 0x40 MLOAD DUP1 DUP4 SUB DUP2 DUP7 GAS STATICCALL ISZERO DUP1 ISZERO PUSH2 0x2C1 JUMPI RETURNDATASIZE PUSH0 PUSH0 RETURNDATACOPY RETURNDATASIZE PUSH0 REVERT JUMPDEST POP POP POP POP PUSH1 0x40 MLOAD RETURNDATASIZE PUSH0 DUP3 RETURNDATACOPY RETURNDATASIZE PUSH1 0x1F NOT PUSH1 0x1F DUP3 ADD AND DUP3 ADD DUP1 PUSH1 0x40 MSTORE POP DUP2 ADD SWAP1 PUSH2 0x2E9 SWAP2 SWAP1 PUSH2 0x6B0 JUMP JUMPDEST SWAP1 POP SWAP2 SWAP1 POP JUMP JUMPDEST PUSH2 0xD78 DUP1 PUSH2 0x6F8 DUP4 CODECOPY ADD SWAP1 JUMP JUMPDEST PUSH0 PUSH1 0x40 MLOAD SWAP1 POP SWAP1 JUMP JUMPDEST PUSH0 PUSH0 REVERT JUMPDEST PUSH0 PUSH0 REVERT JUMPDEST PUSH0 DUP2 SWAP1 POP SWAP2 SWAP1 POP JUMP JUMPDEST PUSH2 0x320 DUP2 PUSH2 0x30E JUMP JUMPDEST DUP2 EQ PUSH2 0x32A JUMPI PUSH0 PUSH0 REVERT JUMPDEST POP JUMP JUMPDEST PUSH0 DUP2 CALLDATALOAD SWAP1 POP PUSH2 0x33B DUP2 PUSH2 0x317 JUMP JUMPDEST SWAP3 SWAP2 POP POP JUMP JUMPDEST PUSH0 PUSH1 0x20 DUP3 DUP5 SUB SLT ISZERO PUSH2 0x356 JUMPI PUSH2 0x355 PUSH2 0x306 JUMP JUMPDEST JUMPDEST PUSH0 PUSH2 0x363 DUP5 DUP3 DUP6 ADD PUSH2 0x32D JUMP JUMPDEST SWAP2 POP POP SWAP3 SWAP2 POP POP JUMP JUMPDEST PUSH0 PUSH20 0xFFFFFFFFFFFFFFFFFFFFFFFFFFFFFFFFFFFFFFFF DUP3 AND SWAP1 POP SWAP2 SWAP1 POP JUMP JUMPDEST PUSH0 DUP2 SWAP1 POP SWAP2 SWAP1 POP JUMP JUMPDEST PUSH0 PUSH2 0x3AE PUSH2 0x3A9 PUSH2 0x3A4 DUP5 PUSH2 0x36C JUMP JUMPDEST PUSH2 0x38B JUMP JUMPDEST PUSH2 0x36C JUMP JUMPDEST SWAP1 POP SWAP2 SWAP1 POP JUMP JUMPDEST PUSH0 PUSH2 0x3BF DUP3 PUSH2 0x394 JUMP JUMPDEST SWAP1 POP SWAP2 SWAP1 POP JUMP JUMPDEST PUSH0 PUSH2 0x3D0 DUP3 PUSH2 0x3B5 JUMP JUMPDEST SWAP1 POP SWAP2 SWAP1 POP JUMP JUMPDEST PUSH2 0x3E0 DUP2 PUSH2 0x3C6 JUMP JUMPDEST DUP3 MSTORE POP POP JUMP JUMPDEST PUSH0 PUSH1 0x20 DUP3 ADD SWAP1 POP PUSH2 0x3F9 PUSH0 DUP4 ADD DUP5 PUSH2 0x3D7 JUMP JUMPDEST SWAP3 SWAP2 POP POP JUMP JUMPDEST PUSH0 PUSH0 REVERT JUMPDEST PUSH0 PUSH0 REVERT JUMPDEST PUSH0 PUSH1 0x1F NOT PUSH1 0x1F DUP4 ADD AND SWAP1 POP SWAP2 SWAP1 POP JUMP JUMPDEST PUSH32 0x4E487B7100000000000000000000000000000000000000000000000000000000 PUSH0 MSTORE PUSH1 0x41 PUSH1 0x4 MSTORE PUSH1 0x24 PUSH0 REVERT JUMPDEST PUSH2 0x44D DUP3 PUSH2 0x407 JUMP JUMPDEST DUP2 ADD DUP2 DUP2 LT PUSH8 0xFFFFFFFFFFFFFFFF DUP3 GT OR ISZERO PUSH2 0x46C JUMPI PUSH2 0x46B PUSH2 0x417 JUMP JUMPDEST JUMPDEST DUP1 PUSH1 0x40 MSTORE POP POP POP JUMP JUMPDEST PUSH0 PUSH2 0x47E PUSH2 0x2FD JUMP JUMPDEST SWAP1 POP PUSH2 0x48A DUP3 DUP3 PUSH2 0x444 JUMP JUMPDEST SWAP2 SWAP1 POP JUMP JUMPDEST PUSH0 PUSH8 0xFFFFFFFFFFFFFFFF DUP3 GT ISZERO PUSH2 0x4A9 JUMPI PUSH2 0x4A8 PUSH2 0x417 JUMP JUMPDEST JUMPDEST PUSH2 0x4B2 DUP3 PUSH2 0x407 JUMP JUMPDEST SWAP1 POP PUSH1 0x20 DUP2 ADD SWAP1 POP SWAP2 SWAP1 POP JUMP JUMPDEST DUP3 DUP2 DUP4 CALLDATACOPY PUSH0 DUP4 DUP4 ADD MSTORE POP POP POP JUMP JUMPDEST PUSH0 PUSH2 0x4DF PUSH2 0x4DA DUP5 PUSH2 0x48F JUMP JUMPDEST PUSH2 0x475 JUMP JUMPDEST SWAP1 POP DUP3 DUP2 MSTORE PUSH1 0x20 DUP2 ADD DUP5 DUP5 DUP5 ADD GT ISZERO PUSH2 0x4FB JUMPI PUSH2 0x4FA PUSH2 0x403 JUMP JUMPDEST JUMPDEST PUSH2 0x506 DUP5 DUP3 DUP6 PUSH2 0x4BF JUMP JUMPDEST POP SWAP4 SWAP3 POP POP POP JUMP JUMPDEST PUSH0 DUP3 PUSH1 0x1F DUP4 ADD SLT PUSH2 0x522 JUMPI PUSH2 0x521 PUSH2 0x3FF JUMP JUMPDEST JUMPDEST DUP2 CALLDATALOAD PUSH2 0x532 DUP5 DUP3 PUSH1 0x20 DUP7 ADD PUSH2 0x4CD JUMP JUMPDEST SWAP2 POP POP SWAP3 SWAP2 POP POP JUMP JUMPDEST PUSH0 PUSH0 PUSH1 0x40 DUP4 DUP6 SUB SLT ISZERO PUSH2 0x551 JUMPI PUSH2 0x550 PUSH2 0x306 JUMP JUMPDEST JUMPDEST PUSH0 PUSH2 0x55E DUP6 DUP3 DUP7 ADD PUSH2 0x32D JUMP JUMPDEST SWAP3 POP POP PUSH1 0x20 DUP4 ADD CALLDATALOAD PUSH8 0xFFFFFFFFFFFFFFFF DUP2 GT ISZERO PUSH2 0x57F JUMPI PUSH2 0x57E PUSH2 0x30A JUMP JUMPDEST JUMPDEST PUSH2 0x58B DUP6 DUP3 DUP7 ADD PUSH2 0x50E JUMP JUMPDEST SWAP2 POP POP SWAP3 POP SWAP3 SWAP1 POP JUMP JUMPDEST PUSH0 DUP2 MLOAD SWAP1 POP SWAP2 SWAP1 POP JUMP JUMPDEST PUSH0 DUP3 DUP3 MSTORE PUSH1 0x20 DUP3 ADD SWAP1 POP SWAP3 SWAP2 POP POP JUMP JUMPDEST DUP3 DUP2 DUP4 MCOPY PUSH0 DUP4 DUP4 ADD MSTORE POP POP POP JUMP JUMPDEST PUSH0 PUSH2 0x5C7 DUP3 PUSH2 0x595 JUMP JUMPDEST PUSH2 0x5D1 DUP2 DUP6 PUSH2 0x59F JUMP JUMPDEST SWAP4 POP PUSH2 0x5E1 DUP2 DUP6 PUSH1 0x20 DUP7 ADD PUSH2 0x5AF JUMP JUMPDEST PUSH2 0x5EA DUP2 PUSH2 0x407 JUMP JUMPDEST DUP5 ADD SWAP2 POP POP SWAP3 SWAP2 POP POP JUMP JUMPDEST PUSH0 PUSH1 0x20 DUP3 ADD SWAP1 POP DUP2 DUP2 SUB PUSH0 DUP4 ADD MSTORE PUSH2 0x60D DUP2 DUP5 PUSH2 0x5BD JUMP JUMPDEST SWAP1 POP SWAP3 SWAP2 POP POP JUMP JUMPDEST PUSH32 0x4E487B7100000000000000000000000000000000000000000000000000000000 PUSH0 MSTORE PUSH1 0x32 PUSH1 0x4 MSTORE PUSH1 0x24 PUSH0 REVERT JUMPDEST PUSH0 PUSH2 0x654 PUSH2 0x64F DUP5 PUSH2 0x48F JUMP JUMPDEST PUSH2 0x475 JUMP JUMPDEST SWAP1 POP DUP3 DUP2 MSTORE PUSH1 0x20 DUP2 ADD DUP5 DUP5 DUP5 ADD GT ISZERO PUSH2 0x670 JUMPI PUSH2 0x66F PUSH2 0x403 JUMP JUMPDEST JUMPDEST PUSH2 0x67B DUP5 DUP3 DUP6 PUSH2 0x5AF JUMP JUMPDEST POP SWAP4 SWAP3 POP POP POP JUMP JUMPDEST PUSH0 DUP3 PUSH1 0x1F DUP4 ADD SLT PUSH2 0x697 JUMPI PUSH2 0x696 PUSH2 0x3FF JUMP JUMPDEST JUMPDEST DUP2 MLOAD PUSH2 0x6A7 DUP5 DUP3 PUSH1 0x20 DUP7 ADD PUSH2 0x642 JUMP JUMPDEST SWAP2 POP POP SWAP3 SWAP2 POP POP JUMP JUMPDEST PUSH0 PUSH1 0x20 DUP3 DUP5 SUB SLT ISZERO PUSH2 0x6C5 JUMPI PUSH2 0x6C4 PUSH2 0x306 JUMP JUMPDEST JUMPDEST PUSH0 DUP3 ADD MLOAD PUSH8 0xFFFFFFFFFFFFFFFF DUP2 GT ISZERO PUSH2 0x6E2 JUMPI PUSH2 0x6E1 PUSH2 0x30A JUMP JUMPDEST JUMPDEST PUSH2 0x6EE DUP5 DUP3 DUP6 ADD PUSH2 0x683 JUMP JUMPDEST SWAP2 POP POP SWAP3 SWAP2 POP POP JUMP INVALID PUSH1 0x80 PUSH1 0x40 MSTORE CALLVALUE DUP1 ISZERO PUSH1 0xE JUMPI PUSH0 PUSH0 REVERT JUMPDEST POP PUSH2 0xD5C DUP1 PUSH2 0x1C PUSH0 CODECOPY PUSH0 RETURN INVALID PUSH1 0x80 PUSH1 0x40 MSTORE CALLVALUE DUP1 ISZERO PUSH2 0xF JUMPI PUSH0 PUSH0 REVERT JUMPDEST POP PUSH1 0x4 CALLDATASIZE LT PUSH2 0x7B JUMPI PUSH0 CALLDATALOAD PUSH1 0xE0 SHR DUP1 PUSH4 0x6F760F41 GT PUSH2 0x59 JUMPI DUP1 PUSH4 0x6F760F41 EQ PUSH2 0xD7 JUMPI DUP1 PUSH4 0x85A26D7D EQ PUSH2 0xF3 JUMPI DUP1 PUSH4 0x9D40E57C EQ PUSH2 0x111 JUMPI DUP1 PUSH4 0x9E7A13AD EQ PUSH2 0x141 JUMPI PUSH2 0x7B JUMP JUMPDEST DUP1 PUSH4 0x131A0680 EQ PUSH2 0x7F JUMPI DUP1 PUSH4 0x2E64CEC1 EQ PUSH2 0x9B JUMPI DUP1 PUSH4 0x2F64D386 EQ PUSH2 0xB9 JUMPI JUMPDEST PUSH0 PUSH0 REVERT JUMPDEST PUSH2 0x99 PUSH1 0x4 DUP1 CALLDATASIZE SUB DUP2 ADD SWAP1 PUSH2 0x94 SWAP2 SWAP1 PUSH2 0x5DE JUMP JUMPDEST PUSH2 0x172 JUMP JUMPDEST STOP JUMPDEST PUSH2 0xA3 PUSH2 0x184 JUMP JUMPDEST PUSH1 0x40 MLOAD PUSH2 0xB0 SWAP2 SWAP1 PUSH2 0x685 JUMP JUMPDEST PUSH1 0x40 MLOAD DUP1 SWAP2 SUB SWAP1 RETURN JUMPDEST PUSH2 0xC1 PUSH2 0x1AB JUMP JUMPDEST PUSH1 0x40 MLOAD PUSH2 0xCE SWAP2 SWAP1 PUSH2 0x685 JUMP JUMPDEST PUSH1 0x40 MLOAD DUP1 SWAP2 SUB SWAP1 RETURN JUMPDEST PUSH2 0xF1 PUSH1 0x4 DUP1 CALLDATASIZE SUB DUP2 ADD SWAP1 PUSH2 0xEC SWAP2 SWAP1 PUSH2 0x6D8 JUMP JUMPDEST PUSH2 0x236 JUMP JUMPDEST STOP JUMPDEST PUSH2 0xFB PUSH2 0x2BA JUMP JUMPDEST PUSH1 0x40 MLOAD PUSH2 0x108 SWAP2 SWAP1 PUSH2 0x87E JUMP JUMPDEST PUSH1 0x40 MLOAD DUP1 SWAP2 SUB SWAP1 RETURN JUMPDEST PUSH2 0x12B PUSH1 0x4 DUP1 CALLDATASIZE SUB DUP2 ADD SWAP1 PUSH2 0x126 SWAP2 SWAP1 PUSH2 0x5DE JUMP JUMPDEST PUSH2 0x3AF JUMP JUMPDEST PUSH1 0x40 MLOAD PUSH2 0x138 SWAP2 SWAP1 PUSH2 0x8AD JUMP JUMPDEST PUSH1 0x40 MLOAD DUP1 SWAP2 SUB SWAP1 RETURN JUMPDEST PUSH2 0x15B PUSH1 0x4 DUP1 CALLDATASIZE SUB DUP2 ADD SWAP1 PUSH2 0x156 SWAP2 SWAP1 PUSH2 0x8C6 JUMP JUMPDEST PUSH2 0x3DC JUMP JUMPDEST PUSH1 0x40 MLOAD PUSH2 0x169 SWAP3 SWAP2 SWAP1 PUSH2 0x8F1 JUMP JUMPDEST PUSH1 0x40 MLOAD DUP1 SWAP2 SUB SWAP1 RETURN JUMPDEST DUP1 PUSH0 SWAP1 DUP2 PUSH2 0x180 SWAP2 SWAP1 PUSH2 0xB1C JUMP JUMPDEST POP POP JUMP JUMPDEST PUSH1 0x60 PUSH0 PUSH1 0x40 MLOAD PUSH1 0x20 ADD PUSH2 0x197 SWAP2 SWAP1 PUSH2 0xCBF JUMP JUMPDEST PUSH1 0x40 MLOAD PUSH1 0x20 DUP2 DUP4 SUB SUB DUP2 MSTORE SWAP1 PUSH1 0x40 MSTORE SWAP1 POP SWAP1 JUMP JUMPDEST PUSH0 DUP1 SLOAD PUSH2 0x1B7 SWAP1 PUSH2 0x94C JUMP JUMPDEST DUP1 PUSH1 0x1F ADD PUSH1 0x20 DUP1 SWAP2 DIV MUL PUSH1 0x20 ADD PUSH1 0x40 MLOAD SWAP1 DUP2 ADD PUSH1 0x40 MSTORE DUP1 SWAP3 SWAP2 SWAP1 DUP2 DUP2 MSTORE PUSH1 0x20 ADD DUP3 DUP1 SLOAD PUSH2 0x1E3 SWAP1 PUSH2 0x94C JUMP JUMPDEST DUP1 ISZERO PUSH2 0x22E JUMPI DUP1 PUSH1 0x1F LT PUSH2 0x205 JUMPI PUSH2 0x100 DUP1 DUP4 SLOAD DIV MUL DUP4 MSTORE SWAP2 PUSH1 0x20 ADD SWAP2 PUSH2 0x22E JUMP JUMPDEST DUP3 ADD SWAP2 SWAP1 PUSH0 MSTORE PUSH1 0x20 PUSH0 KECCAK256 SWAP1 JUMPDEST DUP2 SLOAD DUP2 MSTORE SWAP1 PUSH1 0x1 ADD SWAP1 PUSH1 0x20 ADD DUP1 DUP4 GT PUSH2 0x211 JUMPI DUP3 SWAP1 SUB PUSH1 0x1F AND DUP3 ADD SWAP2 JUMPDEST POP POP POP POP POP DUP2 JUMP JUMPDEST PUSH1 0x1 PUSH1 0x40 MLOAD DUP1 PUSH1 0x40 ADD PUSH1 0x40 MSTORE DUP1 DUP5 DUP2 MSTORE PUSH1 0x20 ADD DUP4 DUP2 MSTORE POP SWAP1 DUP1 PUSH1 0x1 DUP2 SLOAD ADD DUP1 DUP3 SSTORE DUP1 SWAP2 POP POP PUSH1 0x1 SWAP1 SUB SWAP1 PUSH0 MSTORE PUSH1 0x20 PUSH0 KECCAK256 SWAP1 PUSH1 0x2 MUL ADD PUSH0 SWAP1 SWAP2 SWAP1 SWAP2 SWAP1 SWAP2 POP PUSH0 DUP3 ADD MLOAD DUP2 PUSH0 ADD SWAP1 DUP2 PUSH2 0x286 SWAP2 SWAP1 PUSH2 0xB1C JUMP JUMPDEST POP PUSH1 0x20 DUP3 ADD MLOAD DUP2 PUSH1 0x1 ADD SSTORE POP POP DUP1 PUSH1 0x2 DUP4 PUSH1 0x40 MLOAD PUSH2 0x2A4 SWAP2 SWAP1 PUSH2 0xD10 JUMP JUMPDEST SWAP1 DUP2 MSTORE PUSH1 0x20 ADD PUSH1 0x40 MLOAD DUP1 SWAP2 SUB SWAP1 KECCAK256 DUP2 SWAP1 SSTORE POP POP POP JUMP JUMPDEST PUSH1 0x60 PUSH1 0x1 DUP1 SLOAD DUP1 PUSH1 0x20 MUL PUSH1 0x20 ADD PUSH1 0x40 MLOAD SWAP1 DUP2 ADD PUSH1 0x40 MSTORE DUP1 SWAP3 SWAP2 SWAP1 DUP2 DUP2 MSTORE PUSH1 0x20 ADD PUSH0 SWAP1 JUMPDEST DUP3 DUP3 LT ISZERO PUSH2 0x3A6 JUMPI DUP4 DUP3 SWAP1 PUSH0 MSTORE PUSH1 0x20 PUSH0 KECCAK256 SWAP1 PUSH1 0x2 MUL ADD PUSH1 0x40 MLOAD DUP1 PUSH1 0x40 ADD PUSH1 0x40 MSTORE SWAP1 DUP2 PUSH0 DUP3 ADD DUP1 SLOAD PUSH2 0x30D SWAP1 PUSH2 0x94C JUMP JUMPDEST DUP1 PUSH1 0x1F ADD PUSH1 0x20 DUP1 SWAP2 DIV MUL PUSH1 0x20 ADD PUSH1 0x40 MLOAD SWAP1 DUP2 ADD PUSH1 0x40 MSTORE DUP1 SWAP3 SWAP2 SWAP1 DUP2 DUP2 MSTORE PUSH1 0x20 ADD DUP3 DUP1 SLOAD PUSH2 0x339 SWAP1 PUSH2 0x94C JUMP JUMPDEST DUP1 ISZERO PUSH2 0x384 JUMPI DUP1 PUSH1 0x1F LT PUSH2 0x35B JUMPI PUSH2 0x100 DUP1 DUP4 SLOAD DIV MUL DUP4 MSTORE SWAP2 PUSH1 0x20 ADD SWAP2 PUSH2 0x384 JUMP JUMPDEST DUP3 ADD SWAP2 SWAP1 PUSH0 MSTORE PUSH1 0x20 PUSH0 KECCAK256 SWAP1 JUMPDEST DUP2 SLOAD DUP2 MSTORE SWAP1 PUSH1 0x1 ADD SWAP1 PUSH1 0x20 ADD DUP1 DUP4 GT PUSH2 0x367 JUMPI DUP3 SWAP1 SUB PUSH1 0x1F AND DUP3 ADD SWAP2 JUMPDEST POP POP POP POP POP DUP2 MSTORE PUSH1 0x20 ADD PUSH1 0x1 DUP3 ADD SLOAD DUP2 MSTORE POP POP DUP2 MSTORE PUSH1 0x20 ADD SWAP1 PUSH1 0x1 ADD SWAP1 PUSH2 0x2DD JUMP JUMPDEST POP POP POP POP SWAP1 POP SWAP1 JUMP JUMPDEST PUSH1 0x2 DUP2 DUP1 MLOAD PUSH1 0x20 DUP2 ADD DUP3 ADD DUP1 MLOAD DUP5 DUP3 MSTORE PUSH1 0x20 DUP4 ADD PUSH1 0x20 DUP6 ADD KECCAK256 DUP2 DUP4 MSTORE DUP1 SWAP6 POP POP POP POP POP POP PUSH0 SWAP2 POP SWAP1 POP SLOAD DUP2 JUMP JUMPDEST PUSH1 0x1 DUP2 DUP2 SLOAD DUP2 LT PUSH2 0x3EB JUMPI PUSH0 DUP1 REVERT JUMPDEST SWAP1 PUSH0 MSTORE PUSH1 0x20 PUSH0 KECCAK256 SWAP1 PUSH1 0x2 MUL ADD PUSH0 SWAP2 POP SWAP1 POP DUP1 PUSH0 ADD DUP1 SLOAD PUSH2 0x40A SWAP1 PUSH2 0x94C JUMP JUMPDEST DUP1 PUSH1 0x1F ADD PUSH1 0x20 DUP1 SWAP2 DIV MUL PUSH1 0x20 ADD PUSH1 0x40 MLOAD SWAP1 DUP2 ADD PUSH1 0x40 MSTORE DUP1 SWAP3 SWAP2 SWAP1 DUP2 DUP2 MSTORE PUSH1 0x20 ADD DUP3 DUP1 SLOAD PUSH2 0x436 SWAP1 PUSH2 0x94C JUMP JUMPDEST DUP1 ISZERO PUSH2 0x481 JUMPI DUP1 PUSH1 0x1F LT PUSH2 0x458 JUMPI PUSH2 0x100 DUP1 DUP4 SLOAD DIV MUL DUP4 MSTORE SWAP2 PUSH1 0x20 ADD SWAP2 PUSH2 0x481 JUMP JUMPDEST DUP3 ADD SWAP2 SWAP1 PUSH0 MSTORE PUSH1 0x20 PUSH0 KECCAK256 SWAP1 JUMPDEST DUP2 SLOAD DUP2 MSTORE SWAP1 PUSH1 0x1 ADD SWAP1 PUSH1 0x20 ADD DUP1 DUP4 GT PUSH2 0x464 JUMPI DUP3 SWAP1 SUB PUSH1 0x1F AND DUP3 ADD SWAP2 JUMPDEST POP POP POP POP POP SWAP1 DUP1 PUSH1 0x1 ADD SLOAD SWAP1 POP DUP3 JUMP JUMPDEST PUSH0 PUSH1 0x40 MLOAD SWAP1 POP SWAP1 JUMP JUMPDEST PUSH0 PUSH0 REVERT JUMPDEST PUSH0 PUSH0 REVERT JUMPDEST PUSH0 PUSH0 REVERT JUMPDEST PUSH0 PUSH0 REVERT JUMPDEST PUSH0 PUSH1 0x1F NOT PUSH1 0x1F DUP4 ADD AND SWAP1 POP SWAP2 SWAP1 POP JUMP JUMPDEST PUSH32 0x4E487B7100000000000000000000000000000000000000000000000000000000 PUSH0 MSTORE PUSH1 0x41 PUSH1 0x4 MSTORE PUSH1 0x24 PUSH0 REVERT JUMPDEST PUSH2 0x4F0 DUP3 PUSH2 0x4AA JUMP JUMPDEST DUP2 ADD DUP2 DUP2 LT PUSH8 0xFFFFFFFFFFFFFFFF DUP3 GT OR ISZERO PUSH2 0x50F JUMPI PUSH2 0x50E PUSH2 0x4BA JUMP JUMPDEST JUMPDEST DUP1 PUSH1 0x40 MSTORE POP POP POP JUMP JUMPDEST PUSH0 PUSH2 0x521 PUSH2 0x491 JUMP JUMPDEST SWAP1 POP PUSH2 0x52D DUP3 DUP3 PUSH2 0x4E7 JUMP JUMPDEST SWAP2 SWAP1 POP JUMP JUMPDEST PUSH0 PUSH8 0xFFFFFFFFFFFFFFFF DUP3 GT ISZERO PUSH2 0x54C JUMPI PUSH2 0x54B PUSH2 0x4BA JUMP JUMPDEST JUMPDEST PUSH2 0x555 DUP3 PUSH2 0x4AA JUMP JUMPDEST SWAP1 POP PUSH1 0x20 DUP2 ADD SWAP1 POP SWAP2 SWAP1 POP JUMP JUMPDEST DUP3 DUP2 DUP4 CALLDATACOPY PUSH0 DUP4 DUP4 ADD MSTORE POP POP POP JUMP JUMPDEST PUSH0 PUSH2 0x582 PUSH2 0x57D DUP5 PUSH2 0x532 JUMP JUMPDEST PUSH2 0x518 JUMP JUMPDEST SWAP1 POP DUP3 DUP2 MSTORE PUSH1 0x20 DUP2 ADD DUP5 DUP5 DUP5 ADD GT ISZERO PUSH2 0x59E JUMPI PUSH2 0x59D PUSH2 0x4A6 JUMP JUMPDEST JUMPDEST PUSH2 0x5A9 DUP5 DUP3 DUP6 PUSH2 0x562 JUMP JUMPDEST POP SWAP4 SWAP3 POP POP POP JUMP JUMPDEST PUSH0 DUP3 PUSH1 0x1F DUP4 ADD SLT PUSH2 0x5C5 JUMPI PUSH2 0x5C4 PUSH2 0x4A2 JUMP JUMPDEST JUMPDEST DUP2 CALLDATALOAD PUSH2 0x5D5 DUP5 DUP3 PUSH1 0x20 DUP7 ADD PUSH2 0x570 JUMP JUMPDEST SWAP2 POP POP SWAP3 SWAP2 POP POP JUMP JUMPDEST PUSH0 PUSH1 0x20 DUP3 DUP5 SUB SLT ISZERO PUSH2 0x5F3 JUMPI PUSH2 0x5F2 PUSH2 0x49A JUMP JUMPDEST JUMPDEST PUSH0 DUP3 ADD CALLDATALOAD PUSH8 0xFFFFFFFFFFFFFFFF DUP2 GT ISZERO PUSH2 0x610 JUMPI PUSH2 0x60F PUSH2 0x49E JUMP JUMPDEST JUMPDEST PUSH2 0x61C DUP5 DUP3 DUP6 ADD PUSH2 0x5B1 JUMP JUMPDEST SWAP2 POP POP SWAP3 SWAP2 POP POP JUMP JUMPDEST PUSH0 DUP2 MLOAD SWAP1 POP SWAP2 SWAP1 POP JUMP JUMPDEST PUSH0 DUP3 DUP3 MSTORE PUSH1 0x20 DUP3 ADD SWAP1 POP SWAP3 SWAP2 POP POP JUMP JUMPDEST DUP3 DUP2 DUP4 MCOPY PUSH0 DUP4 DUP4 ADD MSTORE POP POP POP JUMP JUMPDEST PUSH0 PUSH2 0x657 DUP3 PUSH2 0x625 JUMP JUMPDEST PUSH2 0x661 DUP2 DUP6 PUSH2 0x62F JUMP JUMPDEST SWAP4 POP PUSH2 0x671 DUP2 DUP6 PUSH1 0x20 DUP7 ADD PUSH2 0x63F JUMP JUMPDEST PUSH2 0x67A DUP2 PUSH2 0x4AA JUMP JUMPDEST DUP5 ADD SWAP2 POP POP SWAP3 SWAP2 POP POP JUMP JUMPDEST PUSH0 PUSH1 0x20 DUP3 ADD SWAP1 POP DUP2 DUP2 SUB PUSH0 DUP4 ADD MSTORE PUSH2 0x69D DUP2 DUP5 PUSH2 0x64D JUMP JUMPDEST SWAP1 POP SWAP3 SWAP2 POP POP JUMP JUMPDEST PUSH0 DUP2 SWAP1 POP SWAP2 SWAP1 POP JUMP JUMPDEST PUSH2 0x6B7 DUP2 PUSH2 0x6A5 JUMP JUMPDEST DUP2 EQ PUSH2 0x6C1 JUMPI PUSH0 PUSH0 REVERT JUMPDEST POP JUMP JUMPDEST PUSH0 DUP2 CALLDATALOAD SWAP1 POP PUSH2 0x6D2 DUP2 PUSH2 0x6AE JUMP JUMPDEST SWAP3 SWAP2 POP POP JUMP JUMPDEST PUSH0 PUSH0 PUSH1 0x40 DUP4 DUP6 SUB SLT ISZERO PUSH2 0x6EE JUMPI PUSH2 0x6ED PUSH2 0x49A JUMP JUMPDEST JUMPDEST PUSH0 DUP4 ADD CALLDATALOAD PUSH8 0xFFFFFFFFFFFFFFFF DUP2 GT ISZERO PUSH2 0x70B JUMPI PUSH2 0x70A PUSH2 0x49E JUMP JUMPDEST JUMPDEST PUSH2 0x717 DUP6 DUP3 DUP7 ADD PUSH2 0x5B1 JUMP JUMPDEST SWAP3 POP POP PUSH1 0x20 PUSH2 0x728 DUP6 DUP3 DUP7 ADD PUSH2 0x6C4 JUMP JUMPDEST SWAP2 POP POP SWAP3 POP SWAP3 SWAP1 POP JUMP JUMPDEST PUSH0 DUP2 MLOAD SWAP1 POP SWAP2 SWAP1 POP JUMP JUMPDEST PUSH0 DUP3 DUP3 MSTORE PUSH1 0x20 DUP3 ADD SWAP1 POP SWAP3 SWAP2 POP POP JUMP JUMPDEST PUSH0 DUP2 SWAP1 POP PUSH1 0x20 DUP3 ADD SWAP1 POP SWAP2 SWAP1 POP JUMP JUMPDEST PUSH0 DUP3 DUP3 MSTORE PUSH1 0x20 DUP3 ADD SWAP1 POP SWAP3 SWAP2 POP POP JUMP JUMPDEST PUSH0 PUSH2 0x775 DUP3 PUSH2 0x625 JUMP JUMPDEST PUSH2 0x77F DUP2 DUP6 PUSH2 0x75B JUMP JUMPDEST SWAP4 POP PUSH2 0x78F DUP2 DUP6 PUSH1 0x20 DUP7 ADD PUSH2 0x63F JUMP JUMPDEST PUSH2 0x798 DUP2 PUSH2 0x4AA JUMP JUMPDEST DUP5 ADD SWAP2 POP POP SWAP3 SWAP2 POP POP JUMP JUMPDEST PUSH2 0x7AC DUP2 PUSH2 0x6A5 JUMP JUMPDEST DUP3 MSTORE POP POP JUMP JUMPDEST PUSH0 PUSH1 0x40 DUP4 ADD PUSH0 DUP4 ADD MLOAD DUP5 DUP3 SUB PUSH0 DUP7 ADD MSTORE PUSH2 0x7CC DUP3 DUP3 PUSH2 0x76B JUMP JUMPDEST SWAP2 POP POP PUSH1 0x20 DUP4 ADD MLOAD PUSH2 0x7E1 PUSH1 0x20 DUP7 ADD DUP3 PUSH2 0x7A3 JUMP JUMPDEST POP DUP1 SWAP2 POP POP SWAP3 SWAP2 POP POP JUMP JUMPDEST PUSH0 PUSH2 0x7F7 DUP4 DUP4 PUSH2 0x7B2 JUMP JUMPDEST SWAP1 POP SWAP3 SWAP2 POP POP JUMP JUMPDEST PUSH0 PUSH1 0x20 DUP3 ADD SWAP1 POP SWAP2 SWAP1 POP JUMP JUMPDEST PUSH0 PUSH2 0x815 DUP3 PUSH2 0x732 JUMP JUMPDEST PUSH2 0x81F DUP2 DUP6 PUSH2 0x73C JUMP JUMPDEST SWAP4 POP DUP4 PUSH1 0x20 DUP3 MUL DUP6 ADD PUSH2 0x831 DUP6 PUSH2 0x74C JUMP JUMPDEST DUP1 PUSH0 JUMPDEST DUP6 DUP2 LT ISZERO PUSH2 0x86C JUMPI DUP5 DUP5 SUB DUP10 MSTORE DUP2 MLOAD PUSH2 0x84D DUP6 DUP3 PUSH2 0x7EC JUMP JUMPDEST SWAP5 POP PUSH2 0x858 DUP4 PUSH2 0x7FF JUMP JUMPDEST SWAP3 POP PUSH1 0x20 DUP11 ADD SWAP10 POP POP PUSH1 0x1 DUP2 ADD SWAP1 POP PUSH2 0x834 JUMP JUMPDEST POP DUP3 SWAP8 POP DUP8 SWAP6 POP POP POP POP POP POP SWAP3 SWAP2 POP POP JUMP JUMPDEST PUSH0 PUSH1 0x20 DUP3 ADD SWAP1 POP DUP2 DUP2 SUB PUSH0 DUP4 ADD MSTORE PUSH2 0x896 DUP2 DUP5 PUSH2 0x80B JUMP JUMPDEST SWAP1 POP SWAP3 SWAP2 POP POP JUMP JUMPDEST PUSH2 0x8A7 DUP2 PUSH2 0x6A5 JUMP JUMPDEST DUP3 MSTORE POP POP JUMP JUMPDEST PUSH0 PUSH1 0x20 DUP3 ADD SWAP1 POP PUSH2 0x8C0 PUSH0 DUP4 ADD DUP5 PUSH2 0x89E JUMP JUMPDEST SWAP3 SWAP2 POP POP JUMP JUMPDEST PUSH0 PUSH1 0x20 DUP3 DUP5 SUB SLT ISZERO PUSH2 0x8DB JUMPI PUSH2 0x8DA PUSH2 0x49A JUMP JUMPDEST JUMPDEST PUSH0 PUSH2 0x8E8 DUP5 DUP3 DUP6 ADD PUSH2 0x6C4 JUMP JUMPDEST SWAP2 POP POP SWAP3 SWAP2 POP POP JUMP JUMPDEST PUSH0 PUSH1 0x40 DUP3 ADD SWAP1 POP DUP2 DUP2 SUB PUSH0 DUP4 ADD MSTORE PUSH2 0x909 DUP2 DUP6 PUSH2 0x64D JUMP JUMPDEST SWAP1 POP PUSH2 0x918 PUSH1 0x20 DUP4 ADD DUP5 PUSH2 0x89E JUMP JUMPDEST SWAP4 SWAP3 POP POP POP JUMP JUMPDEST PUSH32 0x4E487B7100000000000000000000000000000000000000000000000000000000 PUSH0 MSTORE PUSH1 0x22 PUSH1 0x4 MSTORE PUSH1 0x24 PUSH0 REVERT JUMPDEST PUSH0 PUSH1 0x2 DUP3 DIV SWAP1 POP PUSH1 0x1 DUP3 AND DUP1 PUSH2 0x963 JUMPI PUSH1 0x7F DUP3 AND SWAP2 POP JUMPDEST PUSH1 0x20 DUP3 LT DUP2 SUB PUSH2 0x976 JUMPI PUSH2 0x975 PUSH2 0x91F JUMP JUMPDEST JUMPDEST POP SWAP2 SWAP1 POP JUMP JUMPDEST PUSH0 DUP2 SWAP1 POP DUP2 PUSH0 MSTORE PUSH1 0x20 PUSH0 KECCAK256 SWAP1 POP SWAP2 SWAP1 POP JUMP JUMPDEST PUSH0 PUSH1 0x20 PUSH1 0x1F DUP4 ADD DIV SWAP1 POP SWAP2 SWAP1 POP JUMP JUMPDEST PUSH0 DUP3 DUP3 SHL SWAP1 POP SWAP3 SWAP2 POP POP JUMP JUMPDEST PUSH0 PUSH1 0x8 DUP4 MUL PUSH2 0x9D8 PUSH32 0xFFFFFFFFFFFFFFFFFFFFFFFFFFFFFFFFFFFFFFFFFFFFFFFFFFFFFFFFFFFFFFFF DUP3 PUSH2 0x99D JUMP JUMPDEST PUSH2 0x9E2 DUP7 DUP4 PUSH2 0x99D JUMP JUMPDEST SWAP6 POP DUP1 NOT DUP5 AND SWAP4 POP DUP1 DUP7 AND DUP5 OR SWAP3 POP POP POP SWAP4 SWAP3 POP POP POP JUMP JUMPDEST PUSH0 DUP2 SWAP1 POP SWAP2 SWAP1 POP JUMP JUMPDEST PUSH0 PUSH2 0xA1D PUSH2 0xA18 PUSH2 0xA13 DUP5 PUSH2 0x6A5 JUMP JUMPDEST PUSH2 0x9FA JUMP JUMPDEST PUSH2 0x6A5 JUMP JUMPDEST SWAP1 POP SWAP2 SWAP1 POP JUMP JUMPDEST PUSH0 DUP2 SWAP1 POP SWAP2 SWAP1 POP JUMP JUMPDEST PUSH2 0xA36 DUP4 PUSH2 0xA03 JUMP JUMPDEST PUSH2 0xA4A PUSH2 0xA42 DUP3 PUSH2 0xA24 JUMP JUMPDEST DUP5 DUP5 SLOAD PUSH2 0x9A9 JUMP JUMPDEST DUP3 SSTORE POP POP POP POP JUMP JUMPDEST PUSH0 PUSH0 SWAP1 POP SWAP1 JUMP JUMPDEST PUSH2 0xA61 PUSH2 0xA52 JUMP JUMPDEST PUSH2 0xA6C DUP2 DUP5 DUP5 PUSH2 0xA2D JUMP JUMPDEST POP POP POP JUMP JUMPDEST JUMPDEST DUP2 DUP2 LT ISZERO PUSH2 0xA8F JUMPI PUSH2 0xA84 PUSH0 DUP3 PUSH2 0xA59 JUMP JUMPDEST PUSH1 0x1 DUP2 ADD SWAP1 POP PUSH2 0xA72 JUMP JUMPDEST POP POP JUMP JUMPDEST PUSH1 0x1F DUP3 GT ISZERO PUSH2 0xAD4 JUMPI PUSH2 0xAA5 DUP2 PUSH2 0x97C JUMP JUMPDEST PUSH2 0xAAE DUP5 PUSH2 0x98E JUMP JUMPDEST DUP2 ADD PUSH1 0x20 DUP6 LT ISZERO PUSH2 0xABD JUMPI DUP2 SWAP1 POP JUMPDEST PUSH2 0xAD1 PUSH2 0xAC9 DUP6 PUSH2 0x98E JUMP JUMPDEST DUP4 ADD DUP3 PUSH2 0xA71 JUMP JUMPDEST POP POP JUMPDEST POP POP POP JUMP JUMPDEST PUSH0 DUP3 DUP3 SHR SWAP1 POP SWAP3 SWAP2 POP POP JUMP JUMPDEST PUSH0 PUSH2 0xAF4 PUSH0 NOT DUP5 PUSH1 0x8 MUL PUSH2 0xAD9 JUMP JUMPDEST NOT DUP1 DUP4 AND SWAP2 POP POP SWAP3 SWAP2 POP POP JUMP JUMPDEST PUSH0 PUSH2 0xB0C DUP4 DUP4 PUSH2 0xAE5 JUMP JUMPDEST SWAP2 POP DUP3 PUSH1 0x2 MUL DUP3 OR SWAP1 POP SWAP3 SWAP2 POP POP JUMP JUMPDEST PUSH2 0xB25 DUP3 PUSH2 0x625 JUMP JUMPDEST PUSH8 0xFFFFFFFFFFFFFFFF DUP2 GT ISZERO PUSH2 0xB3E JUMPI PUSH2 0xB3D PUSH2 0x4BA JUMP JUMPDEST JUMPDEST PUSH2 0xB48 DUP3 SLOAD PUSH2 0x94C JUMP JUMPDEST PUSH2 0xB53 DUP3 DUP3 DUP6 PUSH2 0xA93 JUMP JUMPDEST PUSH0 PUSH1 0x20 SWAP1 POP PUSH1 0x1F DUP4 GT PUSH1 0x1 DUP2 EQ PUSH2 0xB84 JUMPI PUSH0 DUP5 ISZERO PUSH2 0xB72 JUMPI DUP3 DUP8 ADD MLOAD SWAP1 POP JUMPDEST PUSH2 0xB7C DUP6 DUP3 PUSH2 0xB01 JUMP JUMPDEST DUP7 SSTORE POP PUSH2 0xBE3 JUMP JUMPDEST PUSH1 0x1F NOT DUP5 AND PUSH2 0xB92 DUP7 PUSH2 0x97C JUMP JUMPDEST PUSH0 JUMPDEST DUP3 DUP2 LT ISZERO PUSH2 0xBB9 JUMPI DUP5 DUP10 ADD MLOAD DUP3 SSTORE PUSH1 0x1 DUP3 ADD SWAP2 POP PUSH1 0x20 DUP6 ADD SWAP5 POP PUSH1 0x20 DUP2 ADD SWAP1 POP PUSH2 0xB94 JUMP JUMPDEST DUP7 DUP4 LT ISZERO PUSH2 0xBD6 JUMPI DUP5 DUP10 ADD MLOAD PUSH2 0xBD2 PUSH1 0x1F DUP10 AND DUP3 PUSH2 0xAE5 JUMP JUMPDEST DUP4 SSTORE POP JUMPDEST PUSH1 0x1 PUSH1 0x2 DUP9 MUL ADD DUP9 SSTORE POP POP POP JUMPDEST POP POP POP POP POP POP JUMP JUMPDEST PUSH0 DUP2 SWAP1 POP SWAP3 SWAP2 POP POP JUMP JUMPDEST PUSH0 DUP2 SLOAD PUSH2 0xC01 DUP2 PUSH2 0x94C JUMP JUMPDEST PUSH2 0xC0B DUP2 DUP7 PUSH2 0xBEB JUMP JUMPDEST SWAP5 POP PUSH1 0x1 DUP3 AND PUSH0 DUP2 EQ PUSH2 0xC25 JUMPI PUSH1 0x1 DUP2 EQ PUSH2 0xC3A JUMPI PUSH2 0xC6C JUMP JUMPDEST PUSH1 0xFF NOT DUP4 AND DUP7 MSTORE DUP2 ISZERO ISZERO DUP3 MUL DUP7 ADD SWAP4 POP PUSH2 0xC6C JUMP JUMPDEST PUSH2 0xC43 DUP6 PUSH2 0x97C JUMP JUMPDEST PUSH0 JUMPDEST DUP4 DUP2 LT ISZERO PUSH2 0xC64 JUMPI DUP2 SLOAD DUP2 DUP10 ADD MSTORE PUSH1 0x1 DUP3 ADD SWAP2 POP PUSH1 0x20 DUP2 ADD SWAP1 POP PUSH2 0xC45 JUMP JUMPDEST DUP4 DUP9 ADD SWAP6 POP POP POP JUMPDEST POP POP POP SWAP3 SWAP2 POP POP JUMP JUMPDEST PUSH32 0x20434F4241203100000000000000000000000000000000000000000000000000 PUSH0 DUP3 ADD MSTORE POP JUMP JUMPDEST PUSH0 PUSH2 0xCA9 PUSH1 0x7 DUP4 PUSH2 0xBEB JUMP JUMPDEST SWAP2 POP PUSH2 0xCB4 DUP3 PUSH2 0xC75 JUMP JUMPDEST PUSH1 0x7 DUP3 ADD SWAP1 POP SWAP2 SWAP1 POP JUMP JUMPDEST PUSH0 PUSH2 0xCCA DUP3 DUP5 PUSH2 0xBF5 JUMP JUMPDEST SWAP2 POP PUSH2 0xCD5 DUP3 PUSH2 0xC9D JUMP JUMPDEST SWAP2 POP DUP2 SWAP1 POP SWAP3 SWAP2 POP POP JUMP JUMPDEST PUSH0 PUSH2 0xCEA DUP3 PUSH2 0x625 JUMP JUMPDEST PUSH2 0xCF4 DUP2 DUP6 PUSH2 0xBEB JUMP JUMPDEST SWAP4 POP PUSH2 0xD04 DUP2 DUP6 PUSH1 0x20 DUP7 ADD PUSH2 0x63F JUMP JUMPDEST DUP1 DUP5 ADD SWAP2 POP POP SWAP3 SWAP2 POP POP JUMP JUMPDEST PUSH0 PUSH2 0xD1B DUP3 DUP5 PUSH2 0xCE0 JUMP JUMPDEST SWAP2 POP DUP2 SWAP1 POP SWAP3 SWAP2 POP POP JUMP INVALID LOG2 PUSH5 0x6970667358 0x22 SLT KECCAK256 0xE4 0xB5 EXTCODESIZE 0x2C SWAP14 0xC9 MOD DUP13 SELFDESTRUCT 0xBB 0xD 0xEF PUSH27 0xD6C3986EE498B2A5A61A6AC575AF999D9DA51164736F6C63430008 SHR STOP CALLER LOG2 PUSH5 0x6970667358 0x22 SLT KECCAK256 0xAB 0xB8 SLT SELFBALANCE 0xC5 0xB3 SWAP12 0x4B 0xDE POP PUSH28 0x913965DA4376BB652CE5756C2D06C70E7DE43590A064736F6C634300 ADDMOD SHR STOP CALLER "
		},
		"gasEstimates": {
			"creation": {
				"codeDepositCost": "1057000",
				"executionCost": "1098",
				"totalCost": "1058098"
			},
			"external": {
				"createSimpleStorageContract()": "infinite",
				"sfGet(uint256)": "infinite",
				"sfStore(uint256,string)": "infinite",
				"simpleStorageArray(uint256)": "infinite"
			}
		},
		"methodIdentifiers": {
			"createSimpleStorageContract()": "1dda6541",
			"sfGet(uint256)": "c5f19c20",
			"sfStore(uint256,string)": "7bef6ae4",
			"simpleStorageArray(uint256)": "64591bf1"
		}
	},
	"abi": [
		{
			"inputs": [],
			"name": "createSimpleStorageContract",
			"outputs": [],
			"stateMutability": "nonpayable",
			"type": "function"
		},
		{
			"inputs": [
				{
					"internalType": "uint256",
					"name": "_simpleStorageIndex",
					"type": "uint256"
				}
			],
			"name": "sfGet",
			"outputs": [
				{
					"internalType": "string",
					"name": "",
					"type": "string"
				}
			],
			"stateMutability": "view",
			"type": "function"
		},
		{
			"inputs": [
				{
					"internalType": "uint256",
					"name": "_simpleStorageIndex",
					"type": "uint256"
				},
				{
					"internalType": "string",
					"name": "_simpleStorageNumber",
					"type": "string"
				}
			],
			"name": "sfStore",
			"outputs": [],
			"stateMutability": "nonpayable",
			"type": "function"
		},
		{
			"inputs": [
				{
					"internalType": "uint256",
					"name": "",
					"type": "uint256"
				}
			],
			"name": "simpleStorageArray",
			"outputs": [
				{
					"internalType": "contract SimpleStorage",
					"name": "",
					"type": "address"
				}
			],
			"stateMutability": "view",
			"type": "function"
		}
	]
}