{
	"contract/SimpleStorage.sol": {
		"SimpleStorage": {
			"abi": [
				{
					"inputs": [
						{
							"internalType": "string",
							"name": "_name",
							"type": "string"
						},
						{
							"internalType": "uint256",
							"name": "_age",
							"type": "uint256"
						}
					],
					"name": "addPerson",
					"outputs": [],
					"stateMutability": "nonpayable",
					"type": "function"
				},
				{
					"inputs": [],
					"name": "getAllPeople",
					"outputs": [
						{
							"components": [
								{
									"internalType": "string",
									"name": "name",
									"type": "string"
								},
								{
									"internalType": "uint256",
									"name": "age",
									"type": "uint256"
								}
							],
							"internalType": "struct SimpleStorage.People[]",
							"name": "",
							"type": "tuple[]"
						}
					],
					"stateMutability": "view",
					"type": "function"
				},
				{
					"inputs": [
						{
							"internalType": "uint256",
							"name": "",
							"type": "uint256"
						}
					],
					"name": "people",
					"outputs": [
						{
							"internalType": "string",
							"name": "name",
							"type": "string"
						},
						{
							"internalType": "uint256",
							"name": "age",
							"type": "uint256"
						}
					],
					"stateMutability": "view",
					"type": "function"
				},
				{
					"inputs": [],
					"name": "retrieve",
					"outputs": [
						{
							"internalType": "string",
							"name": "",
							"type": "string"
						}
					],
					"stateMutability": "view",
					"type": "function"
				},
				{
					"inputs": [
						{
							"internalType": "string",
							"name": "_message",
							"type": "string"
						}
					],
					"name": "store",
					"outputs": [],
					"stateMutability": "nonpayable",
					"type": "function"
				},
				{
					"inputs": [],
					"name": "word",
					"outputs": [
						{
							"internalType": "string",
							"name": "",
							"type": "string"
						}
					],
					"stateMutability": "view",
					"type": "function"
				}
			],
			"devdoc": {
				"kind": "dev",
				"methods": {},
				"version": 1
			},
			"evm": {
				"assembly": "    /* \"contract/SimpleStorage.sol\":61:829  contract SimpleStorage {... */\n  mstore(0x40, 0x80)\n    /* \"contract/SimpleStorage.sol\":91:126  string public word = \"hello World!\" */\n  mload(0x40)\n  dup1\n  0x40\n  add\n  0x40\n  mstore\n  dup1\n  0x0c\n  dup2\n  mstore\n  0x20\n  add\n  0x68656c6c6f20576f726c64210000000000000000000000000000000000000000\n  dup2\n  mstore\n  pop\n  0x00\n  swap1\n  dup2\n  tag_1\n  swap2\n  swap1\n  tag_2\n  jump\t// in\ntag_1:\n  pop\n    /* \"contract/SimpleStorage.sol\":61:829  contract SimpleStorage {... */\n  callvalue\n  dup1\n  iszero\n  tag_3\n  jumpi\n  revert(0x00, 0x00)\ntag_3:\n  pop\n  jump(tag_4)\n    /* \"#utility.yul\":7:106   */\ntag_5:\n    /* \"#utility.yul\":59:65   */\n  0x00\n    /* \"#utility.yul\":93:98   */\n  dup2\n    /* \"#utility.yul\":87:99   */\n  mload\n    /* \"#utility.yul\":77:99   */\n  swap1\n  pop\n    /* \"#utility.yul\":7:106   */\n  swap2\n  swap1\n  pop\n  jump\t// out\n    /* \"#utility.yul\":112:292   */\ntag_6:\n    /* \"#utility.yul\":160:237   */\n  0x4e487b7100000000000000000000000000000000000000000000000000000000\n    /* \"#utility.yul\":157:158   */\n  0x00\n    /* \"#utility.yul\":150:238   */\n  mstore\n    /* \"#utility.yul\":257:261   */\n  0x41\n    /* \"#utility.yul\":254:255   */\n  0x04\n    /* \"#utility.yul\":247:262   */\n  mstore\n    /* \"#utility.yul\":281:285   */\n  0x24\n    /* \"#utility.yul\":278:279   */\n  0x00\n    /* \"#utility.yul\":271:286   */\n  revert\n    /* \"#utility.yul\":298:478   */\ntag_7:\n    /* \"#utility.yul\":346:423   */\n  0x4e487b7100000000000000000000000000000000000000000000000000000000\n    /* \"#utility.yul\":343:344   */\n  0x00\n    /* \"#utility.yul\":336:424   */\n  mstore\n    /* \"#utility.yul\":443:447   */\n  0x22\n    /* \"#utility.yul\":440:441   */\n  0x04\n    /* \"#utility.yul\":433:448   */\n  mstore\n    /* \"#utility.yul\":467:471   */\n  0x24\n    /* \"#utility.yul\":464:465   */\n  0x00\n    /* \"#utility.yul\":457:472   */\n  revert\n    /* \"#utility.yul\":484:804   */\ntag_8:\n    /* \"#utility.yul\":528:534   */\n  0x00\n    /* \"#utility.yul\":565:566   */\n  0x02\n    /* \"#utility.yul\":559:563   */\n  dup3\n    /* \"#utility.yul\":555:567   */\n  div\n    /* \"#utility.yul\":545:567   */\n  swap1\n  pop\n    /* \"#utility.yul\":612:613   */\n  0x01\n    /* \"#utility.yul\":606:610   */\n  dup3\n    /* \"#utility.yul\":602:614   */\n  and\n    /* \"#utility.yul\":633:651   */\n  dup1\n    /* \"#utility.yul\":623:704   */\n  tag_30\n  jumpi\n    /* \"#utility.yul\":689:693   */\n  0x7f\n    /* \"#utility.yul\":681:687   */\n  dup3\n    /* \"#utility.yul\":677:694   */\n  and\n    /* \"#utility.yul\":667:694   */\n  swap2\n  pop\n    /* \"#utility.yul\":623:704   */\ntag_30:\n    /* \"#utility.yul\":751:753   */\n  0x20\n    /* \"#utility.yul\":743:749   */\n  dup3\n    /* \"#utility.yul\":740:754   */\n  lt\n    /* \"#utility.yul\":720:738   */\n  dup2\n    /* \"#utility.yul\":717:755   */\n  sub\n    /* \"#utility.yul\":714:798   */\n  tag_31\n  jumpi\n    /* \"#utility.yul\":770:788   */\n  tag_32\n  tag_7\n  jump\t// in\ntag_32:\n    /* \"#utility.yul\":714:798   */\ntag_31:\n    /* \"#utility.yul\":535:804   */\n  pop\n    /* \"#utility.yul\":484:804   */\n  swap2\n  swap1\n  pop\n  jump\t// out\n    /* \"#utility.yul\":810:951   */\ntag_9:\n    /* \"#utility.yul\":859:863   */\n  0x00\n    /* \"#utility.yul\":882:885   */\n  dup2\n    /* \"#utility.yul\":874:885   */\n  swap1\n  pop\n    /* \"#utility.yul\":905:908   */\n  dup2\n    /* \"#utility.yul\":902:903   */\n  0x00\n    /* \"#utility.yul\":895:909   */\n  mstore\n    /* \"#utility.yul\":939:943   */\n  0x20\n    /* \"#utility.yul\":936:937   */\n  0x00\n    /* \"#utility.yul\":926:944   */\n  keccak256\n    /* \"#utility.yul\":918:944   */\n  swap1\n  pop\n    /* \"#utility.yul\":810:951   */\n  swap2\n  swap1\n  pop\n  jump\t// out\n    /* \"#utility.yul\":957:1050   */\ntag_10:\n    /* \"#utility.yul\":994:1000   */\n  0x00\n    /* \"#utility.yul\":1041:1043   */\n  0x20\n    /* \"#utility.yul\":1036:1038   */\n  0x1f\n    /* \"#utility.yul\":1029:1034   */\n  dup4\n    /* \"#utility.yul\":1025:1039   */\n  add\n    /* \"#utility.yul\":1021:1044   */\n  div\n    /* \"#utility.yul\":1011:1044   */\n  swap1\n  pop\n    /* \"#utility.yul\":957:1050   */\n  swap2\n  swap1\n  pop\n  jump\t// out\n    /* \"#utility.yul\":1056:1163   */\ntag_11:\n    /* \"#utility.yul\":1100:1108   */\n  0x00\n    /* \"#utility.yul\":1150:1155   */\n  dup3\n    /* \"#utility.yul\":1144:1148   */\n  dup3\n    /* \"#utility.yul\":1140:1156   */\n  shl\n    /* \"#utility.yul\":1119:1156   */\n  swap1\n  pop\n    /* \"#utility.yul\":1056:1163   */\n  swap3\n  swap2\n  pop\n  pop\n  jump\t// out\n    /* \"#utility.yul\":1169:1562   */\ntag_12:\n    /* \"#utility.yul\":1238:1244   */\n  0x00\n    /* \"#utility.yul\":1288:1289   */\n  0x08\n    /* \"#utility.yul\":1276:1286   */\n  dup4\n    /* \"#utility.yul\":1272:1290   */\n  mul\n    /* \"#utility.yul\":1311:1408   */\n  tag_37\n    /* \"#utility.yul\":1341:1407   */\n  0xffffffffffffffffffffffffffffffffffffffffffffffffffffffffffffffff\n    /* \"#utility.yul\":1330:1339   */\n  dup3\n    /* \"#utility.yul\":1311:1408   */\n  tag_11\n  jump\t// in\ntag_37:\n    /* \"#utility.yul\":1429:1468   */\n  tag_38\n    /* \"#utility.yul\":1459:1467   */\n  dup7\n    /* \"#utility.yul\":1448:1457   */\n  dup4\n    /* \"#utility.yul\":1429:1468   */\n  tag_11\n  jump\t// in\ntag_38:\n    /* \"#utility.yul\":1417:1468   */\n  swap6\n  pop\n    /* \"#utility.yul\":1501:1505   */\n  dup1\n    /* \"#utility.yul\":1497:1506   */\n  not\n    /* \"#utility.yul\":1490:1495   */\n  dup5\n    /* \"#utility.yul\":1486:1507   */\n  and\n    /* \"#utility.yul\":1477:1507   */\n  swap4\n  pop\n    /* \"#utility.yul\":1550:1554   */\n  dup1\n    /* \"#utility.yul\":1540:1548   */\n  dup7\n    /* \"#utility.yul\":1536:1555   */\n  and\n    /* \"#utility.yul\":1529:1534   */\n  dup5\n    /* \"#utility.yul\":1526:1556   */\n  or\n    /* \"#utility.yul\":1516:1556   */\n  swap3\n  pop\n    /* \"#utility.yul\":1245:1562   */\n  pop\n  pop\n    /* \"#utility.yul\":1169:1562   */\n  swap4\n  swap3\n  pop\n  pop\n  pop\n  jump\t// out\n    /* \"#utility.yul\":1568:1645   */\ntag_13:\n    /* \"#utility.yul\":1605:1612   */\n  0x00\n    /* \"#utility.yul\":1634:1639   */\n  dup2\n    /* \"#utility.yul\":1623:1639   */\n  swap1\n  pop\n    /* \"#utility.yul\":1568:1645   */\n  swap2\n  swap1\n  pop\n  jump\t// out\n    /* \"#utility.yul\":1651:1711   */\ntag_14:\n    /* \"#utility.yul\":1679:1682   */\n  0x00\n    /* \"#utility.yul\":1700:1705   */\n  dup2\n    /* \"#utility.yul\":1693:1705   */\n  swap1\n  pop\n    /* \"#utility.yul\":1651:1711   */\n  swap2\n  swap1\n  pop\n  jump\t// out\n    /* \"#utility.yul\":1717:1859   */\ntag_15:\n    /* \"#utility.yul\":1767:1776   */\n  0x00\n    /* \"#utility.yul\":1800:1853   */\n  tag_42\n    /* \"#utility.yul\":1818:1852   */\n  tag_43\n    /* \"#utility.yul\":1827:1851   */\n  tag_44\n    /* \"#utility.yul\":1845:1850   */\n  dup5\n    /* \"#utility.yul\":1827:1851   */\n  tag_13\n  jump\t// in\ntag_44:\n    /* \"#utility.yul\":1818:1852   */\n  tag_14\n  jump\t// in\ntag_43:\n    /* \"#utility.yul\":1800:1853   */\n  tag_13\n  jump\t// in\ntag_42:\n    /* \"#utility.yul\":1787:1853   */\n  swap1\n  pop\n    /* \"#utility.yul\":1717:1859   */\n  swap2\n  swap1\n  pop\n  jump\t// out\n    /* \"#utility.yul\":1865:1940   */\ntag_16:\n    /* \"#utility.yul\":1908:1911   */\n  0x00\n    /* \"#utility.yul\":1929:1934   */\n  dup2\n    /* \"#utility.yul\":1922:1934   */\n  swap1\n  pop\n    /* \"#utility.yul\":1865:1940   */\n  swap2\n  swap1\n  pop\n  jump\t// out\n    /* \"#utility.yul\":1946:2215   */\ntag_17:\n    /* \"#utility.yul\":2056:2095   */\n  tag_47\n    /* \"#utility.yul\":2087:2094   */\n  dup4\n    /* \"#utility.yul\":2056:2095   */\n  tag_15\n  jump\t// in\ntag_47:\n    /* \"#utility.yul\":2117:2208   */\n  tag_48\n    /* \"#utility.yul\":2166:2207   */\n  tag_49\n    /* \"#utility.yul\":2190:2206   */\n  dup3\n    /* \"#utility.yul\":2166:2207   */\n  tag_16\n  jump\t// in\ntag_49:\n    /* \"#utility.yul\":2158:2164   */\n  dup5\n    /* \"#utility.yul\":2151:2155   */\n  dup5\n    /* \"#utility.yul\":2145:2156   */\n  sload\n    /* \"#utility.yul\":2117:2208   */\n  tag_12\n  jump\t// in\ntag_48:\n    /* \"#utility.yul\":2111:2115   */\n  dup3\n    /* \"#utility.yul\":2104:2209   */\n  sstore\n    /* \"#utility.yul\":2022:2215   */\n  pop\n    /* \"#utility.yul\":1946:2215   */\n  pop\n  pop\n  pop\n  jump\t// out\n    /* \"#utility.yul\":2221:2294   */\ntag_18:\n    /* \"#utility.yul\":2266:2269   */\n  0x00\n    /* \"#utility.yul\":2287:2288   */\n  0x00\n    /* \"#utility.yul\":2280:2288   */\n  swap1\n  pop\n    /* \"#utility.yul\":2221:2294   */\n  swap1\n  jump\t// out\n    /* \"#utility.yul\":2300:2489   */\ntag_19:\n    /* \"#utility.yul\":2377:2409   */\n  tag_52\n  tag_18\n  jump\t// in\ntag_52:\n    /* \"#utility.yul\":2418:2483   */\n  tag_53\n    /* \"#utility.yul\":2476:2482   */\n  dup2\n    /* \"#utility.yul\":2468:2474   */\n  dup5\n    /* \"#utility.yul\":2462:2466   */\n  dup5\n    /* \"#utility.yul\":2418:2483   */\n  tag_17\n  jump\t// in\ntag_53:\n    /* \"#utility.yul\":2353:2489   */\n  pop\n    /* \"#utility.yul\":2300:2489   */\n  pop\n  pop\n  jump\t// out\n    /* \"#utility.yul\":2495:2681   */\ntag_20:\n    /* \"#utility.yul\":2555:2675   */\ntag_55:\n    /* \"#utility.yul\":2572:2575   */\n  dup2\n    /* \"#utility.yul\":2565:2570   */\n  dup2\n    /* \"#utility.yul\":2562:2576   */\n  lt\n    /* \"#utility.yul\":2555:2675   */\n  iszero\n  tag_57\n  jumpi\n    /* \"#utility.yul\":2626:2665   */\n  tag_58\n    /* \"#utility.yul\":2663:2664   */\n  0x00\n    /* \"#utility.yul\":2656:2661   */\n  dup3\n    /* \"#utility.yul\":2626:2665   */\n  tag_19\n  jump\t// in\ntag_58:\n    /* \"#utility.yul\":2599:2600   */\n  0x01\n    /* \"#utility.yul\":2592:2597   */\n  dup2\n    /* \"#utility.yul\":2588:2601   */\n  add\n    /* \"#utility.yul\":2579:2601   */\n  swap1\n  pop\n    /* \"#utility.yul\":2555:2675   */\n  jump(tag_55)\ntag_57:\n    /* \"#utility.yul\":2495:2681   */\n  pop\n  pop\n  jump\t// out\n    /* \"#utility.yul\":2687:3230   */\ntag_21:\n    /* \"#utility.yul\":2788:2790   */\n  0x1f\n    /* \"#utility.yul\":2783:2786   */\n  dup3\n    /* \"#utility.yul\":2780:2791   */\n  gt\n    /* \"#utility.yul\":2777:3223   */\n  iszero\n  tag_60\n  jumpi\n    /* \"#utility.yul\":2822:2860   */\n  tag_61\n    /* \"#utility.yul\":2854:2859   */\n  dup2\n    /* \"#utility.yul\":2822:2860   */\n  tag_9\n  jump\t// in\ntag_61:\n    /* \"#utility.yul\":2906:2935   */\n  tag_62\n    /* \"#utility.yul\":2924:2934   */\n  dup5\n    /* \"#utility.yul\":2906:2935   */\n  tag_10\n  jump\t// in\ntag_62:\n    /* \"#utility.yul\":2896:2904   */\n  dup2\n    /* \"#utility.yul\":2892:2936   */\n  add\n    /* \"#utility.yul\":3089:3091   */\n  0x20\n    /* \"#utility.yul\":3077:3087   */\n  dup6\n    /* \"#utility.yul\":3074:3092   */\n  lt\n    /* \"#utility.yul\":3071:3120   */\n  iszero\n  tag_63\n  jumpi\n    /* \"#utility.yul\":3110:3118   */\n  dup2\n    /* \"#utility.yul\":3095:3118   */\n  swap1\n  pop\n    /* \"#utility.yul\":3071:3120   */\ntag_63:\n    /* \"#utility.yul\":3133:3213   */\n  tag_64\n    /* \"#utility.yul\":3189:3211   */\n  tag_65\n    /* \"#utility.yul\":3207:3210   */\n  dup6\n    /* \"#utility.yul\":3189:3211   */\n  tag_10\n  jump\t// in\ntag_65:\n    /* \"#utility.yul\":3179:3187   */\n  dup4\n    /* \"#utility.yul\":3175:3212   */\n  add\n    /* \"#utility.yul\":3162:3173   */\n  dup3\n    /* \"#utility.yul\":3133:3213   */\n  tag_20\n  jump\t// in\ntag_64:\n    /* \"#utility.yul\":2792:3223   */\n  pop\n  pop\n    /* \"#utility.yul\":2777:3223   */\ntag_60:\n    /* \"#utility.yul\":2687:3230   */\n  pop\n  pop\n  pop\n  jump\t// out\n    /* \"#utility.yul\":3236:3353   */\ntag_22:\n    /* \"#utility.yul\":3290:3298   */\n  0x00\n    /* \"#utility.yul\":3340:3345   */\n  dup3\n    /* \"#utility.yul\":3334:3338   */\n  dup3\n    /* \"#utility.yul\":3330:3346   */\n  shr\n    /* \"#utility.yul\":3309:3346   */\n  swap1\n  pop\n    /* \"#utility.yul\":3236:3353   */\n  swap3\n  swap2\n  pop\n  pop\n  jump\t// out\n    /* \"#utility.yul\":3359:3528   */\ntag_23:\n    /* \"#utility.yul\":3403:3409   */\n  0x00\n    /* \"#utility.yul\":3436:3487   */\n  tag_68\n    /* \"#utility.yul\":3484:3485   */\n  0x00\n    /* \"#utility.yul\":3480:3486   */\n  not\n    /* \"#utility.yul\":3472:3477   */\n  dup5\n    /* \"#utility.yul\":3469:3470   */\n  0x08\n    /* \"#utility.yul\":3465:3478   */\n  mul\n    /* \"#utility.yul\":3436:3487   */\n  tag_22\n  jump\t// in\ntag_68:\n    /* \"#utility.yul\":3432:3488   */\n  not\n    /* \"#utility.yul\":3517:3521   */\n  dup1\n    /* \"#utility.yul\":3511:3515   */\n  dup4\n    /* \"#utility.yul\":3507:3522   */\n  and\n    /* \"#utility.yul\":3497:3522   */\n  swap2\n  pop\n    /* \"#utility.yul\":3410:3528   */\n  pop\n    /* \"#utility.yul\":3359:3528   */\n  swap3\n  swap2\n  pop\n  pop\n  jump\t// out\n    /* \"#utility.yul\":3533:3828   */\ntag_24:\n    /* \"#utility.yul\":3609:3613   */\n  0x00\n    /* \"#utility.yul\":3755:3784   */\n  tag_70\n    /* \"#utility.yul\":3780:3783   */\n  dup4\n    /* \"#utility.yul\":3774:3778   */\n  dup4\n    /* \"#utility.yul\":3755:3784   */\n  tag_23\n  jump\t// in\ntag_70:\n    /* \"#utility.yul\":3747:3784   */\n  swap2\n  pop\n    /* \"#utility.yul\":3817:3820   */\n  dup3\n    /* \"#utility.yul\":3814:3815   */\n  0x02\n    /* \"#utility.yul\":3810:3821   */\n  mul\n    /* \"#utility.yul\":3804:3808   */\n  dup3\n    /* \"#utility.yul\":3801:3822   */\n  or\n    /* \"#utility.yul\":3793:3822   */\n  swap1\n  pop\n    /* \"#utility.yul\":3533:3828   */\n  swap3\n  swap2\n  pop\n  pop\n  jump\t// out\n    /* \"#utility.yul\":3833:5228   */\ntag_2:\n    /* \"#utility.yul\":3950:3987   */\n  tag_72\n    /* \"#utility.yul\":3983:3986   */\n  dup3\n    /* \"#utility.yul\":3950:3987   */\n  tag_5\n  jump\t// in\ntag_72:\n    /* \"#utility.yul\":4052:4070   */\n  0xffffffffffffffff\n    /* \"#utility.yul\":4044:4050   */\n  dup2\n    /* \"#utility.yul\":4041:4071   */\n  gt\n    /* \"#utility.yul\":4038:4094   */\n  iszero\n  tag_73\n  jumpi\n    /* \"#utility.yul\":4074:4092   */\n  tag_74\n  tag_6\n  jump\t// in\ntag_74:\n    /* \"#utility.yul\":4038:4094   */\ntag_73:\n    /* \"#utility.yul\":4118:4156   */\n  tag_75\n    /* \"#utility.yul\":4150:4154   */\n  dup3\n    /* \"#utility.yul\":4144:4155   */\n  sload\n    /* \"#utility.yul\":4118:4156   */\n  tag_8\n  jump\t// in\ntag_75:\n    /* \"#utility.yul\":4203:4270   */\n  tag_76\n    /* \"#utility.yul\":4263:4269   */\n  dup3\n    /* \"#utility.yul\":4255:4261   */\n  dup3\n    /* \"#utility.yul\":4249:4253   */\n  dup6\n    /* \"#utility.yul\":4203:4270   */\n  tag_21\n  jump\t// in\ntag_76:\n    /* \"#utility.yul\":4297:4298   */\n  0x00\n    /* \"#utility.yul\":4321:4325   */\n  0x20\n    /* \"#utility.yul\":4308:4325   */\n  swap1\n  pop\n    /* \"#utility.yul\":4353:4355   */\n  0x1f\n    /* \"#utility.yul\":4345:4351   */\n  dup4\n    /* \"#utility.yul\":4342:4356   */\n  gt\n    /* \"#utility.yul\":4370:4371   */\n  0x01\n    /* \"#utility.yul\":4365:4983   */\n  dup2\n  eq\n  tag_78\n  jumpi\n    /* \"#utility.yul\":5027:5028   */\n  0x00\n    /* \"#utility.yul\":5044:5050   */\n  dup5\n    /* \"#utility.yul\":5041:5118   */\n  iszero\n  tag_79\n  jumpi\n    /* \"#utility.yul\":5093:5102   */\n  dup3\n    /* \"#utility.yul\":5088:5091   */\n  dup8\n    /* \"#utility.yul\":5084:5103   */\n  add\n    /* \"#utility.yul\":5078:5104   */\n  mload\n    /* \"#utility.yul\":5069:5104   */\n  swap1\n  pop\n    /* \"#utility.yul\":5041:5118   */\ntag_79:\n    /* \"#utility.yul\":5144:5211   */\n  tag_80\n    /* \"#utility.yul\":5204:5210   */\n  dup6\n    /* \"#utility.yul\":5197:5202   */\n  dup3\n    /* \"#utility.yul\":5144:5211   */\n  tag_24\n  jump\t// in\ntag_80:\n    /* \"#utility.yul\":5138:5142   */\n  dup7\n    /* \"#utility.yul\":5131:5212   */\n  sstore\n    /* \"#utility.yul\":5000:5222   */\n  pop\n    /* \"#utility.yul\":4335:5222   */\n  jump(tag_77)\n    /* \"#utility.yul\":4365:4983   */\ntag_78:\n    /* \"#utility.yul\":4417:4421   */\n  0x1f\n    /* \"#utility.yul\":4413:4422   */\n  not\n    /* \"#utility.yul\":4405:4411   */\n  dup5\n    /* \"#utility.yul\":4401:4423   */\n  and\n    /* \"#utility.yul\":4451:4488   */\n  tag_81\n    /* \"#utility.yul\":4483:4487   */\n  dup7\n    /* \"#utility.yul\":4451:4488   */\n  tag_9\n  jump\t// in\ntag_81:\n    /* \"#utility.yul\":4510:4511   */\n  0x00\n    /* \"#utility.yul\":4524:4732   */\ntag_82:\n    /* \"#utility.yul\":4538:4545   */\n  dup3\n    /* \"#utility.yul\":4535:4536   */\n  dup2\n    /* \"#utility.yul\":4532:4546   */\n  lt\n    /* \"#utility.yul\":4524:4732   */\n  iszero\n  tag_84\n  jumpi\n    /* \"#utility.yul\":4617:4626   */\n  dup5\n    /* \"#utility.yul\":4612:4615   */\n  dup10\n    /* \"#utility.yul\":4608:4627   */\n  add\n    /* \"#utility.yul\":4602:4628   */\n  mload\n    /* \"#utility.yul\":4594:4600   */\n  dup3\n    /* \"#utility.yul\":4587:4629   */\n  sstore\n    /* \"#utility.yul\":4668:4669   */\n  0x01\n    /* \"#utility.yul\":4660:4666   */\n  dup3\n    /* \"#utility.yul\":4656:4670   */\n  add\n    /* \"#utility.yul\":4646:4670   */\n  swap2\n  pop\n    /* \"#utility.yul\":4715:4717   */\n  0x20\n    /* \"#utility.yul\":4704:4713   */\n  dup6\n    /* \"#utility.yul\":4700:4718   */\n  add\n    /* \"#utility.yul\":4687:4718   */\n  swap5\n  pop\n    /* \"#utility.yul\":4561:4565   */\n  0x20\n    /* \"#utility.yul\":4558:4559   */\n  dup2\n    /* \"#utility.yul\":4554:4566   */\n  add\n    /* \"#utility.yul\":4549:4566   */\n  swap1\n  pop\n    /* \"#utility.yul\":4524:4732   */\n  jump(tag_82)\ntag_84:\n    /* \"#utility.yul\":4760:4766   */\n  dup7\n    /* \"#utility.yul\":4751:4758   */\n  dup4\n    /* \"#utility.yul\":4748:4767   */\n  lt\n    /* \"#utility.yul\":4745:4924   */\n  iszero\n  tag_85\n  jumpi\n    /* \"#utility.yul\":4818:4827   */\n  dup5\n    /* \"#utility.yul\":4813:4816   */\n  dup10\n    /* \"#utility.yul\":4809:4828   */\n  add\n    /* \"#utility.yul\":4803:4829   */\n  mload\n    /* \"#utility.yul\":4861:4909   */\n  tag_86\n    /* \"#utility.yul\":4903:4907   */\n  0x1f\n    /* \"#utility.yul\":4895:4901   */\n  dup10\n    /* \"#utility.yul\":4891:4908   */\n  and\n    /* \"#utility.yul\":4880:4889   */\n  dup3\n    /* \"#utility.yul\":4861:4909   */\n  tag_23\n  jump\t// in\ntag_86:\n    /* \"#utility.yul\":4853:4859   */\n  dup4\n    /* \"#utility.yul\":4846:4910   */\n  sstore\n    /* \"#utility.yul\":4768:4924   */\n  pop\n    /* \"#utility.yul\":4745:4924   */\ntag_85:\n    /* \"#utility.yul\":4970:4971   */\n  0x01\n    /* \"#utility.yul\":4966:4967   */\n  0x02\n    /* \"#utility.yul\":4958:4964   */\n  dup9\n    /* \"#utility.yul\":4954:4968   */\n  mul\n    /* \"#utility.yul\":4950:4972   */\n  add\n    /* \"#utility.yul\":4944:4948   */\n  dup9\n    /* \"#utility.yul\":4937:4973   */\n  sstore\n    /* \"#utility.yul\":4372:4983   */\n  pop\n  pop\n  pop\n    /* \"#utility.yul\":4335:5222   */\ntag_77:\n  pop\n    /* \"#utility.yul\":3925:5228   */\n  pop\n  pop\n  pop\n    /* \"#utility.yul\":3833:5228   */\n  pop\n  pop\n  jump\t// out\n    /* \"contract/SimpleStorage.sol\":61:829  contract SimpleStorage {... */\ntag_4:\n  dataSize(sub_0)\n  dup1\n  dataOffset(sub_0)\n  0x00\n  codecopy\n  0x00\n  return\nstop\n\nsub_0: assembly {\n        /* \"contract/SimpleStorage.sol\":61:829  contract SimpleStorage {... */\n      mstore(0x40, 0x80)\n      callvalue\n      dup1\n      iszero\n      tag_1\n      jumpi\n      revert(0x00, 0x00)\n    tag_1:\n      pop\n      jumpi(tag_2, lt(calldatasize, 0x04))\n      shr(0xe0, calldataload(0x00))\n      dup1\n      0x131a0680\n      eq\n      tag_3\n      jumpi\n      dup1\n      0x2e64cec1\n      eq\n      tag_4\n      jumpi\n      dup1\n      0x2f64d386\n      eq\n      tag_5\n      jumpi\n      dup1\n      0x6f760f41\n      eq\n      tag_6\n      jumpi\n      dup1\n      0x85a26d7d\n      eq\n      tag_7\n      jumpi\n      dup1\n      0x9e7a13ad\n      eq\n      tag_8\n      jumpi\n    tag_2:\n      revert(0x00, 0x00)\n        /* \"contract/SimpleStorage.sol\":240:413  function store(string memory _message) public {... */\n    tag_3:\n      tag_9\n      0x04\n      dup1\n      calldatasize\n      sub\n      dup2\n      add\n      swap1\n      tag_10\n      swap2\n      swap1\n      tag_11\n      jump\t// in\n    tag_10:\n      tag_12\n      jump\t// in\n    tag_9:\n      stop\n        /* \"contract/SimpleStorage.sol\":481:604  function retrieve() public view returns (string memory) {... */\n    tag_4:\n      tag_13\n      tag_14\n      jump\t// in\n    tag_13:\n      mload(0x40)\n      tag_15\n      swap2\n      swap1\n      tag_16\n      jump\t// in\n    tag_15:\n      mload(0x40)\n      dup1\n      swap2\n      sub\n      swap1\n      return\n        /* \"contract/SimpleStorage.sol\":91:126  string public word = \"hello World!\" */\n    tag_5:\n      tag_17\n      tag_18\n      jump\t// in\n    tag_17:\n      mload(0x40)\n      tag_19\n      swap2\n      swap1\n      tag_16\n      jump\t// in\n    tag_19:\n      mload(0x40)\n      dup1\n      swap2\n      sub\n      swap1\n      return\n        /* \"contract/SimpleStorage.sol\":612:724  function addPerson(string memory _name, uint256 _age) public {... */\n    tag_6:\n      tag_20\n      0x04\n      dup1\n      calldatasize\n      sub\n      dup2\n      add\n      swap1\n      tag_21\n      swap2\n      swap1\n      tag_22\n      jump\t// in\n    tag_21:\n      tag_23\n      jump\t// in\n    tag_20:\n      stop\n        /* \"contract/SimpleStorage.sol\":732:826  function getAllPeople() public view returns (People[] memory) {... */\n    tag_7:\n      tag_24\n      tag_25\n      jump\t// in\n    tag_24:\n      mload(0x40)\n      tag_26\n      swap2\n      swap1\n      tag_27\n      jump\t// in\n    tag_26:\n      mload(0x40)\n      dup1\n      swap2\n      sub\n      swap1\n      return\n        /* \"contract/SimpleStorage.sol\":209:231  People[] public people */\n    tag_8:\n      tag_28\n      0x04\n      dup1\n      calldatasize\n      sub\n      dup2\n      add\n      swap1\n      tag_29\n      swap2\n      swap1\n      tag_30\n      jump\t// in\n    tag_29:\n      tag_31\n      jump\t// in\n    tag_28:\n      mload(0x40)\n      tag_32\n      swap3\n      swap2\n      swap1\n      tag_33\n      jump\t// in\n    tag_32:\n      mload(0x40)\n      dup1\n      swap2\n      sub\n      swap1\n      return\n        /* \"contract/SimpleStorage.sol\":240:413  function store(string memory _message) public {... */\n    tag_12:\n        /* \"contract/SimpleStorage.sol\":304:312  _message */\n      dup1\n        /* \"contract/SimpleStorage.sol\":297:301  word */\n      0x00\n        /* \"contract/SimpleStorage.sol\":297:312  word = _message */\n      swap1\n      dup2\n      tag_35\n      swap2\n      swap1\n      tag_36\n      jump\t// in\n    tag_35:\n      pop\n        /* \"contract/SimpleStorage.sol\":240:413  function store(string memory _message) public {... */\n      pop\n      jump\t// out\n        /* \"contract/SimpleStorage.sol\":481:604  function retrieve() public view returns (string memory) {... */\n    tag_14:\n        /* \"contract/SimpleStorage.sol\":522:535  string memory */\n      0x60\n        /* \"contract/SimpleStorage.sol\":579:583  word */\n      0x00\n        /* \"contract/SimpleStorage.sol\":562:595  abi.encodePacked(word, \" COBA 1\") */\n      add(0x20, mload(0x40))\n      tag_38\n      swap2\n      swap1\n      tag_39\n      jump\t// in\n    tag_38:\n      mload(0x40)\n      0x20\n      dup2\n      dup4\n      sub\n      sub\n      dup2\n      mstore\n      swap1\n      0x40\n      mstore\n        /* \"contract/SimpleStorage.sol\":548:596  return string(abi.encodePacked(word, \" COBA 1\")) */\n      swap1\n      pop\n        /* \"contract/SimpleStorage.sol\":481:604  function retrieve() public view returns (string memory) {... */\n      swap1\n      jump\t// out\n        /* \"contract/SimpleStorage.sol\":91:126  string public word = \"hello World!\" */\n    tag_18:\n      0x00\n      dup1\n      sload\n      tag_40\n      swap1\n      tag_41\n      jump\t// in\n    tag_40:\n      dup1\n      0x1f\n      add\n      0x20\n      dup1\n      swap2\n      div\n      mul\n      0x20\n      add\n      mload(0x40)\n      swap1\n      dup2\n      add\n      0x40\n      mstore\n      dup1\n      swap3\n      swap2\n      swap1\n      dup2\n      dup2\n      mstore\n      0x20\n      add\n      dup3\n      dup1\n      sload\n      tag_42\n      swap1\n      tag_41\n      jump\t// in\n    tag_42:\n      dup1\n      iszero\n      tag_43\n      jumpi\n      dup1\n      0x1f\n      lt\n      tag_44\n      jumpi\n      0x0100\n      dup1\n      dup4\n      sload\n      div\n      mul\n      dup4\n      mstore\n      swap2\n      0x20\n      add\n      swap2\n      jump(tag_43)\n    tag_44:\n      dup3\n      add\n      swap2\n      swap1\n      0x00\n      mstore\n      keccak256(0x00, 0x20)\n      swap1\n    tag_45:\n      dup2\n      sload\n      dup2\n      mstore\n      swap1\n      0x01\n      add\n      swap1\n      0x20\n      add\n      dup1\n      dup4\n      gt\n      tag_45\n      jumpi\n      dup3\n      swap1\n      sub\n      0x1f\n      and\n      dup3\n      add\n      swap2\n    tag_43:\n      pop\n      pop\n      pop\n      pop\n      pop\n      dup2\n      jump\t// out\n        /* \"contract/SimpleStorage.sol\":612:724  function addPerson(string memory _name, uint256 _age) public {... */\n    tag_23:\n        /* \"contract/SimpleStorage.sol\":684:690  people */\n      0x01\n        /* \"contract/SimpleStorage.sol\":696:715  People(_name, _age) */\n      mload(0x40)\n      dup1\n      0x40\n      add\n      0x40\n      mstore\n      dup1\n        /* \"contract/SimpleStorage.sol\":703:708  _name */\n      dup5\n        /* \"contract/SimpleStorage.sol\":696:715  People(_name, _age) */\n      dup2\n      mstore\n      0x20\n      add\n        /* \"contract/SimpleStorage.sol\":710:714  _age */\n      dup4\n        /* \"contract/SimpleStorage.sol\":696:715  People(_name, _age) */\n      dup2\n      mstore\n      pop\n        /* \"contract/SimpleStorage.sol\":684:716  people.push(People(_name, _age)) */\n      swap1\n      dup1\n      0x01\n      dup2\n      sload\n      add\n      dup1\n      dup3\n      sstore\n      dup1\n      swap2\n      pop\n      pop\n      0x01\n      swap1\n      sub\n      swap1\n      0x00\n      mstore\n      keccak256(0x00, 0x20)\n      swap1\n      0x02\n      mul\n      add\n      0x00\n      swap1\n      swap2\n      swap1\n      swap2\n      swap1\n      swap2\n      pop\n      0x00\n      dup3\n      add\n      mload\n      dup2\n      0x00\n      add\n      swap1\n      dup2\n      tag_48\n      swap2\n      swap1\n      tag_36\n      jump\t// in\n    tag_48:\n      pop\n      0x20\n      dup3\n      add\n      mload\n      dup2\n      0x01\n      add\n      sstore\n      pop\n      pop\n        /* \"contract/SimpleStorage.sol\":612:724  function addPerson(string memory _name, uint256 _age) public {... */\n      pop\n      pop\n      jump\t// out\n        /* \"contract/SimpleStorage.sol\":732:826  function getAllPeople() public view returns (People[] memory) {... */\n    tag_25:\n        /* \"contract/SimpleStorage.sol\":777:792  People[] memory */\n      0x60\n        /* \"contract/SimpleStorage.sol\":812:818  people */\n      0x01\n        /* \"contract/SimpleStorage.sol\":805:818  return people */\n      dup1\n      sload\n      dup1\n      0x20\n      mul\n      0x20\n      add\n      mload(0x40)\n      swap1\n      dup2\n      add\n      0x40\n      mstore\n      dup1\n      swap3\n      swap2\n      swap1\n      dup2\n      dup2\n      mstore\n      0x20\n      add\n      0x00\n      swap1\n    tag_50:\n      dup3\n      dup3\n      lt\n      iszero\n      tag_51\n      jumpi\n      dup4\n      dup3\n      swap1\n      0x00\n      mstore\n      keccak256(0x00, 0x20)\n      swap1\n      0x02\n      mul\n      add\n      mload(0x40)\n      dup1\n      0x40\n      add\n      0x40\n      mstore\n      swap1\n      dup2\n      0x00\n      dup3\n      add\n      dup1\n      sload\n      tag_53\n      swap1\n      tag_41\n      jump\t// in\n    tag_53:\n      dup1\n      0x1f\n      add\n      0x20\n      dup1\n      swap2\n      div\n      mul\n      0x20\n      add\n      mload(0x40)\n      swap1\n      dup2\n      add\n      0x40\n      mstore\n      dup1\n      swap3\n      swap2\n      swap1\n      dup2\n      dup2\n      mstore\n      0x20\n      add\n      dup3\n      dup1\n      sload\n      tag_54\n      swap1\n      tag_41\n      jump\t// in\n    tag_54:\n      dup1\n      iszero\n      tag_55\n      jumpi\n      dup1\n      0x1f\n      lt\n      tag_56\n      jumpi\n      0x0100\n      dup1\n      dup4\n      sload\n      div\n      mul\n      dup4\n      mstore\n      swap2\n      0x20\n      add\n      swap2\n      jump(tag_55)\n    tag_56:\n      dup3\n      add\n      swap2\n      swap1\n      0x00\n      mstore\n      keccak256(0x00, 0x20)\n      swap1\n    tag_57:\n      dup2\n      sload\n      dup2\n      mstore\n      swap1\n      0x01\n      add\n      swap1\n      0x20\n      add\n      dup1\n      dup4\n      gt\n      tag_57\n      jumpi\n      dup3\n      swap1\n      sub\n      0x1f\n      and\n      dup3\n      add\n      swap2\n    tag_55:\n      pop\n      pop\n      pop\n      pop\n      pop\n      dup2\n      mstore\n      0x20\n      add\n      0x01\n      dup3\n      add\n      sload\n      dup2\n      mstore\n      pop\n      pop\n      dup2\n      mstore\n      0x20\n      add\n      swap1\n      0x01\n      add\n      swap1\n      jump(tag_50)\n    tag_51:\n      pop\n      pop\n      pop\n      pop\n      swap1\n      pop\n        /* \"contract/SimpleStorage.sol\":732:826  function getAllPeople() public view returns (People[] memory) {... */\n      swap1\n      jump\t// out\n        /* \"contract/SimpleStorage.sol\":209:231  People[] public people */\n    tag_31:\n      0x01\n      dup2\n      dup2\n      sload\n      dup2\n      lt\n      tag_58\n      jumpi\n      0x00\n      dup1\n      revert\n    tag_58:\n      swap1\n      0x00\n      mstore\n      keccak256(0x00, 0x20)\n      swap1\n      0x02\n      mul\n      add\n      0x00\n      swap2\n      pop\n      swap1\n      pop\n      dup1\n      0x00\n      add\n      dup1\n      sload\n      tag_60\n      swap1\n      tag_41\n      jump\t// in\n    tag_60:\n      dup1\n      0x1f\n      add\n      0x20\n      dup1\n      swap2\n      div\n      mul\n      0x20\n      add\n      mload(0x40)\n      swap1\n      dup2\n      add\n      0x40\n      mstore\n      dup1\n      swap3\n      swap2\n      swap1\n      dup2\n      dup2\n      mstore\n      0x20\n      add\n      dup3\n      dup1\n      sload\n      tag_61\n      swap1\n      tag_41\n      jump\t// in\n    tag_61:\n      dup1\n      iszero\n      tag_62\n      jumpi\n      dup1\n      0x1f\n      lt\n      tag_63\n      jumpi\n      0x0100\n      dup1\n      dup4\n      sload\n      div\n      mul\n      dup4\n      mstore\n      swap2\n      0x20\n      add\n      swap2\n      jump(tag_62)\n    tag_63:\n      dup3\n      add\n      swap2\n      swap1\n      0x00\n      mstore\n      keccak256(0x00, 0x20)\n      swap1\n    tag_64:\n      dup2\n      sload\n      dup2\n      mstore\n      swap1\n      0x01\n      add\n      swap1\n      0x20\n      add\n      dup1\n      dup4\n      gt\n      tag_64\n      jumpi\n      dup3\n      swap1\n      sub\n      0x1f\n      and\n      dup3\n      add\n      swap2\n    tag_62:\n      pop\n      pop\n      pop\n      pop\n      pop\n      swap1\n      dup1\n      0x01\n      add\n      sload\n      swap1\n      pop\n      dup3\n      jump\t// out\n        /* \"#utility.yul\":7:82   */\n    tag_65:\n        /* \"#utility.yul\":40:46   */\n      0x00\n        /* \"#utility.yul\":73:75   */\n      0x40\n        /* \"#utility.yul\":67:76   */\n      mload\n        /* \"#utility.yul\":57:76   */\n      swap1\n      pop\n        /* \"#utility.yul\":7:82   */\n      swap1\n      jump\t// out\n        /* \"#utility.yul\":88:205   */\n    tag_66:\n        /* \"#utility.yul\":197:198   */\n      0x00\n        /* \"#utility.yul\":194:195   */\n      0x00\n        /* \"#utility.yul\":187:199   */\n      revert\n        /* \"#utility.yul\":211:328   */\n    tag_67:\n        /* \"#utility.yul\":320:321   */\n      0x00\n        /* \"#utility.yul\":317:318   */\n      0x00\n        /* \"#utility.yul\":310:322   */\n      revert\n        /* \"#utility.yul\":334:451   */\n    tag_68:\n        /* \"#utility.yul\":443:444   */\n      0x00\n        /* \"#utility.yul\":440:441   */\n      0x00\n        /* \"#utility.yul\":433:445   */\n      revert\n        /* \"#utility.yul\":457:574   */\n    tag_69:\n        /* \"#utility.yul\":566:567   */\n      0x00\n        /* \"#utility.yul\":563:564   */\n      0x00\n        /* \"#utility.yul\":556:568   */\n      revert\n        /* \"#utility.yul\":580:682   */\n    tag_70:\n        /* \"#utility.yul\":621:627   */\n      0x00\n        /* \"#utility.yul\":672:674   */\n      0x1f\n        /* \"#utility.yul\":668:675   */\n      not\n        /* \"#utility.yul\":663:665   */\n      0x1f\n        /* \"#utility.yul\":656:661   */\n      dup4\n        /* \"#utility.yul\":652:666   */\n      add\n        /* \"#utility.yul\":648:676   */\n      and\n        /* \"#utility.yul\":638:676   */\n      swap1\n      pop\n        /* \"#utility.yul\":580:682   */\n      swap2\n      swap1\n      pop\n      jump\t// out\n        /* \"#utility.yul\":688:868   */\n    tag_71:\n        /* \"#utility.yul\":736:813   */\n      0x4e487b7100000000000000000000000000000000000000000000000000000000\n        /* \"#utility.yul\":733:734   */\n      0x00\n        /* \"#utility.yul\":726:814   */\n      mstore\n        /* \"#utility.yul\":833:837   */\n      0x41\n        /* \"#utility.yul\":830:831   */\n      0x04\n        /* \"#utility.yul\":823:838   */\n      mstore\n        /* \"#utility.yul\":857:861   */\n      0x24\n        /* \"#utility.yul\":854:855   */\n      0x00\n        /* \"#utility.yul\":847:862   */\n      revert\n        /* \"#utility.yul\":874:1155   */\n    tag_72:\n        /* \"#utility.yul\":957:984   */\n      tag_125\n        /* \"#utility.yul\":979:983   */\n      dup3\n        /* \"#utility.yul\":957:984   */\n      tag_70\n      jump\t// in\n    tag_125:\n        /* \"#utility.yul\":949:955   */\n      dup2\n        /* \"#utility.yul\":945:985   */\n      add\n        /* \"#utility.yul\":1087:1093   */\n      dup2\n        /* \"#utility.yul\":1075:1085   */\n      dup2\n        /* \"#utility.yul\":1072:1094   */\n      lt\n        /* \"#utility.yul\":1051:1069   */\n      0xffffffffffffffff\n        /* \"#utility.yul\":1039:1049   */\n      dup3\n        /* \"#utility.yul\":1036:1070   */\n      gt\n        /* \"#utility.yul\":1033:1095   */\n      or\n        /* \"#utility.yul\":1030:1118   */\n      iszero\n      tag_126\n      jumpi\n        /* \"#utility.yul\":1098:1116   */\n      tag_127\n      tag_71\n      jump\t// in\n    tag_127:\n        /* \"#utility.yul\":1030:1118   */\n    tag_126:\n        /* \"#utility.yul\":1138:1148   */\n      dup1\n        /* \"#utility.yul\":1134:1136   */\n      0x40\n        /* \"#utility.yul\":1127:1149   */\n      mstore\n        /* \"#utility.yul\":917:1155   */\n      pop\n        /* \"#utility.yul\":874:1155   */\n      pop\n      pop\n      jump\t// out\n        /* \"#utility.yul\":1161:1290   */\n    tag_73:\n        /* \"#utility.yul\":1195:1201   */\n      0x00\n        /* \"#utility.yul\":1222:1242   */\n      tag_129\n      tag_65\n      jump\t// in\n    tag_129:\n        /* \"#utility.yul\":1212:1242   */\n      swap1\n      pop\n        /* \"#utility.yul\":1251:1284   */\n      tag_130\n        /* \"#utility.yul\":1279:1283   */\n      dup3\n        /* \"#utility.yul\":1271:1277   */\n      dup3\n        /* \"#utility.yul\":1251:1284   */\n      tag_72\n      jump\t// in\n    tag_130:\n        /* \"#utility.yul\":1161:1290   */\n      swap2\n      swap1\n      pop\n      jump\t// out\n        /* \"#utility.yul\":1296:1604   */\n    tag_74:\n        /* \"#utility.yul\":1358:1362   */\n      0x00\n        /* \"#utility.yul\":1448:1466   */\n      0xffffffffffffffff\n        /* \"#utility.yul\":1440:1446   */\n      dup3\n        /* \"#utility.yul\":1437:1467   */\n      gt\n        /* \"#utility.yul\":1434:1490   */\n      iszero\n      tag_132\n      jumpi\n        /* \"#utility.yul\":1470:1488   */\n      tag_133\n      tag_71\n      jump\t// in\n    tag_133:\n        /* \"#utility.yul\":1434:1490   */\n    tag_132:\n        /* \"#utility.yul\":1508:1537   */\n      tag_134\n        /* \"#utility.yul\":1530:1536   */\n      dup3\n        /* \"#utility.yul\":1508:1537   */\n      tag_70\n      jump\t// in\n    tag_134:\n        /* \"#utility.yul\":1500:1537   */\n      swap1\n      pop\n        /* \"#utility.yul\":1592:1596   */\n      0x20\n        /* \"#utility.yul\":1586:1590   */\n      dup2\n        /* \"#utility.yul\":1582:1597   */\n      add\n        /* \"#utility.yul\":1574:1597   */\n      swap1\n      pop\n        /* \"#utility.yul\":1296:1604   */\n      swap2\n      swap1\n      pop\n      jump\t// out\n        /* \"#utility.yul\":1610:1758   */\n    tag_75:\n        /* \"#utility.yul\":1708:1714   */\n      dup3\n        /* \"#utility.yul\":1703:1706   */\n      dup2\n        /* \"#utility.yul\":1698:1701   */\n      dup4\n        /* \"#utility.yul\":1685:1715   */\n      calldatacopy\n        /* \"#utility.yul\":1749:1750   */\n      0x00\n        /* \"#utility.yul\":1740:1746   */\n      dup4\n        /* \"#utility.yul\":1735:1738   */\n      dup4\n        /* \"#utility.yul\":1731:1747   */\n      add\n        /* \"#utility.yul\":1724:1751   */\n      mstore\n        /* \"#utility.yul\":1610:1758   */\n      pop\n      pop\n      pop\n      jump\t// out\n        /* \"#utility.yul\":1764:2189   */\n    tag_76:\n        /* \"#utility.yul\":1842:1847   */\n      0x00\n        /* \"#utility.yul\":1867:1933   */\n      tag_137\n        /* \"#utility.yul\":1883:1932   */\n      tag_138\n        /* \"#utility.yul\":1925:1931   */\n      dup5\n        /* \"#utility.yul\":1883:1932   */\n      tag_74\n      jump\t// in\n    tag_138:\n        /* \"#utility.yul\":1867:1933   */\n      tag_73\n      jump\t// in\n    tag_137:\n        /* \"#utility.yul\":1858:1933   */\n      swap1\n      pop\n        /* \"#utility.yul\":1956:1962   */\n      dup3\n        /* \"#utility.yul\":1949:1954   */\n      dup2\n        /* \"#utility.yul\":1942:1963   */\n      mstore\n        /* \"#utility.yul\":1994:1998   */\n      0x20\n        /* \"#utility.yul\":1987:1992   */\n      dup2\n        /* \"#utility.yul\":1983:1999   */\n      add\n        /* \"#utility.yul\":2032:2035   */\n      dup5\n        /* \"#utility.yul\":2023:2029   */\n      dup5\n        /* \"#utility.yul\":2018:2021   */\n      dup5\n        /* \"#utility.yul\":2014:2030   */\n      add\n        /* \"#utility.yul\":2011:2036   */\n      gt\n        /* \"#utility.yul\":2008:2120   */\n      iszero\n      tag_139\n      jumpi\n        /* \"#utility.yul\":2039:2118   */\n      tag_140\n      tag_69\n      jump\t// in\n    tag_140:\n        /* \"#utility.yul\":2008:2120   */\n    tag_139:\n        /* \"#utility.yul\":2129:2183   */\n      tag_141\n        /* \"#utility.yul\":2176:2182   */\n      dup5\n        /* \"#utility.yul\":2171:2174   */\n      dup3\n        /* \"#utility.yul\":2166:2169   */\n      dup6\n        /* \"#utility.yul\":2129:2183   */\n      tag_75\n      jump\t// in\n    tag_141:\n        /* \"#utility.yul\":1848:2189   */\n      pop\n        /* \"#utility.yul\":1764:2189   */\n      swap4\n      swap3\n      pop\n      pop\n      pop\n      jump\t// out\n        /* \"#utility.yul\":2209:2549   */\n    tag_77:\n        /* \"#utility.yul\":2265:2270   */\n      0x00\n        /* \"#utility.yul\":2314:2317   */\n      dup3\n        /* \"#utility.yul\":2307:2311   */\n      0x1f\n        /* \"#utility.yul\":2299:2305   */\n      dup4\n        /* \"#utility.yul\":2295:2312   */\n      add\n        /* \"#utility.yul\":2291:2318   */\n      slt\n        /* \"#utility.yul\":2281:2403   */\n      tag_143\n      jumpi\n        /* \"#utility.yul\":2322:2401   */\n      tag_144\n      tag_68\n      jump\t// in\n    tag_144:\n        /* \"#utility.yul\":2281:2403   */\n    tag_143:\n        /* \"#utility.yul\":2439:2445   */\n      dup2\n        /* \"#utility.yul\":2426:2446   */\n      calldataload\n        /* \"#utility.yul\":2464:2543   */\n      tag_145\n        /* \"#utility.yul\":2539:2542   */\n      dup5\n        /* \"#utility.yul\":2531:2537   */\n      dup3\n        /* \"#utility.yul\":2524:2528   */\n      0x20\n        /* \"#utility.yul\":2516:2522   */\n      dup7\n        /* \"#utility.yul\":2512:2529   */\n      add\n        /* \"#utility.yul\":2464:2543   */\n      tag_76\n      jump\t// in\n    tag_145:\n        /* \"#utility.yul\":2455:2543   */\n      swap2\n      pop\n        /* \"#utility.yul\":2271:2549   */\n      pop\n        /* \"#utility.yul\":2209:2549   */\n      swap3\n      swap2\n      pop\n      pop\n      jump\t// out\n        /* \"#utility.yul\":2555:3064   */\n    tag_11:\n        /* \"#utility.yul\":2624:2630   */\n      0x00\n        /* \"#utility.yul\":2673:2675   */\n      0x20\n        /* \"#utility.yul\":2661:2670   */\n      dup3\n        /* \"#utility.yul\":2652:2659   */\n      dup5\n        /* \"#utility.yul\":2648:2671   */\n      sub\n        /* \"#utility.yul\":2644:2676   */\n      slt\n        /* \"#utility.yul\":2641:2760   */\n      iszero\n      tag_147\n      jumpi\n        /* \"#utility.yul\":2679:2758   */\n      tag_148\n      tag_66\n      jump\t// in\n    tag_148:\n        /* \"#utility.yul\":2641:2760   */\n    tag_147:\n        /* \"#utility.yul\":2827:2828   */\n      0x00\n        /* \"#utility.yul\":2816:2825   */\n      dup3\n        /* \"#utility.yul\":2812:2829   */\n      add\n        /* \"#utility.yul\":2799:2830   */\n      calldataload\n        /* \"#utility.yul\":2857:2875   */\n      0xffffffffffffffff\n        /* \"#utility.yul\":2849:2855   */\n      dup2\n        /* \"#utility.yul\":2846:2876   */\n      gt\n        /* \"#utility.yul\":2843:2960   */\n      iszero\n      tag_149\n      jumpi\n        /* \"#utility.yul\":2879:2958   */\n      tag_150\n      tag_67\n      jump\t// in\n    tag_150:\n        /* \"#utility.yul\":2843:2960   */\n    tag_149:\n        /* \"#utility.yul\":2984:3047   */\n      tag_151\n        /* \"#utility.yul\":3039:3046   */\n      dup5\n        /* \"#utility.yul\":3030:3036   */\n      dup3\n        /* \"#utility.yul\":3019:3028   */\n      dup6\n        /* \"#utility.yul\":3015:3037   */\n      add\n        /* \"#utility.yul\":2984:3047   */\n      tag_77\n      jump\t// in\n    tag_151:\n        /* \"#utility.yul\":2974:3047   */\n      swap2\n      pop\n        /* \"#utility.yul\":2770:3057   */\n      pop\n        /* \"#utility.yul\":2555:3064   */\n      swap3\n      swap2\n      pop\n      pop\n      jump\t// out\n        /* \"#utility.yul\":3070:3169   */\n    tag_78:\n        /* \"#utility.yul\":3122:3128   */\n      0x00\n        /* \"#utility.yul\":3156:3161   */\n      dup2\n        /* \"#utility.yul\":3150:3162   */\n      mload\n        /* \"#utility.yul\":3140:3162   */\n      swap1\n      pop\n        /* \"#utility.yul\":3070:3169   */\n      swap2\n      swap1\n      pop\n      jump\t// out\n        /* \"#utility.yul\":3175:3344   */\n    tag_79:\n        /* \"#utility.yul\":3259:3270   */\n      0x00\n        /* \"#utility.yul\":3293:3299   */\n      dup3\n        /* \"#utility.yul\":3288:3291   */\n      dup3\n        /* \"#utility.yul\":3281:3300   */\n      mstore\n        /* \"#utility.yul\":3333:3337   */\n      0x20\n        /* \"#utility.yul\":3328:3331   */\n      dup3\n        /* \"#utility.yul\":3324:3338   */\n      add\n        /* \"#utility.yul\":3309:3338   */\n      swap1\n      pop\n        /* \"#utility.yul\":3175:3344   */\n      swap3\n      swap2\n      pop\n      pop\n      jump\t// out\n        /* \"#utility.yul\":3350:3489   */\n    tag_80:\n        /* \"#utility.yul\":3439:3445   */\n      dup3\n        /* \"#utility.yul\":3434:3437   */\n      dup2\n        /* \"#utility.yul\":3429:3432   */\n      dup4\n        /* \"#utility.yul\":3423:3446   */\n      mcopy\n        /* \"#utility.yul\":3480:3481   */\n      0x00\n        /* \"#utility.yul\":3471:3477   */\n      dup4\n        /* \"#utility.yul\":3466:3469   */\n      dup4\n        /* \"#utility.yul\":3462:3478   */\n      add\n        /* \"#utility.yul\":3455:3482   */\n      mstore\n        /* \"#utility.yul\":3350:3489   */\n      pop\n      pop\n      pop\n      jump\t// out\n        /* \"#utility.yul\":3495:3872   */\n    tag_81:\n        /* \"#utility.yul\":3583:3586   */\n      0x00\n        /* \"#utility.yul\":3611:3650   */\n      tag_156\n        /* \"#utility.yul\":3644:3649   */\n      dup3\n        /* \"#utility.yul\":3611:3650   */\n      tag_78\n      jump\t// in\n    tag_156:\n        /* \"#utility.yul\":3666:3737   */\n      tag_157\n        /* \"#utility.yul\":3730:3736   */\n      dup2\n        /* \"#utility.yul\":3725:3728   */\n      dup6\n        /* \"#utility.yul\":3666:3737   */\n      tag_79\n      jump\t// in\n    tag_157:\n        /* \"#utility.yul\":3659:3737   */\n      swap4\n      pop\n        /* \"#utility.yul\":3746:3811   */\n      tag_158\n        /* \"#utility.yul\":3804:3810   */\n      dup2\n        /* \"#utility.yul\":3799:3802   */\n      dup6\n        /* \"#utility.yul\":3792:3796   */\n      0x20\n        /* \"#utility.yul\":3785:3790   */\n      dup7\n        /* \"#utility.yul\":3781:3797   */\n      add\n        /* \"#utility.yul\":3746:3811   */\n      tag_80\n      jump\t// in\n    tag_158:\n        /* \"#utility.yul\":3836:3865   */\n      tag_159\n        /* \"#utility.yul\":3858:3864   */\n      dup2\n        /* \"#utility.yul\":3836:3865   */\n      tag_70\n      jump\t// in\n    tag_159:\n        /* \"#utility.yul\":3831:3834   */\n      dup5\n        /* \"#utility.yul\":3827:3866   */\n      add\n        /* \"#utility.yul\":3820:3866   */\n      swap2\n      pop\n        /* \"#utility.yul\":3587:3872   */\n      pop\n        /* \"#utility.yul\":3495:3872   */\n      swap3\n      swap2\n      pop\n      pop\n      jump\t// out\n        /* \"#utility.yul\":3878:4191   */\n    tag_16:\n        /* \"#utility.yul\":3991:3995   */\n      0x00\n        /* \"#utility.yul\":4029:4031   */\n      0x20\n        /* \"#utility.yul\":4018:4027   */\n      dup3\n        /* \"#utility.yul\":4014:4032   */\n      add\n        /* \"#utility.yul\":4006:4032   */\n      swap1\n      pop\n        /* \"#utility.yul\":4078:4087   */\n      dup2\n        /* \"#utility.yul\":4072:4076   */\n      dup2\n        /* \"#utility.yul\":4068:4088   */\n      sub\n        /* \"#utility.yul\":4064:4065   */\n      0x00\n        /* \"#utility.yul\":4053:4062   */\n      dup4\n        /* \"#utility.yul\":4049:4066   */\n      add\n        /* \"#utility.yul\":4042:4089   */\n      mstore\n        /* \"#utility.yul\":4106:4184   */\n      tag_161\n        /* \"#utility.yul\":4179:4183   */\n      dup2\n        /* \"#utility.yul\":4170:4176   */\n      dup5\n        /* \"#utility.yul\":4106:4184   */\n      tag_81\n      jump\t// in\n    tag_161:\n        /* \"#utility.yul\":4098:4184   */\n      swap1\n      pop\n        /* \"#utility.yul\":3878:4191   */\n      swap3\n      swap2\n      pop\n      pop\n      jump\t// out\n        /* \"#utility.yul\":4197:4274   */\n    tag_82:\n        /* \"#utility.yul\":4234:4241   */\n      0x00\n        /* \"#utility.yul\":4263:4268   */\n      dup2\n        /* \"#utility.yul\":4252:4268   */\n      swap1\n      pop\n        /* \"#utility.yul\":4197:4274   */\n      swap2\n      swap1\n      pop\n      jump\t// out\n        /* \"#utility.yul\":4280:4402   */\n    tag_83:\n        /* \"#utility.yul\":4353:4377   */\n      tag_164\n        /* \"#utility.yul\":4371:4376   */\n      dup2\n        /* \"#utility.yul\":4353:4377   */\n      tag_82\n      jump\t// in\n    tag_164:\n        /* \"#utility.yul\":4346:4351   */\n      dup2\n        /* \"#utility.yul\":4343:4378   */\n      eq\n        /* \"#utility.yul\":4333:4396   */\n      tag_165\n      jumpi\n        /* \"#utility.yul\":4392:4393   */\n      0x00\n        /* \"#utility.yul\":4389:4390   */\n      0x00\n        /* \"#utility.yul\":4382:4394   */\n      revert\n        /* \"#utility.yul\":4333:4396   */\n    tag_165:\n        /* \"#utility.yul\":4280:4402   */\n      pop\n      jump\t// out\n        /* \"#utility.yul\":4408:4547   */\n    tag_84:\n        /* \"#utility.yul\":4454:4459   */\n      0x00\n        /* \"#utility.yul\":4492:4498   */\n      dup2\n        /* \"#utility.yul\":4479:4499   */\n      calldataload\n        /* \"#utility.yul\":4470:4499   */\n      swap1\n      pop\n        /* \"#utility.yul\":4508:4541   */\n      tag_167\n        /* \"#utility.yul\":4535:4540   */\n      dup2\n        /* \"#utility.yul\":4508:4541   */\n      tag_83\n      jump\t// in\n    tag_167:\n        /* \"#utility.yul\":4408:4547   */\n      swap3\n      swap2\n      pop\n      pop\n      jump\t// out\n        /* \"#utility.yul\":4553:5207   */\n    tag_22:\n        /* \"#utility.yul\":4631:4637   */\n      0x00\n        /* \"#utility.yul\":4639:4645   */\n      0x00\n        /* \"#utility.yul\":4688:4690   */\n      0x40\n        /* \"#utility.yul\":4676:4685   */\n      dup4\n        /* \"#utility.yul\":4667:4674   */\n      dup6\n        /* \"#utility.yul\":4663:4686   */\n      sub\n        /* \"#utility.yul\":4659:4691   */\n      slt\n        /* \"#utility.yul\":4656:4775   */\n      iszero\n      tag_169\n      jumpi\n        /* \"#utility.yul\":4694:4773   */\n      tag_170\n      tag_66\n      jump\t// in\n    tag_170:\n        /* \"#utility.yul\":4656:4775   */\n    tag_169:\n        /* \"#utility.yul\":4842:4843   */\n      0x00\n        /* \"#utility.yul\":4831:4840   */\n      dup4\n        /* \"#utility.yul\":4827:4844   */\n      add\n        /* \"#utility.yul\":4814:4845   */\n      calldataload\n        /* \"#utility.yul\":4872:4890   */\n      0xffffffffffffffff\n        /* \"#utility.yul\":4864:4870   */\n      dup2\n        /* \"#utility.yul\":4861:4891   */\n      gt\n        /* \"#utility.yul\":4858:4975   */\n      iszero\n      tag_171\n      jumpi\n        /* \"#utility.yul\":4894:4973   */\n      tag_172\n      tag_67\n      jump\t// in\n    tag_172:\n        /* \"#utility.yul\":4858:4975   */\n    tag_171:\n        /* \"#utility.yul\":4999:5062   */\n      tag_173\n        /* \"#utility.yul\":5054:5061   */\n      dup6\n        /* \"#utility.yul\":5045:5051   */\n      dup3\n        /* \"#utility.yul\":5034:5043   */\n      dup7\n        /* \"#utility.yul\":5030:5052   */\n      add\n        /* \"#utility.yul\":4999:5062   */\n      tag_77\n      jump\t// in\n    tag_173:\n        /* \"#utility.yul\":4989:5062   */\n      swap3\n      pop\n        /* \"#utility.yul\":4785:5072   */\n      pop\n        /* \"#utility.yul\":5111:5113   */\n      0x20\n        /* \"#utility.yul\":5137:5190   */\n      tag_174\n        /* \"#utility.yul\":5182:5189   */\n      dup6\n        /* \"#utility.yul\":5173:5179   */\n      dup3\n        /* \"#utility.yul\":5162:5171   */\n      dup7\n        /* \"#utility.yul\":5158:5180   */\n      add\n        /* \"#utility.yul\":5137:5190   */\n      tag_84\n      jump\t// in\n    tag_174:\n        /* \"#utility.yul\":5127:5190   */\n      swap2\n      pop\n        /* \"#utility.yul\":5082:5200   */\n      pop\n        /* \"#utility.yul\":4553:5207   */\n      swap3\n      pop\n      swap3\n      swap1\n      pop\n      jump\t// out\n        /* \"#utility.yul\":5213:5348   */\n    tag_85:\n        /* \"#utility.yul\":5301:5307   */\n      0x00\n        /* \"#utility.yul\":5335:5340   */\n      dup2\n        /* \"#utility.yul\":5329:5341   */\n      mload\n        /* \"#utility.yul\":5319:5341   */\n      swap1\n      pop\n        /* \"#utility.yul\":5213:5348   */\n      swap2\n      swap1\n      pop\n      jump\t// out\n        /* \"#utility.yul\":5354:5559   */\n    tag_86:\n        /* \"#utility.yul\":5474:5485   */\n      0x00\n        /* \"#utility.yul\":5508:5514   */\n      dup3\n        /* \"#utility.yul\":5503:5506   */\n      dup3\n        /* \"#utility.yul\":5496:5515   */\n      mstore\n        /* \"#utility.yul\":5548:5552   */\n      0x20\n        /* \"#utility.yul\":5543:5546   */\n      dup3\n        /* \"#utility.yul\":5539:5553   */\n      add\n        /* \"#utility.yul\":5524:5553   */\n      swap1\n      pop\n        /* \"#utility.yul\":5354:5559   */\n      swap3\n      swap2\n      pop\n      pop\n      jump\t// out\n        /* \"#utility.yul\":5565:5718   */\n    tag_87:\n        /* \"#utility.yul\":5653:5657   */\n      0x00\n        /* \"#utility.yul\":5676:5679   */\n      dup2\n        /* \"#utility.yul\":5668:5679   */\n      swap1\n      pop\n        /* \"#utility.yul\":5706:5710   */\n      0x20\n        /* \"#utility.yul\":5701:5704   */\n      dup3\n        /* \"#utility.yul\":5697:5711   */\n      add\n        /* \"#utility.yul\":5689:5711   */\n      swap1\n      pop\n        /* \"#utility.yul\":5565:5718   */\n      swap2\n      swap1\n      pop\n      jump\t// out\n        /* \"#utility.yul\":5724:5883   */\n    tag_88:\n        /* \"#utility.yul\":5798:5809   */\n      0x00\n        /* \"#utility.yul\":5832:5838   */\n      dup3\n        /* \"#utility.yul\":5827:5830   */\n      dup3\n        /* \"#utility.yul\":5820:5839   */\n      mstore\n        /* \"#utility.yul\":5872:5876   */\n      0x20\n        /* \"#utility.yul\":5867:5870   */\n      dup3\n        /* \"#utility.yul\":5863:5877   */\n      add\n        /* \"#utility.yul\":5848:5877   */\n      swap1\n      pop\n        /* \"#utility.yul\":5724:5883   */\n      swap3\n      swap2\n      pop\n      pop\n      jump\t// out\n        /* \"#utility.yul\":5889:6246   */\n    tag_89:\n        /* \"#utility.yul\":5967:5970   */\n      0x00\n        /* \"#utility.yul\":5995:6034   */\n      tag_180\n        /* \"#utility.yul\":6028:6033   */\n      dup3\n        /* \"#utility.yul\":5995:6034   */\n      tag_78\n      jump\t// in\n    tag_180:\n        /* \"#utility.yul\":6050:6111   */\n      tag_181\n        /* \"#utility.yul\":6104:6110   */\n      dup2\n        /* \"#utility.yul\":6099:6102   */\n      dup6\n        /* \"#utility.yul\":6050:6111   */\n      tag_88\n      jump\t// in\n    tag_181:\n        /* \"#utility.yul\":6043:6111   */\n      swap4\n      pop\n        /* \"#utility.yul\":6120:6185   */\n      tag_182\n        /* \"#utility.yul\":6178:6184   */\n      dup2\n        /* \"#utility.yul\":6173:6176   */\n      dup6\n        /* \"#utility.yul\":6166:6170   */\n      0x20\n        /* \"#utility.yul\":6159:6164   */\n      dup7\n        /* \"#utility.yul\":6155:6171   */\n      add\n        /* \"#utility.yul\":6120:6185   */\n      tag_80\n      jump\t// in\n    tag_182:\n        /* \"#utility.yul\":6210:6239   */\n      tag_183\n        /* \"#utility.yul\":6232:6238   */\n      dup2\n        /* \"#utility.yul\":6210:6239   */\n      tag_70\n      jump\t// in\n    tag_183:\n        /* \"#utility.yul\":6205:6208   */\n      dup5\n        /* \"#utility.yul\":6201:6240   */\n      add\n        /* \"#utility.yul\":6194:6240   */\n      swap2\n      pop\n        /* \"#utility.yul\":5971:6246   */\n      pop\n        /* \"#utility.yul\":5889:6246   */\n      swap3\n      swap2\n      pop\n      pop\n      jump\t// out\n        /* \"#utility.yul\":6252:6360   */\n    tag_90:\n        /* \"#utility.yul\":6329:6353   */\n      tag_185\n        /* \"#utility.yul\":6347:6352   */\n      dup2\n        /* \"#utility.yul\":6329:6353   */\n      tag_82\n      jump\t// in\n    tag_185:\n        /* \"#utility.yul\":6324:6327   */\n      dup3\n        /* \"#utility.yul\":6317:6354   */\n      mstore\n        /* \"#utility.yul\":6252:6360   */\n      pop\n      pop\n      jump\t// out\n        /* \"#utility.yul\":6432:7019   */\n    tag_91:\n        /* \"#utility.yul\":6533:6536   */\n      0x00\n        /* \"#utility.yul\":6569:6573   */\n      0x40\n        /* \"#utility.yul\":6564:6567   */\n      dup4\n        /* \"#utility.yul\":6560:6574   */\n      add\n        /* \"#utility.yul\":6656:6660   */\n      0x00\n        /* \"#utility.yul\":6649:6654   */\n      dup4\n        /* \"#utility.yul\":6645:6661   */\n      add\n        /* \"#utility.yul\":6639:6662   */\n      mload\n        /* \"#utility.yul\":6709:6712   */\n      dup5\n        /* \"#utility.yul\":6703:6707   */\n      dup3\n        /* \"#utility.yul\":6699:6713   */\n      sub\n        /* \"#utility.yul\":6692:6696   */\n      0x00\n        /* \"#utility.yul\":6687:6690   */\n      dup7\n        /* \"#utility.yul\":6683:6697   */\n      add\n        /* \"#utility.yul\":6676:6714   */\n      mstore\n        /* \"#utility.yul\":6735:6808   */\n      tag_187\n        /* \"#utility.yul\":6803:6807   */\n      dup3\n        /* \"#utility.yul\":6789:6801   */\n      dup3\n        /* \"#utility.yul\":6735:6808   */\n      tag_89\n      jump\t// in\n    tag_187:\n        /* \"#utility.yul\":6727:6808   */\n      swap2\n      pop\n        /* \"#utility.yul\":6584:6819   */\n      pop\n        /* \"#utility.yul\":6900:6904   */\n      0x20\n        /* \"#utility.yul\":6893:6898   */\n      dup4\n        /* \"#utility.yul\":6889:6905   */\n      add\n        /* \"#utility.yul\":6883:6906   */\n      mload\n        /* \"#utility.yul\":6919:6982   */\n      tag_188\n        /* \"#utility.yul\":6976:6980   */\n      0x20\n        /* \"#utility.yul\":6971:6974   */\n      dup7\n        /* \"#utility.yul\":6967:6981   */\n      add\n        /* \"#utility.yul\":6953:6965   */\n      dup3\n        /* \"#utility.yul\":6919:6982   */\n      tag_90\n      jump\t// in\n    tag_188:\n        /* \"#utility.yul\":6829:6992   */\n      pop\n        /* \"#utility.yul\":7009:7013   */\n      dup1\n        /* \"#utility.yul\":7002:7013   */\n      swap2\n      pop\n        /* \"#utility.yul\":6538:7019   */\n      pop\n        /* \"#utility.yul\":6432:7019   */\n      swap3\n      swap2\n      pop\n      pop\n      jump\t// out\n        /* \"#utility.yul\":7025:7265   */\n    tag_92:\n        /* \"#utility.yul\":7136:7146   */\n      0x00\n        /* \"#utility.yul\":7171:7259   */\n      tag_190\n        /* \"#utility.yul\":7255:7258   */\n      dup4\n        /* \"#utility.yul\":7247:7253   */\n      dup4\n        /* \"#utility.yul\":7171:7259   */\n      tag_91\n      jump\t// in\n    tag_190:\n        /* \"#utility.yul\":7157:7259   */\n      swap1\n      pop\n        /* \"#utility.yul\":7025:7265   */\n      swap3\n      swap2\n      pop\n      pop\n      jump\t// out\n        /* \"#utility.yul\":7271:7405   */\n    tag_93:\n        /* \"#utility.yul\":7362:7366   */\n      0x00\n        /* \"#utility.yul\":7394:7398   */\n      0x20\n        /* \"#utility.yul\":7389:7392   */\n      dup3\n        /* \"#utility.yul\":7385:7399   */\n      add\n        /* \"#utility.yul\":7377:7399   */\n      swap1\n      pop\n        /* \"#utility.yul\":7271:7405   */\n      swap2\n      swap1\n      pop\n      jump\t// out\n        /* \"#utility.yul\":7481:8560   */\n    tag_94:\n        /* \"#utility.yul\":7642:7645   */\n      0x00\n        /* \"#utility.yul\":7671:7746   */\n      tag_193\n        /* \"#utility.yul\":7740:7745   */\n      dup3\n        /* \"#utility.yul\":7671:7746   */\n      tag_85\n      jump\t// in\n    tag_193:\n        /* \"#utility.yul\":7762:7869   */\n      tag_194\n        /* \"#utility.yul\":7862:7868   */\n      dup2\n        /* \"#utility.yul\":7857:7860   */\n      dup6\n        /* \"#utility.yul\":7762:7869   */\n      tag_86\n      jump\t// in\n    tag_194:\n        /* \"#utility.yul\":7755:7869   */\n      swap4\n      pop\n        /* \"#utility.yul\":7895:7898   */\n      dup4\n        /* \"#utility.yul\":7940:7944   */\n      0x20\n        /* \"#utility.yul\":7932:7938   */\n      dup3\n        /* \"#utility.yul\":7928:7945   */\n      mul\n        /* \"#utility.yul\":7923:7926   */\n      dup6\n        /* \"#utility.yul\":7919:7946   */\n      add\n        /* \"#utility.yul\":7970:8047   */\n      tag_195\n        /* \"#utility.yul\":8041:8046   */\n      dup6\n        /* \"#utility.yul\":7970:8047   */\n      tag_87\n      jump\t// in\n    tag_195:\n        /* \"#utility.yul\":8070:8077   */\n      dup1\n        /* \"#utility.yul\":8101:8102   */\n      0x00\n        /* \"#utility.yul\":8086:8515   */\n    tag_196:\n        /* \"#utility.yul\":8111:8117   */\n      dup6\n        /* \"#utility.yul\":8108:8109   */\n      dup2\n        /* \"#utility.yul\":8105:8118   */\n      lt\n        /* \"#utility.yul\":8086:8515   */\n      iszero\n      tag_198\n      jumpi\n        /* \"#utility.yul\":8182:8191   */\n      dup5\n        /* \"#utility.yul\":8176:8180   */\n      dup5\n        /* \"#utility.yul\":8172:8192   */\n      sub\n        /* \"#utility.yul\":8167:8170   */\n      dup10\n        /* \"#utility.yul\":8160:8193   */\n      mstore\n        /* \"#utility.yul\":8233:8239   */\n      dup2\n        /* \"#utility.yul\":8227:8240   */\n      mload\n        /* \"#utility.yul\":8261:8367   */\n      tag_199\n        /* \"#utility.yul\":8362:8366   */\n      dup6\n        /* \"#utility.yul\":8347:8360   */\n      dup3\n        /* \"#utility.yul\":8261:8367   */\n      tag_92\n      jump\t// in\n    tag_199:\n        /* \"#utility.yul\":8253:8367   */\n      swap5\n      pop\n        /* \"#utility.yul\":8390:8471   */\n      tag_200\n        /* \"#utility.yul\":8464:8470   */\n      dup4\n        /* \"#utility.yul\":8390:8471   */\n      tag_93\n      jump\t// in\n    tag_200:\n        /* \"#utility.yul\":8380:8471   */\n      swap3\n      pop\n        /* \"#utility.yul\":8500:8504   */\n      0x20\n        /* \"#utility.yul\":8495:8498   */\n      dup11\n        /* \"#utility.yul\":8491:8505   */\n      add\n        /* \"#utility.yul\":8484:8505   */\n      swap10\n      pop\n        /* \"#utility.yul\":8146:8515   */\n      pop\n        /* \"#utility.yul\":8133:8134   */\n      0x01\n        /* \"#utility.yul\":8130:8131   */\n      dup2\n        /* \"#utility.yul\":8126:8135   */\n      add\n        /* \"#utility.yul\":8121:8135   */\n      swap1\n      pop\n        /* \"#utility.yul\":8086:8515   */\n      jump(tag_196)\n    tag_198:\n        /* \"#utility.yul\":8090:8104   */\n      pop\n        /* \"#utility.yul\":8531:8535   */\n      dup3\n        /* \"#utility.yul\":8524:8535   */\n      swap8\n      pop\n        /* \"#utility.yul\":8551:8554   */\n      dup8\n        /* \"#utility.yul\":8544:8554   */\n      swap6\n      pop\n        /* \"#utility.yul\":7647:8560   */\n      pop\n      pop\n      pop\n      pop\n      pop\n        /* \"#utility.yul\":7481:8560   */\n      swap3\n      swap2\n      pop\n      pop\n      jump\t// out\n        /* \"#utility.yul\":8566:9023   */\n    tag_27:\n        /* \"#utility.yul\":8751:8755   */\n      0x00\n        /* \"#utility.yul\":8789:8791   */\n      0x20\n        /* \"#utility.yul\":8778:8787   */\n      dup3\n        /* \"#utility.yul\":8774:8792   */\n      add\n        /* \"#utility.yul\":8766:8792   */\n      swap1\n      pop\n        /* \"#utility.yul\":8838:8847   */\n      dup2\n        /* \"#utility.yul\":8832:8836   */\n      dup2\n        /* \"#utility.yul\":8828:8848   */\n      sub\n        /* \"#utility.yul\":8824:8825   */\n      0x00\n        /* \"#utility.yul\":8813:8822   */\n      dup4\n        /* \"#utility.yul\":8809:8826   */\n      add\n        /* \"#utility.yul\":8802:8849   */\n      mstore\n        /* \"#utility.yul\":8866:9016   */\n      tag_202\n        /* \"#utility.yul\":9011:9015   */\n      dup2\n        /* \"#utility.yul\":9002:9008   */\n      dup5\n        /* \"#utility.yul\":8866:9016   */\n      tag_94\n      jump\t// in\n    tag_202:\n        /* \"#utility.yul\":8858:9016   */\n      swap1\n      pop\n        /* \"#utility.yul\":8566:9023   */\n      swap3\n      swap2\n      pop\n      pop\n      jump\t// out\n        /* \"#utility.yul\":9029:9358   */\n    tag_30:\n        /* \"#utility.yul\":9088:9094   */\n      0x00\n        /* \"#utility.yul\":9137:9139   */\n      0x20\n        /* \"#utility.yul\":9125:9134   */\n      dup3\n        /* \"#utility.yul\":9116:9123   */\n      dup5\n        /* \"#utility.yul\":9112:9135   */\n      sub\n        /* \"#utility.yul\":9108:9140   */\n      slt\n        /* \"#utility.yul\":9105:9224   */\n      iszero\n      tag_204\n      jumpi\n        /* \"#utility.yul\":9143:9222   */\n      tag_205\n      tag_66\n      jump\t// in\n    tag_205:\n        /* \"#utility.yul\":9105:9224   */\n    tag_204:\n        /* \"#utility.yul\":9263:9264   */\n      0x00\n        /* \"#utility.yul\":9288:9341   */\n      tag_206\n        /* \"#utility.yul\":9333:9340   */\n      dup5\n        /* \"#utility.yul\":9324:9330   */\n      dup3\n        /* \"#utility.yul\":9313:9322   */\n      dup6\n        /* \"#utility.yul\":9309:9331   */\n      add\n        /* \"#utility.yul\":9288:9341   */\n      tag_84\n      jump\t// in\n    tag_206:\n        /* \"#utility.yul\":9278:9341   */\n      swap2\n      pop\n        /* \"#utility.yul\":9234:9351   */\n      pop\n        /* \"#utility.yul\":9029:9358   */\n      swap3\n      swap2\n      pop\n      pop\n      jump\t// out\n        /* \"#utility.yul\":9364:9482   */\n    tag_95:\n        /* \"#utility.yul\":9451:9475   */\n      tag_208\n        /* \"#utility.yul\":9469:9474   */\n      dup2\n        /* \"#utility.yul\":9451:9475   */\n      tag_82\n      jump\t// in\n    tag_208:\n        /* \"#utility.yul\":9446:9449   */\n      dup3\n        /* \"#utility.yul\":9439:9476   */\n      mstore\n        /* \"#utility.yul\":9364:9482   */\n      pop\n      pop\n      jump\t// out\n        /* \"#utility.yul\":9488:9911   */\n    tag_33:\n        /* \"#utility.yul\":9629:9633   */\n      0x00\n        /* \"#utility.yul\":9667:9669   */\n      0x40\n        /* \"#utility.yul\":9656:9665   */\n      dup3\n        /* \"#utility.yul\":9652:9670   */\n      add\n        /* \"#utility.yul\":9644:9670   */\n      swap1\n      pop\n        /* \"#utility.yul\":9716:9725   */\n      dup2\n        /* \"#utility.yul\":9710:9714   */\n      dup2\n        /* \"#utility.yul\":9706:9726   */\n      sub\n        /* \"#utility.yul\":9702:9703   */\n      0x00\n        /* \"#utility.yul\":9691:9700   */\n      dup4\n        /* \"#utility.yul\":9687:9704   */\n      add\n        /* \"#utility.yul\":9680:9727   */\n      mstore\n        /* \"#utility.yul\":9744:9822   */\n      tag_210\n        /* \"#utility.yul\":9817:9821   */\n      dup2\n        /* \"#utility.yul\":9808:9814   */\n      dup6\n        /* \"#utility.yul\":9744:9822   */\n      tag_81\n      jump\t// in\n    tag_210:\n        /* \"#utility.yul\":9736:9822   */\n      swap1\n      pop\n        /* \"#utility.yul\":9832:9904   */\n      tag_211\n        /* \"#utility.yul\":9900:9902   */\n      0x20\n        /* \"#utility.yul\":9889:9898   */\n      dup4\n        /* \"#utility.yul\":9885:9903   */\n      add\n        /* \"#utility.yul\":9876:9882   */\n      dup5\n        /* \"#utility.yul\":9832:9904   */\n      tag_95\n      jump\t// in\n    tag_211:\n        /* \"#utility.yul\":9488:9911   */\n      swap4\n      swap3\n      pop\n      pop\n      pop\n      jump\t// out\n        /* \"#utility.yul\":9917:10097   */\n    tag_96:\n        /* \"#utility.yul\":9965:10042   */\n      0x4e487b7100000000000000000000000000000000000000000000000000000000\n        /* \"#utility.yul\":9962:9963   */\n      0x00\n        /* \"#utility.yul\":9955:10043   */\n      mstore\n        /* \"#utility.yul\":10062:10066   */\n      0x22\n        /* \"#utility.yul\":10059:10060   */\n      0x04\n        /* \"#utility.yul\":10052:10067   */\n      mstore\n        /* \"#utility.yul\":10086:10090   */\n      0x24\n        /* \"#utility.yul\":10083:10084   */\n      0x00\n        /* \"#utility.yul\":10076:10091   */\n      revert\n        /* \"#utility.yul\":10103:10423   */\n    tag_41:\n        /* \"#utility.yul\":10147:10153   */\n      0x00\n        /* \"#utility.yul\":10184:10185   */\n      0x02\n        /* \"#utility.yul\":10178:10182   */\n      dup3\n        /* \"#utility.yul\":10174:10186   */\n      div\n        /* \"#utility.yul\":10164:10186   */\n      swap1\n      pop\n        /* \"#utility.yul\":10231:10232   */\n      0x01\n        /* \"#utility.yul\":10225:10229   */\n      dup3\n        /* \"#utility.yul\":10221:10233   */\n      and\n        /* \"#utility.yul\":10252:10270   */\n      dup1\n        /* \"#utility.yul\":10242:10323   */\n      tag_214\n      jumpi\n        /* \"#utility.yul\":10308:10312   */\n      0x7f\n        /* \"#utility.yul\":10300:10306   */\n      dup3\n        /* \"#utility.yul\":10296:10313   */\n      and\n        /* \"#utility.yul\":10286:10313   */\n      swap2\n      pop\n        /* \"#utility.yul\":10242:10323   */\n    tag_214:\n        /* \"#utility.yul\":10370:10372   */\n      0x20\n        /* \"#utility.yul\":10362:10368   */\n      dup3\n        /* \"#utility.yul\":10359:10373   */\n      lt\n        /* \"#utility.yul\":10339:10357   */\n      dup2\n        /* \"#utility.yul\":10336:10374   */\n      sub\n        /* \"#utility.yul\":10333:10417   */\n      tag_215\n      jumpi\n        /* \"#utility.yul\":10389:10407   */\n      tag_216\n      tag_96\n      jump\t// in\n    tag_216:\n        /* \"#utility.yul\":10333:10417   */\n    tag_215:\n        /* \"#utility.yul\":10154:10423   */\n      pop\n        /* \"#utility.yul\":10103:10423   */\n      swap2\n      swap1\n      pop\n      jump\t// out\n        /* \"#utility.yul\":10429:10570   */\n    tag_97:\n        /* \"#utility.yul\":10478:10482   */\n      0x00\n        /* \"#utility.yul\":10501:10504   */\n      dup2\n        /* \"#utility.yul\":10493:10504   */\n      swap1\n      pop\n        /* \"#utility.yul\":10524:10527   */\n      dup2\n        /* \"#utility.yul\":10521:10522   */\n      0x00\n        /* \"#utility.yul\":10514:10528   */\n      mstore\n        /* \"#utility.yul\":10558:10562   */\n      0x20\n        /* \"#utility.yul\":10555:10556   */\n      0x00\n        /* \"#utility.yul\":10545:10563   */\n      keccak256\n        /* \"#utility.yul\":10537:10563   */\n      swap1\n      pop\n        /* \"#utility.yul\":10429:10570   */\n      swap2\n      swap1\n      pop\n      jump\t// out\n        /* \"#utility.yul\":10576:10669   */\n    tag_98:\n        /* \"#utility.yul\":10613:10619   */\n      0x00\n        /* \"#utility.yul\":10660:10662   */\n      0x20\n        /* \"#utility.yul\":10655:10657   */\n      0x1f\n        /* \"#utility.yul\":10648:10653   */\n      dup4\n        /* \"#utility.yul\":10644:10658   */\n      add\n        /* \"#utility.yul\":10640:10663   */\n      div\n        /* \"#utility.yul\":10630:10663   */\n      swap1\n      pop\n        /* \"#utility.yul\":10576:10669   */\n      swap2\n      swap1\n      pop\n      jump\t// out\n        /* \"#utility.yul\":10675:10782   */\n    tag_99:\n        /* \"#utility.yul\":10719:10727   */\n      0x00\n        /* \"#utility.yul\":10769:10774   */\n      dup3\n        /* \"#utility.yul\":10763:10767   */\n      dup3\n        /* \"#utility.yul\":10759:10775   */\n      shl\n        /* \"#utility.yul\":10738:10775   */\n      swap1\n      pop\n        /* \"#utility.yul\":10675:10782   */\n      swap3\n      swap2\n      pop\n      pop\n      jump\t// out\n        /* \"#utility.yul\":10788:11181   */\n    tag_100:\n        /* \"#utility.yul\":10857:10863   */\n      0x00\n        /* \"#utility.yul\":10907:10908   */\n      0x08\n        /* \"#utility.yul\":10895:10905   */\n      dup4\n        /* \"#utility.yul\":10891:10909   */\n      mul\n        /* \"#utility.yul\":10930:11027   */\n      tag_221\n        /* \"#utility.yul\":10960:11026   */\n      0xffffffffffffffffffffffffffffffffffffffffffffffffffffffffffffffff\n        /* \"#utility.yul\":10949:10958   */\n      dup3\n        /* \"#utility.yul\":10930:11027   */\n      tag_99\n      jump\t// in\n    tag_221:\n        /* \"#utility.yul\":11048:11087   */\n      tag_222\n        /* \"#utility.yul\":11078:11086   */\n      dup7\n        /* \"#utility.yul\":11067:11076   */\n      dup4\n        /* \"#utility.yul\":11048:11087   */\n      tag_99\n      jump\t// in\n    tag_222:\n        /* \"#utility.yul\":11036:11087   */\n      swap6\n      pop\n        /* \"#utility.yul\":11120:11124   */\n      dup1\n        /* \"#utility.yul\":11116:11125   */\n      not\n        /* \"#utility.yul\":11109:11114   */\n      dup5\n        /* \"#utility.yul\":11105:11126   */\n      and\n        /* \"#utility.yul\":11096:11126   */\n      swap4\n      pop\n        /* \"#utility.yul\":11169:11173   */\n      dup1\n        /* \"#utility.yul\":11159:11167   */\n      dup7\n        /* \"#utility.yul\":11155:11174   */\n      and\n        /* \"#utility.yul\":11148:11153   */\n      dup5\n        /* \"#utility.yul\":11145:11175   */\n      or\n        /* \"#utility.yul\":11135:11175   */\n      swap3\n      pop\n        /* \"#utility.yul\":10864:11181   */\n      pop\n      pop\n        /* \"#utility.yul\":10788:11181   */\n      swap4\n      swap3\n      pop\n      pop\n      pop\n      jump\t// out\n        /* \"#utility.yul\":11187:11247   */\n    tag_101:\n        /* \"#utility.yul\":11215:11218   */\n      0x00\n        /* \"#utility.yul\":11236:11241   */\n      dup2\n        /* \"#utility.yul\":11229:11241   */\n      swap1\n      pop\n        /* \"#utility.yul\":11187:11247   */\n      swap2\n      swap1\n      pop\n      jump\t// out\n        /* \"#utility.yul\":11253:11395   */\n    tag_102:\n        /* \"#utility.yul\":11303:11312   */\n      0x00\n        /* \"#utility.yul\":11336:11389   */\n      tag_225\n        /* \"#utility.yul\":11354:11388   */\n      tag_226\n        /* \"#utility.yul\":11363:11387   */\n      tag_227\n        /* \"#utility.yul\":11381:11386   */\n      dup5\n        /* \"#utility.yul\":11363:11387   */\n      tag_82\n      jump\t// in\n    tag_227:\n        /* \"#utility.yul\":11354:11388   */\n      tag_101\n      jump\t// in\n    tag_226:\n        /* \"#utility.yul\":11336:11389   */\n      tag_82\n      jump\t// in\n    tag_225:\n        /* \"#utility.yul\":11323:11389   */\n      swap1\n      pop\n        /* \"#utility.yul\":11253:11395   */\n      swap2\n      swap1\n      pop\n      jump\t// out\n        /* \"#utility.yul\":11401:11476   */\n    tag_103:\n        /* \"#utility.yul\":11444:11447   */\n      0x00\n        /* \"#utility.yul\":11465:11470   */\n      dup2\n        /* \"#utility.yul\":11458:11470   */\n      swap1\n      pop\n        /* \"#utility.yul\":11401:11476   */\n      swap2\n      swap1\n      pop\n      jump\t// out\n        /* \"#utility.yul\":11482:11751   */\n    tag_104:\n        /* \"#utility.yul\":11592:11631   */\n      tag_230\n        /* \"#utility.yul\":11623:11630   */\n      dup4\n        /* \"#utility.yul\":11592:11631   */\n      tag_102\n      jump\t// in\n    tag_230:\n        /* \"#utility.yul\":11653:11744   */\n      tag_231\n        /* \"#utility.yul\":11702:11743   */\n      tag_232\n        /* \"#utility.yul\":11726:11742   */\n      dup3\n        /* \"#utility.yul\":11702:11743   */\n      tag_103\n      jump\t// in\n    tag_232:\n        /* \"#utility.yul\":11694:11700   */\n      dup5\n        /* \"#utility.yul\":11687:11691   */\n      dup5\n        /* \"#utility.yul\":11681:11692   */\n      sload\n        /* \"#utility.yul\":11653:11744   */\n      tag_100\n      jump\t// in\n    tag_231:\n        /* \"#utility.yul\":11647:11651   */\n      dup3\n        /* \"#utility.yul\":11640:11745   */\n      sstore\n        /* \"#utility.yul\":11558:11751   */\n      pop\n        /* \"#utility.yul\":11482:11751   */\n      pop\n      pop\n      pop\n      jump\t// out\n        /* \"#utility.yul\":11757:11830   */\n    tag_105:\n        /* \"#utility.yul\":11802:11805   */\n      0x00\n        /* \"#utility.yul\":11823:11824   */\n      0x00\n        /* \"#utility.yul\":11816:11824   */\n      swap1\n      pop\n        /* \"#utility.yul\":11757:11830   */\n      swap1\n      jump\t// out\n        /* \"#utility.yul\":11836:12025   */\n    tag_106:\n        /* \"#utility.yul\":11913:11945   */\n      tag_235\n      tag_105\n      jump\t// in\n    tag_235:\n        /* \"#utility.yul\":11954:12019   */\n      tag_236\n        /* \"#utility.yul\":12012:12018   */\n      dup2\n        /* \"#utility.yul\":12004:12010   */\n      dup5\n        /* \"#utility.yul\":11998:12002   */\n      dup5\n        /* \"#utility.yul\":11954:12019   */\n      tag_104\n      jump\t// in\n    tag_236:\n        /* \"#utility.yul\":11889:12025   */\n      pop\n        /* \"#utility.yul\":11836:12025   */\n      pop\n      pop\n      jump\t// out\n        /* \"#utility.yul\":12031:12217   */\n    tag_107:\n        /* \"#utility.yul\":12091:12211   */\n    tag_238:\n        /* \"#utility.yul\":12108:12111   */\n      dup2\n        /* \"#utility.yul\":12101:12106   */\n      dup2\n        /* \"#utility.yul\":12098:12112   */\n      lt\n        /* \"#utility.yul\":12091:12211   */\n      iszero\n      tag_240\n      jumpi\n        /* \"#utility.yul\":12162:12201   */\n      tag_241\n        /* \"#utility.yul\":12199:12200   */\n      0x00\n        /* \"#utility.yul\":12192:12197   */\n      dup3\n        /* \"#utility.yul\":12162:12201   */\n      tag_106\n      jump\t// in\n    tag_241:\n        /* \"#utility.yul\":12135:12136   */\n      0x01\n        /* \"#utility.yul\":12128:12133   */\n      dup2\n        /* \"#utility.yul\":12124:12137   */\n      add\n        /* \"#utility.yul\":12115:12137   */\n      swap1\n      pop\n        /* \"#utility.yul\":12091:12211   */\n      jump(tag_238)\n    tag_240:\n        /* \"#utility.yul\":12031:12217   */\n      pop\n      pop\n      jump\t// out\n        /* \"#utility.yul\":12223:12766   */\n    tag_108:\n        /* \"#utility.yul\":12324:12326   */\n      0x1f\n        /* \"#utility.yul\":12319:12322   */\n      dup3\n        /* \"#utility.yul\":12316:12327   */\n      gt\n        /* \"#utility.yul\":12313:12759   */\n      iszero\n      tag_243\n      jumpi\n        /* \"#utility.yul\":12358:12396   */\n      tag_244\n        /* \"#utility.yul\":12390:12395   */\n      dup2\n        /* \"#utility.yul\":12358:12396   */\n      tag_97\n      jump\t// in\n    tag_244:\n        /* \"#utility.yul\":12442:12471   */\n      tag_245\n        /* \"#utility.yul\":12460:12470   */\n      dup5\n        /* \"#utility.yul\":12442:12471   */\n      tag_98\n      jump\t// in\n    tag_245:\n        /* \"#utility.yul\":12432:12440   */\n      dup2\n        /* \"#utility.yul\":12428:12472   */\n      add\n        /* \"#utility.yul\":12625:12627   */\n      0x20\n        /* \"#utility.yul\":12613:12623   */\n      dup6\n        /* \"#utility.yul\":12610:12628   */\n      lt\n        /* \"#utility.yul\":12607:12656   */\n      iszero\n      tag_246\n      jumpi\n        /* \"#utility.yul\":12646:12654   */\n      dup2\n        /* \"#utility.yul\":12631:12654   */\n      swap1\n      pop\n        /* \"#utility.yul\":12607:12656   */\n    tag_246:\n        /* \"#utility.yul\":12669:12749   */\n      tag_247\n        /* \"#utility.yul\":12725:12747   */\n      tag_248\n        /* \"#utility.yul\":12743:12746   */\n      dup6\n        /* \"#utility.yul\":12725:12747   */\n      tag_98\n      jump\t// in\n    tag_248:\n        /* \"#utility.yul\":12715:12723   */\n      dup4\n        /* \"#utility.yul\":12711:12748   */\n      add\n        /* \"#utility.yul\":12698:12709   */\n      dup3\n        /* \"#utility.yul\":12669:12749   */\n      tag_107\n      jump\t// in\n    tag_247:\n        /* \"#utility.yul\":12328:12759   */\n      pop\n      pop\n        /* \"#utility.yul\":12313:12759   */\n    tag_243:\n        /* \"#utility.yul\":12223:12766   */\n      pop\n      pop\n      pop\n      jump\t// out\n        /* \"#utility.yul\":12772:12889   */\n    tag_109:\n        /* \"#utility.yul\":12826:12834   */\n      0x00\n        /* \"#utility.yul\":12876:12881   */\n      dup3\n        /* \"#utility.yul\":12870:12874   */\n      dup3\n        /* \"#utility.yul\":12866:12882   */\n      shr\n        /* \"#utility.yul\":12845:12882   */\n      swap1\n      pop\n        /* \"#utility.yul\":12772:12889   */\n      swap3\n      swap2\n      pop\n      pop\n      jump\t// out\n        /* \"#utility.yul\":12895:13064   */\n    tag_110:\n        /* \"#utility.yul\":12939:12945   */\n      0x00\n        /* \"#utility.yul\":12972:13023   */\n      tag_251\n        /* \"#utility.yul\":13020:13021   */\n      0x00\n        /* \"#utility.yul\":13016:13022   */\n      not\n        /* \"#utility.yul\":13008:13013   */\n      dup5\n        /* \"#utility.yul\":13005:13006   */\n      0x08\n        /* \"#utility.yul\":13001:13014   */\n      mul\n        /* \"#utility.yul\":12972:13023   */\n      tag_109\n      jump\t// in\n    tag_251:\n        /* \"#utility.yul\":12968:13024   */\n      not\n        /* \"#utility.yul\":13053:13057   */\n      dup1\n        /* \"#utility.yul\":13047:13051   */\n      dup4\n        /* \"#utility.yul\":13043:13058   */\n      and\n        /* \"#utility.yul\":13033:13058   */\n      swap2\n      pop\n        /* \"#utility.yul\":12946:13064   */\n      pop\n        /* \"#utility.yul\":12895:13064   */\n      swap3\n      swap2\n      pop\n      pop\n      jump\t// out\n        /* \"#utility.yul\":13069:13364   */\n    tag_111:\n        /* \"#utility.yul\":13145:13149   */\n      0x00\n        /* \"#utility.yul\":13291:13320   */\n      tag_253\n        /* \"#utility.yul\":13316:13319   */\n      dup4\n        /* \"#utility.yul\":13310:13314   */\n      dup4\n        /* \"#utility.yul\":13291:13320   */\n      tag_110\n      jump\t// in\n    tag_253:\n        /* \"#utility.yul\":13283:13320   */\n      swap2\n      pop\n        /* \"#utility.yul\":13353:13356   */\n      dup3\n        /* \"#utility.yul\":13350:13351   */\n      0x02\n        /* \"#utility.yul\":13346:13357   */\n      mul\n        /* \"#utility.yul\":13340:13344   */\n      dup3\n        /* \"#utility.yul\":13337:13358   */\n      or\n        /* \"#utility.yul\":13329:13358   */\n      swap1\n      pop\n        /* \"#utility.yul\":13069:13364   */\n      swap3\n      swap2\n      pop\n      pop\n      jump\t// out\n        /* \"#utility.yul\":13369:14764   */\n    tag_36:\n        /* \"#utility.yul\":13486:13523   */\n      tag_255\n        /* \"#utility.yul\":13519:13522   */\n      dup3\n        /* \"#utility.yul\":13486:13523   */\n      tag_78\n      jump\t// in\n    tag_255:\n        /* \"#utility.yul\":13588:13606   */\n      0xffffffffffffffff\n        /* \"#utility.yul\":13580:13586   */\n      dup2\n        /* \"#utility.yul\":13577:13607   */\n      gt\n        /* \"#utility.yul\":13574:13630   */\n      iszero\n      tag_256\n      jumpi\n        /* \"#utility.yul\":13610:13628   */\n      tag_257\n      tag_71\n      jump\t// in\n    tag_257:\n        /* \"#utility.yul\":13574:13630   */\n    tag_256:\n        /* \"#utility.yul\":13654:13692   */\n      tag_258\n        /* \"#utility.yul\":13686:13690   */\n      dup3\n        /* \"#utility.yul\":13680:13691   */\n      sload\n        /* \"#utility.yul\":13654:13692   */\n      tag_41\n      jump\t// in\n    tag_258:\n        /* \"#utility.yul\":13739:13806   */\n      tag_259\n        /* \"#utility.yul\":13799:13805   */\n      dup3\n        /* \"#utility.yul\":13791:13797   */\n      dup3\n        /* \"#utility.yul\":13785:13789   */\n      dup6\n        /* \"#utility.yul\":13739:13806   */\n      tag_108\n      jump\t// in\n    tag_259:\n        /* \"#utility.yul\":13833:13834   */\n      0x00\n        /* \"#utility.yul\":13857:13861   */\n      0x20\n        /* \"#utility.yul\":13844:13861   */\n      swap1\n      pop\n        /* \"#utility.yul\":13889:13891   */\n      0x1f\n        /* \"#utility.yul\":13881:13887   */\n      dup4\n        /* \"#utility.yul\":13878:13892   */\n      gt\n        /* \"#utility.yul\":13906:13907   */\n      0x01\n        /* \"#utility.yul\":13901:14519   */\n      dup2\n      eq\n      tag_261\n      jumpi\n        /* \"#utility.yul\":14563:14564   */\n      0x00\n        /* \"#utility.yul\":14580:14586   */\n      dup5\n        /* \"#utility.yul\":14577:14654   */\n      iszero\n      tag_262\n      jumpi\n        /* \"#utility.yul\":14629:14638   */\n      dup3\n        /* \"#utility.yul\":14624:14627   */\n      dup8\n        /* \"#utility.yul\":14620:14639   */\n      add\n        /* \"#utility.yul\":14614:14640   */\n      mload\n        /* \"#utility.yul\":14605:14640   */\n      swap1\n      pop\n        /* \"#utility.yul\":14577:14654   */\n    tag_262:\n        /* \"#utility.yul\":14680:14747   */\n      tag_263\n        /* \"#utility.yul\":14740:14746   */\n      dup6\n        /* \"#utility.yul\":14733:14738   */\n      dup3\n        /* \"#utility.yul\":14680:14747   */\n      tag_111\n      jump\t// in\n    tag_263:\n        /* \"#utility.yul\":14674:14678   */\n      dup7\n        /* \"#utility.yul\":14667:14748   */\n      sstore\n        /* \"#utility.yul\":14536:14758   */\n      pop\n        /* \"#utility.yul\":13871:14758   */\n      jump(tag_260)\n        /* \"#utility.yul\":13901:14519   */\n    tag_261:\n        /* \"#utility.yul\":13953:13957   */\n      0x1f\n        /* \"#utility.yul\":13949:13958   */\n      not\n        /* \"#utility.yul\":13941:13947   */\n      dup5\n        /* \"#utility.yul\":13937:13959   */\n      and\n        /* \"#utility.yul\":13987:14024   */\n      tag_264\n        /* \"#utility.yul\":14019:14023   */\n      dup7\n        /* \"#utility.yul\":13987:14024   */\n      tag_97\n      jump\t// in\n    tag_264:\n        /* \"#utility.yul\":14046:14047   */\n      0x00\n        /* \"#utility.yul\":14060:14268   */\n    tag_265:\n        /* \"#utility.yul\":14074:14081   */\n      dup3\n        /* \"#utility.yul\":14071:14072   */\n      dup2\n        /* \"#utility.yul\":14068:14082   */\n      lt\n        /* \"#utility.yul\":14060:14268   */\n      iszero\n      tag_267\n      jumpi\n        /* \"#utility.yul\":14153:14162   */\n      dup5\n        /* \"#utility.yul\":14148:14151   */\n      dup10\n        /* \"#utility.yul\":14144:14163   */\n      add\n        /* \"#utility.yul\":14138:14164   */\n      mload\n        /* \"#utility.yul\":14130:14136   */\n      dup3\n        /* \"#utility.yul\":14123:14165   */\n      sstore\n        /* \"#utility.yul\":14204:14205   */\n      0x01\n        /* \"#utility.yul\":14196:14202   */\n      dup3\n        /* \"#utility.yul\":14192:14206   */\n      add\n        /* \"#utility.yul\":14182:14206   */\n      swap2\n      pop\n        /* \"#utility.yul\":14251:14253   */\n      0x20\n        /* \"#utility.yul\":14240:14249   */\n      dup6\n        /* \"#utility.yul\":14236:14254   */\n      add\n        /* \"#utility.yul\":14223:14254   */\n      swap5\n      pop\n        /* \"#utility.yul\":14097:14101   */\n      0x20\n        /* \"#utility.yul\":14094:14095   */\n      dup2\n        /* \"#utility.yul\":14090:14102   */\n      add\n        /* \"#utility.yul\":14085:14102   */\n      swap1\n      pop\n        /* \"#utility.yul\":14060:14268   */\n      jump(tag_265)\n    tag_267:\n        /* \"#utility.yul\":14296:14302   */\n      dup7\n        /* \"#utility.yul\":14287:14294   */\n      dup4\n        /* \"#utility.yul\":14284:14303   */\n      lt\n        /* \"#utility.yul\":14281:14460   */\n      iszero\n      tag_268\n      jumpi\n        /* \"#utility.yul\":14354:14363   */\n      dup5\n        /* \"#utility.yul\":14349:14352   */\n      dup10\n        /* \"#utility.yul\":14345:14364   */\n      add\n        /* \"#utility.yul\":14339:14365   */\n      mload\n        /* \"#utility.yul\":14397:14445   */\n      tag_269\n        /* \"#utility.yul\":14439:14443   */\n      0x1f\n        /* \"#utility.yul\":14431:14437   */\n      dup10\n        /* \"#utility.yul\":14427:14444   */\n      and\n        /* \"#utility.yul\":14416:14425   */\n      dup3\n        /* \"#utility.yul\":14397:14445   */\n      tag_110\n      jump\t// in\n    tag_269:\n        /* \"#utility.yul\":14389:14395   */\n      dup4\n        /* \"#utility.yul\":14382:14446   */\n      sstore\n        /* \"#utility.yul\":14304:14460   */\n      pop\n        /* \"#utility.yul\":14281:14460   */\n    tag_268:\n        /* \"#utility.yul\":14506:14507   */\n      0x01\n        /* \"#utility.yul\":14502:14503   */\n      0x02\n        /* \"#utility.yul\":14494:14500   */\n      dup9\n        /* \"#utility.yul\":14490:14504   */\n      mul\n        /* \"#utility.yul\":14486:14508   */\n      add\n        /* \"#utility.yul\":14480:14484   */\n      dup9\n        /* \"#utility.yul\":14473:14509   */\n      sstore\n        /* \"#utility.yul\":13908:14519   */\n      pop\n      pop\n      pop\n        /* \"#utility.yul\":13871:14758   */\n    tag_260:\n      pop\n        /* \"#utility.yul\":13461:14764   */\n      pop\n      pop\n      pop\n        /* \"#utility.yul\":13369:14764   */\n      pop\n      pop\n      jump\t// out\n        /* \"#utility.yul\":14770:14918   */\n    tag_112:\n        /* \"#utility.yul\":14872:14883   */\n      0x00\n        /* \"#utility.yul\":14909:14912   */\n      dup2\n        /* \"#utility.yul\":14894:14912   */\n      swap1\n      pop\n        /* \"#utility.yul\":14770:14918   */\n      swap3\n      swap2\n      pop\n      pop\n      jump\t// out\n        /* \"#utility.yul\":14948:15822   */\n    tag_113:\n        /* \"#utility.yul\":15051:15054   */\n      0x00\n        /* \"#utility.yul\":15088:15093   */\n      dup2\n        /* \"#utility.yul\":15082:15094   */\n      sload\n        /* \"#utility.yul\":15117:15153   */\n      tag_272\n        /* \"#utility.yul\":15143:15152   */\n      dup2\n        /* \"#utility.yul\":15117:15153   */\n      tag_41\n      jump\t// in\n    tag_272:\n        /* \"#utility.yul\":15169:15258   */\n      tag_273\n        /* \"#utility.yul\":15251:15257   */\n      dup2\n        /* \"#utility.yul\":15246:15249   */\n      dup7\n        /* \"#utility.yul\":15169:15258   */\n      tag_112\n      jump\t// in\n    tag_273:\n        /* \"#utility.yul\":15162:15258   */\n      swap5\n      pop\n        /* \"#utility.yul\":15289:15290   */\n      0x01\n        /* \"#utility.yul\":15278:15287   */\n      dup3\n        /* \"#utility.yul\":15274:15291   */\n      and\n        /* \"#utility.yul\":15305:15306   */\n      0x00\n        /* \"#utility.yul\":15300:15466   */\n      dup2\n      eq\n      tag_275\n      jumpi\n        /* \"#utility.yul\":15480:15481   */\n      0x01\n        /* \"#utility.yul\":15475:15816   */\n      dup2\n      eq\n      tag_276\n      jumpi\n        /* \"#utility.yul\":15267:15816   */\n      jump(tag_274)\n        /* \"#utility.yul\":15300:15466   */\n    tag_275:\n        /* \"#utility.yul\":15384:15388   */\n      0xff\n        /* \"#utility.yul\":15380:15389   */\n      not\n        /* \"#utility.yul\":15369:15378   */\n      dup4\n        /* \"#utility.yul\":15365:15390   */\n      and\n        /* \"#utility.yul\":15360:15363   */\n      dup7\n        /* \"#utility.yul\":15353:15391   */\n      mstore\n        /* \"#utility.yul\":15446:15452   */\n      dup2\n        /* \"#utility.yul\":15439:15453   */\n      iszero\n        /* \"#utility.yul\":15432:15454   */\n      iszero\n        /* \"#utility.yul\":15424:15430   */\n      dup3\n        /* \"#utility.yul\":15420:15455   */\n      mul\n        /* \"#utility.yul\":15415:15418   */\n      dup7\n        /* \"#utility.yul\":15411:15456   */\n      add\n        /* \"#utility.yul\":15404:15456   */\n      swap4\n      pop\n        /* \"#utility.yul\":15300:15466   */\n      jump(tag_274)\n        /* \"#utility.yul\":15475:15816   */\n    tag_276:\n        /* \"#utility.yul\":15542:15580   */\n      tag_277\n        /* \"#utility.yul\":15574:15579   */\n      dup6\n        /* \"#utility.yul\":15542:15580   */\n      tag_97\n      jump\t// in\n    tag_277:\n        /* \"#utility.yul\":15602:15603   */\n      0x00\n        /* \"#utility.yul\":15616:15770   */\n    tag_278:\n        /* \"#utility.yul\":15630:15636   */\n      dup4\n        /* \"#utility.yul\":15627:15628   */\n      dup2\n        /* \"#utility.yul\":15624:15637   */\n      lt\n        /* \"#utility.yul\":15616:15770   */\n      iszero\n      tag_280\n      jumpi\n        /* \"#utility.yul\":15704:15711   */\n      dup2\n        /* \"#utility.yul\":15698:15712   */\n      sload\n        /* \"#utility.yul\":15694:15695   */\n      dup2\n        /* \"#utility.yul\":15689:15692   */\n      dup10\n        /* \"#utility.yul\":15685:15696   */\n      add\n        /* \"#utility.yul\":15678:15713   */\n      mstore\n        /* \"#utility.yul\":15754:15755   */\n      0x01\n        /* \"#utility.yul\":15745:15752   */\n      dup3\n        /* \"#utility.yul\":15741:15756   */\n      add\n        /* \"#utility.yul\":15730:15756   */\n      swap2\n      pop\n        /* \"#utility.yul\":15652:15656   */\n      0x20\n        /* \"#utility.yul\":15649:15650   */\n      dup2\n        /* \"#utility.yul\":15645:15657   */\n      add\n        /* \"#utility.yul\":15640:15657   */\n      swap1\n      pop\n        /* \"#utility.yul\":15616:15770   */\n      jump(tag_278)\n    tag_280:\n        /* \"#utility.yul\":15799:15805   */\n      dup4\n        /* \"#utility.yul\":15794:15797   */\n      dup9\n        /* \"#utility.yul\":15790:15806   */\n      add\n        /* \"#utility.yul\":15783:15806   */\n      swap6\n      pop\n        /* \"#utility.yul\":15482:15816   */\n      pop\n      pop\n        /* \"#utility.yul\":15267:15816   */\n    tag_274:\n      pop\n        /* \"#utility.yul\":15055:15822   */\n      pop\n      pop\n        /* \"#utility.yul\":14948:15822   */\n      swap3\n      swap2\n      pop\n      pop\n      jump\t// out\n        /* \"#utility.yul\":15828:15985   */\n    tag_114:\n        /* \"#utility.yul\":15968:15977   */\n      0x20434f4241203100000000000000000000000000000000000000000000000000\n        /* \"#utility.yul\":15964:15965   */\n      0x00\n        /* \"#utility.yul\":15956:15962   */\n      dup3\n        /* \"#utility.yul\":15952:15966   */\n      add\n        /* \"#utility.yul\":15945:15978   */\n      mstore\n        /* \"#utility.yul\":15828:15985   */\n      pop\n      jump\t// out\n        /* \"#utility.yul\":15991:16391   */\n    tag_115:\n        /* \"#utility.yul\":16151:16154   */\n      0x00\n        /* \"#utility.yul\":16172:16256   */\n      tag_283\n        /* \"#utility.yul\":16254:16255   */\n      0x07\n        /* \"#utility.yul\":16249:16252   */\n      dup4\n        /* \"#utility.yul\":16172:16256   */\n      tag_112\n      jump\t// in\n    tag_283:\n        /* \"#utility.yul\":16165:16256   */\n      swap2\n      pop\n        /* \"#utility.yul\":16265:16358   */\n      tag_284\n        /* \"#utility.yul\":16354:16357   */\n      dup3\n        /* \"#utility.yul\":16265:16358   */\n      tag_114\n      jump\t// in\n    tag_284:\n        /* \"#utility.yul\":16383:16384   */\n      0x07\n        /* \"#utility.yul\":16378:16381   */\n      dup3\n        /* \"#utility.yul\":16374:16385   */\n      add\n        /* \"#utility.yul\":16367:16385   */\n      swap1\n      pop\n        /* \"#utility.yul\":15991:16391   */\n      swap2\n      swap1\n      pop\n      jump\t// out\n        /* \"#utility.yul\":16397:16932   */\n    tag_39:\n        /* \"#utility.yul\":16627:16630   */\n      0x00\n        /* \"#utility.yul\":16649:16741   */\n      tag_286\n        /* \"#utility.yul\":16737:16740   */\n      dup3\n        /* \"#utility.yul\":16728:16734   */\n      dup5\n        /* \"#utility.yul\":16649:16741   */\n      tag_113\n      jump\t// in\n    tag_286:\n        /* \"#utility.yul\":16642:16741   */\n      swap2\n      pop\n        /* \"#utility.yul\":16758:16906   */\n      tag_287\n        /* \"#utility.yul\":16902:16905   */\n      dup3\n        /* \"#utility.yul\":16758:16906   */\n      tag_115\n      jump\t// in\n    tag_287:\n        /* \"#utility.yul\":16751:16906   */\n      swap2\n      pop\n        /* \"#utility.yul\":16923:16926   */\n      dup2\n        /* \"#utility.yul\":16916:16926   */\n      swap1\n      pop\n        /* \"#utility.yul\":16397:16932   */\n      swap3\n      swap2\n      pop\n      pop\n      jump\t// out\n\n    auxdata: 0xa26469706673582212202fa6a5affa0eef412caf9ff68fdc78f5b969cfc255d8ce81d61941a4cc381bbb64736f6c634300081c0033\n}\n",
				"bytecode": {
					"linkReferences": {},
					"object": "60806040526040518060400160405280600c81526020017f68656c6c6f20576f726c642100000000000000000000000000000000000000008152505f90816100479190610296565b50348015610053575f5ffd5b50610365565b5f81519050919050565b7f4e487b71000000000000000000000000000000000000000000000000000000005f52604160045260245ffd5b7f4e487b71000000000000000000000000000000000000000000000000000000005f52602260045260245ffd5b5f60028204905060018216806100d457607f821691505b6020821081036100e7576100e6610090565b5b50919050565b5f819050815f5260205f209050919050565b5f6020601f8301049050919050565b5f82821b905092915050565b5f600883026101497fffffffffffffffffffffffffffffffffffffffffffffffffffffffffffffffff8261010e565b610153868361010e565b95508019841693508086168417925050509392505050565b5f819050919050565b5f819050919050565b5f61019761019261018d8461016b565b610174565b61016b565b9050919050565b5f819050919050565b6101b08361017d565b6101c46101bc8261019e565b84845461011a565b825550505050565b5f5f905090565b6101db6101cc565b6101e68184846101a7565b505050565b5b81811015610209576101fe5f826101d3565b6001810190506101ec565b5050565b601f82111561024e5761021f816100ed565b610228846100ff565b81016020851015610237578190505b61024b610243856100ff565b8301826101eb565b50505b505050565b5f82821c905092915050565b5f61026e5f1984600802610253565b1980831691505092915050565b5f610286838361025f565b9150826002028217905092915050565b61029f82610059565b67ffffffffffffffff8111156102b8576102b7610063565b5b6102c282546100bd565b6102cd82828561020d565b5f60209050601f8311600181146102fe575f84156102ec578287015190505b6102f6858261027b565b86555061035d565b601f19841661030c866100ed565b5f5b828110156103335784890151825560018201915060208501945060208101905061030e565b86831015610350578489015161034c601f89168261025f565b8355505b6001600288020188555050505b505050505050565b610c62806103725f395ff3fe608060405234801561000f575f5ffd5b5060043610610060575f3560e01c8063131a0680146100645780632e64cec1146100805780632f64d3861461009e5780636f760f41146100bc57806385a26d7d146100d85780639e7a13ad146100f6575b5f5ffd5b61007e60048036038101906100799190610543565b610127565b005b610088610139565b60405161009591906105ea565b60405180910390f35b6100a6610160565b6040516100b391906105ea565b60405180910390f35b6100d660048036038101906100d1919061063d565b6101eb565b005b6100e061024c565b6040516100ed91906107e3565b60405180910390f35b610110600480360381019061010b9190610803565b610341565b60405161011e92919061083d565b60405180910390f35b805f90816101359190610a68565b5050565b60605f60405160200161014c9190610c0b565b604051602081830303815290604052905090565b5f805461016c90610898565b80601f016020809104026020016040519081016040528092919081815260200182805461019890610898565b80156101e35780601f106101ba576101008083540402835291602001916101e3565b820191905f5260205f20905b8154815290600101906020018083116101c657829003601f168201915b505050505081565b6001604051806040016040528084815260200183815250908060018154018082558091505060019003905f5260205f2090600202015f909190919091505f820151815f01908161023b9190610a68565b506020820151816001015550505050565b60606001805480602002602001604051908101604052809291908181526020015f905b82821015610338578382905f5260205f2090600202016040518060400160405290815f8201805461029f90610898565b80601f01602080910402602001604051908101604052809291908181526020018280546102cb90610898565b80156103165780601f106102ed57610100808354040283529160200191610316565b820191905f5260205f20905b8154815290600101906020018083116102f957829003601f168201915b505050505081526020016001820154815250508152602001906001019061026f565b50505050905090565b60018181548110610350575f80fd5b905f5260205f2090600202015f91509050805f01805461036f90610898565b80601f016020809104026020016040519081016040528092919081815260200182805461039b90610898565b80156103e65780601f106103bd576101008083540402835291602001916103e6565b820191905f5260205f20905b8154815290600101906020018083116103c957829003601f168201915b5050505050908060010154905082565b5f604051905090565b5f5ffd5b5f5ffd5b5f5ffd5b5f5ffd5b5f601f19601f8301169050919050565b7f4e487b71000000000000000000000000000000000000000000000000000000005f52604160045260245ffd5b6104558261040f565b810181811067ffffffffffffffff821117156104745761047361041f565b5b80604052505050565b5f6104866103f6565b9050610492828261044c565b919050565b5f67ffffffffffffffff8211156104b1576104b061041f565b5b6104ba8261040f565b9050602081019050919050565b828183375f83830152505050565b5f6104e76104e284610497565b61047d565b9050828152602081018484840111156105035761050261040b565b5b61050e8482856104c7565b509392505050565b5f82601f83011261052a57610529610407565b5b813561053a8482602086016104d5565b91505092915050565b5f60208284031215610558576105576103ff565b5b5f82013567ffffffffffffffff81111561057557610574610403565b5b61058184828501610516565b91505092915050565b5f81519050919050565b5f82825260208201905092915050565b8281835e5f83830152505050565b5f6105bc8261058a565b6105c68185610594565b93506105d68185602086016105a4565b6105df8161040f565b840191505092915050565b5f6020820190508181035f83015261060281846105b2565b905092915050565b5f819050919050565b61061c8161060a565b8114610626575f5ffd5b50565b5f8135905061063781610613565b92915050565b5f5f60408385031215610653576106526103ff565b5b5f83013567ffffffffffffffff8111156106705761066f610403565b5b61067c85828601610516565b925050602061068d85828601610629565b9150509250929050565b5f81519050919050565b5f82825260208201905092915050565b5f819050602082019050919050565b5f82825260208201905092915050565b5f6106da8261058a565b6106e481856106c0565b93506106f48185602086016105a4565b6106fd8161040f565b840191505092915050565b6107118161060a565b82525050565b5f604083015f8301518482035f86015261073182826106d0565b91505060208301516107466020860182610708565b508091505092915050565b5f61075c8383610717565b905092915050565b5f602082019050919050565b5f61077a82610697565b61078481856106a1565b935083602082028501610796856106b1565b805f5b858110156107d157848403895281516107b28582610751565b94506107bd83610764565b925060208a01995050600181019050610799565b50829750879550505050505092915050565b5f6020820190508181035f8301526107fb8184610770565b905092915050565b5f60208284031215610818576108176103ff565b5b5f61082584828501610629565b91505092915050565b6108378161060a565b82525050565b5f6040820190508181035f83015261085581856105b2565b9050610864602083018461082e565b9392505050565b7f4e487b71000000000000000000000000000000000000000000000000000000005f52602260045260245ffd5b5f60028204905060018216806108af57607f821691505b6020821081036108c2576108c161086b565b5b50919050565b5f819050815f5260205f209050919050565b5f6020601f8301049050919050565b5f82821b905092915050565b5f600883026109247fffffffffffffffffffffffffffffffffffffffffffffffffffffffffffffffff826108e9565b61092e86836108e9565b95508019841693508086168417925050509392505050565b5f819050919050565b5f61096961096461095f8461060a565b610946565b61060a565b9050919050565b5f819050919050565b6109828361094f565b61099661098e82610970565b8484546108f5565b825550505050565b5f5f905090565b6109ad61099e565b6109b8818484610979565b505050565b5b818110156109db576109d05f826109a5565b6001810190506109be565b5050565b601f821115610a20576109f1816108c8565b6109fa846108da565b81016020851015610a09578190505b610a1d610a15856108da565b8301826109bd565b50505b505050565b5f82821c905092915050565b5f610a405f1984600802610a25565b1980831691505092915050565b5f610a588383610a31565b9150826002028217905092915050565b610a718261058a565b67ffffffffffffffff811115610a8a57610a8961041f565b5b610a948254610898565b610a9f8282856109df565b5f60209050601f831160018114610ad0575f8415610abe578287015190505b610ac88582610a4d565b865550610b2f565b601f198416610ade866108c8565b5f5b82811015610b0557848901518255600182019150602085019450602081019050610ae0565b86831015610b225784890151610b1e601f891682610a31565b8355505b6001600288020188555050505b505050505050565b5f81905092915050565b5f8154610b4d81610898565b610b578186610b37565b9450600182165f8114610b715760018114610b8657610bb8565b60ff1983168652811515820286019350610bb8565b610b8f856108c8565b5f5b83811015610bb057815481890152600182019150602081019050610b91565b838801955050505b50505092915050565b7f20434f42412031000000000000000000000000000000000000000000000000005f82015250565b5f610bf5600783610b37565b9150610c0082610bc1565b600782019050919050565b5f610c168284610b41565b9150610c2182610be9565b91508190509291505056fea26469706673582212202fa6a5affa0eef412caf9ff68fdc78f5b969cfc255d8ce81d61941a4cc381bbb64736f6c634300081c0033",
					"opcodes": "PUSH1 0x80 PUSH1 0x40 MSTORE PUSH1 0x40 MLOAD DUP1 PUSH1 0x40 ADD PUSH1 0x40 MSTORE DUP1 PUSH1 0xC DUP2 MSTORE PUSH1 0x20 ADD PUSH32 0x68656C6C6F20576F726C64210000000000000000000000000000000000000000 DUP2 MSTORE POP PUSH0 SWAP1 DUP2 PUSH2 0x47 SWAP2 SWAP1 PUSH2 0x296 JUMP JUMPDEST POP CALLVALUE DUP1 ISZERO PUSH2 0x53 JUMPI PUSH0 PUSH0 REVERT JUMPDEST POP PUSH2 0x365 JUMP JUMPDEST PUSH0 DUP2 MLOAD SWAP1 POP SWAP2 SWAP1 POP JUMP JUMPDEST PUSH32 0x4E487B7100000000000000000000000000000000000000000000000000000000 PUSH0 MSTORE PUSH1 0x41 PUSH1 0x4 MSTORE PUSH1 0x24 PUSH0 REVERT JUMPDEST PUSH32 0x4E487B7100000000000000000000000000000000000000000000000000000000 PUSH0 MSTORE PUSH1 0x22 PUSH1 0x4 MSTORE PUSH1 0x24 PUSH0 REVERT JUMPDEST PUSH0 PUSH1 0x2 DUP3 DIV SWAP1 POP PUSH1 0x1 DUP3 AND DUP1 PUSH2 0xD4 JUMPI PUSH1 0x7F DUP3 AND SWAP2 POP JUMPDEST PUSH1 0x20 DUP3 LT DUP2 SUB PUSH2 0xE7 JUMPI PUSH2 0xE6 PUSH2 0x90 JUMP JUMPDEST JUMPDEST POP SWAP2 SWAP1 POP JUMP JUMPDEST PUSH0 DUP2 SWAP1 POP DUP2 PUSH0 MSTORE PUSH1 0x20 PUSH0 KECCAK256 SWAP1 POP SWAP2 SWAP1 POP JUMP JUMPDEST PUSH0 PUSH1 0x20 PUSH1 0x1F DUP4 ADD DIV SWAP1 POP SWAP2 SWAP1 POP JUMP JUMPDEST PUSH0 DUP3 DUP3 SHL SWAP1 POP SWAP3 SWAP2 POP POP JUMP JUMPDEST PUSH0 PUSH1 0x8 DUP4 MUL PUSH2 0x149 PUSH32 0xFFFFFFFFFFFFFFFFFFFFFFFFFFFFFFFFFFFFFFFFFFFFFFFFFFFFFFFFFFFFFFFF DUP3 PUSH2 0x10E JUMP JUMPDEST PUSH2 0x153 DUP7 DUP4 PUSH2 0x10E JUMP JUMPDEST SWAP6 POP DUP1 NOT DUP5 AND SWAP4 POP DUP1 DUP7 AND DUP5 OR SWAP3 POP POP POP SWAP4 SWAP3 POP POP POP JUMP JUMPDEST PUSH0 DUP2 SWAP1 POP SWAP2 SWAP1 POP JUMP JUMPDEST PUSH0 DUP2 SWAP1 POP SWAP2 SWAP1 POP JUMP JUMPDEST PUSH0 PUSH2 0x197 PUSH2 0x192 PUSH2 0x18D DUP5 PUSH2 0x16B JUMP JUMPDEST PUSH2 0x174 JUMP JUMPDEST PUSH2 0x16B JUMP JUMPDEST SWAP1 POP SWAP2 SWAP1 POP JUMP JUMPDEST PUSH0 DUP2 SWAP1 POP SWAP2 SWAP1 POP JUMP JUMPDEST PUSH2 0x1B0 DUP4 PUSH2 0x17D JUMP JUMPDEST PUSH2 0x1C4 PUSH2 0x1BC DUP3 PUSH2 0x19E JUMP JUMPDEST DUP5 DUP5 SLOAD PUSH2 0x11A JUMP JUMPDEST DUP3 SSTORE POP POP POP POP JUMP JUMPDEST PUSH0 PUSH0 SWAP1 POP SWAP1 JUMP JUMPDEST PUSH2 0x1DB PUSH2 0x1CC JUMP JUMPDEST PUSH2 0x1E6 DUP2 DUP5 DUP5 PUSH2 0x1A7 JUMP JUMPDEST POP POP POP JUMP JUMPDEST JUMPDEST DUP2 DUP2 LT ISZERO PUSH2 0x209 JUMPI PUSH2 0x1FE PUSH0 DUP3 PUSH2 0x1D3 JUMP JUMPDEST PUSH1 0x1 DUP2 ADD SWAP1 POP PUSH2 0x1EC JUMP JUMPDEST POP POP JUMP JUMPDEST PUSH1 0x1F DUP3 GT ISZERO PUSH2 0x24E JUMPI PUSH2 0x21F DUP2 PUSH2 0xED JUMP JUMPDEST PUSH2 0x228 DUP5 PUSH2 0xFF JUMP JUMPDEST DUP2 ADD PUSH1 0x20 DUP6 LT ISZERO PUSH2 0x237 JUMPI DUP2 SWAP1 POP JUMPDEST PUSH2 0x24B PUSH2 0x243 DUP6 PUSH2 0xFF JUMP JUMPDEST DUP4 ADD DUP3 PUSH2 0x1EB JUMP JUMPDEST POP POP JUMPDEST POP POP POP JUMP JUMPDEST PUSH0 DUP3 DUP3 SHR SWAP1 POP SWAP3 SWAP2 POP POP JUMP JUMPDEST PUSH0 PUSH2 0x26E PUSH0 NOT DUP5 PUSH1 0x8 MUL PUSH2 0x253 JUMP JUMPDEST NOT DUP1 DUP4 AND SWAP2 POP POP SWAP3 SWAP2 POP POP JUMP JUMPDEST PUSH0 PUSH2 0x286 DUP4 DUP4 PUSH2 0x25F JUMP JUMPDEST SWAP2 POP DUP3 PUSH1 0x2 MUL DUP3 OR SWAP1 POP SWAP3 SWAP2 POP POP JUMP JUMPDEST PUSH2 0x29F DUP3 PUSH2 0x59 JUMP JUMPDEST PUSH8 0xFFFFFFFFFFFFFFFF DUP2 GT ISZERO PUSH2 0x2B8 JUMPI PUSH2 0x2B7 PUSH2 0x63 JUMP JUMPDEST JUMPDEST PUSH2 0x2C2 DUP3 SLOAD PUSH2 0xBD JUMP JUMPDEST PUSH2 0x2CD DUP3 DUP3 DUP6 PUSH2 0x20D JUMP JUMPDEST PUSH0 PUSH1 0x20 SWAP1 POP PUSH1 0x1F DUP4 GT PUSH1 0x1 DUP2 EQ PUSH2 0x2FE JUMPI PUSH0 DUP5 ISZERO PUSH2 0x2EC JUMPI DUP3 DUP8 ADD MLOAD SWAP1 POP JUMPDEST PUSH2 0x2F6 DUP6 DUP3 PUSH2 0x27B JUMP JUMPDEST DUP7 SSTORE POP PUSH2 0x35D JUMP JUMPDEST PUSH1 0x1F NOT DUP5 AND PUSH2 0x30C DUP7 PUSH2 0xED JUMP JUMPDEST PUSH0 JUMPDEST DUP3 DUP2 LT ISZERO PUSH2 0x333 JUMPI DUP5 DUP10 ADD MLOAD DUP3 SSTORE PUSH1 0x1 DUP3 ADD SWAP2 POP PUSH1 0x20 DUP6 ADD SWAP5 POP PUSH1 0x20 DUP2 ADD SWAP1 POP PUSH2 0x30E JUMP JUMPDEST DUP7 DUP4 LT ISZERO PUSH2 0x350 JUMPI DUP5 DUP10 ADD MLOAD PUSH2 0x34C PUSH1 0x1F DUP10 AND DUP3 PUSH2 0x25F JUMP JUMPDEST DUP4 SSTORE POP JUMPDEST PUSH1 0x1 PUSH1 0x2 DUP9 MUL ADD DUP9 SSTORE POP POP POP JUMPDEST POP POP POP POP POP POP JUMP JUMPDEST PUSH2 0xC62 DUP1 PUSH2 0x372 PUSH0 CODECOPY PUSH0 RETURN INVALID PUSH1 0x80 PUSH1 0x40 MSTORE CALLVALUE DUP1 ISZERO PUSH2 0xF JUMPI PUSH0 PUSH0 REVERT JUMPDEST POP PUSH1 0x4 CALLDATASIZE LT PUSH2 0x60 JUMPI PUSH0 CALLDATALOAD PUSH1 0xE0 SHR DUP1 PUSH4 0x131A0680 EQ PUSH2 0x64 JUMPI DUP1 PUSH4 0x2E64CEC1 EQ PUSH2 0x80 JUMPI DUP1 PUSH4 0x2F64D386 EQ PUSH2 0x9E JUMPI DUP1 PUSH4 0x6F760F41 EQ PUSH2 0xBC JUMPI DUP1 PUSH4 0x85A26D7D EQ PUSH2 0xD8 JUMPI DUP1 PUSH4 0x9E7A13AD EQ PUSH2 0xF6 JUMPI JUMPDEST PUSH0 PUSH0 REVERT JUMPDEST PUSH2 0x7E PUSH1 0x4 DUP1 CALLDATASIZE SUB DUP2 ADD SWAP1 PUSH2 0x79 SWAP2 SWAP1 PUSH2 0x543 JUMP JUMPDEST PUSH2 0x127 JUMP JUMPDEST STOP JUMPDEST PUSH2 0x88 PUSH2 0x139 JUMP JUMPDEST PUSH1 0x40 MLOAD PUSH2 0x95 SWAP2 SWAP1 PUSH2 0x5EA JUMP JUMPDEST PUSH1 0x40 MLOAD DUP1 SWAP2 SUB SWAP1 RETURN JUMPDEST PUSH2 0xA6 PUSH2 0x160 JUMP JUMPDEST PUSH1 0x40 MLOAD PUSH2 0xB3 SWAP2 SWAP1 PUSH2 0x5EA JUMP JUMPDEST PUSH1 0x40 MLOAD DUP1 SWAP2 SUB SWAP1 RETURN JUMPDEST PUSH2 0xD6 PUSH1 0x4 DUP1 CALLDATASIZE SUB DUP2 ADD SWAP1 PUSH2 0xD1 SWAP2 SWAP1 PUSH2 0x63D JUMP JUMPDEST PUSH2 0x1EB JUMP JUMPDEST STOP JUMPDEST PUSH2 0xE0 PUSH2 0x24C JUMP JUMPDEST PUSH1 0x40 MLOAD PUSH2 0xED SWAP2 SWAP1 PUSH2 0x7E3 JUMP JUMPDEST PUSH1 0x40 MLOAD DUP1 SWAP2 SUB SWAP1 RETURN JUMPDEST PUSH2 0x110 PUSH1 0x4 DUP1 CALLDATASIZE SUB DUP2 ADD SWAP1 PUSH2 0x10B SWAP2 SWAP1 PUSH2 0x803 JUMP JUMPDEST PUSH2 0x341 JUMP JUMPDEST PUSH1 0x40 MLOAD PUSH2 0x11E SWAP3 SWAP2 SWAP1 PUSH2 0x83D JUMP JUMPDEST PUSH1 0x40 MLOAD DUP1 SWAP2 SUB SWAP1 RETURN JUMPDEST DUP1 PUSH0 SWAP1 DUP2 PUSH2 0x135 SWAP2 SWAP1 PUSH2 0xA68 JUMP JUMPDEST POP POP JUMP JUMPDEST PUSH1 0x60 PUSH0 PUSH1 0x40 MLOAD PUSH1 0x20 ADD PUSH2 0x14C SWAP2 SWAP1 PUSH2 0xC0B JUMP JUMPDEST PUSH1 0x40 MLOAD PUSH1 0x20 DUP2 DUP4 SUB SUB DUP2 MSTORE SWAP1 PUSH1 0x40 MSTORE SWAP1 POP SWAP1 JUMP JUMPDEST PUSH0 DUP1 SLOAD PUSH2 0x16C SWAP1 PUSH2 0x898 JUMP JUMPDEST DUP1 PUSH1 0x1F ADD PUSH1 0x20 DUP1 SWAP2 DIV MUL PUSH1 0x20 ADD PUSH1 0x40 MLOAD SWAP1 DUP2 ADD PUSH1 0x40 MSTORE DUP1 SWAP3 SWAP2 SWAP1 DUP2 DUP2 MSTORE PUSH1 0x20 ADD DUP3 DUP1 SLOAD PUSH2 0x198 SWAP1 PUSH2 0x898 JUMP JUMPDEST DUP1 ISZERO PUSH2 0x1E3 JUMPI DUP1 PUSH1 0x1F LT PUSH2 0x1BA JUMPI PUSH2 0x100 DUP1 DUP4 SLOAD DIV MUL DUP4 MSTORE SWAP2 PUSH1 0x20 ADD SWAP2 PUSH2 0x1E3 JUMP JUMPDEST DUP3 ADD SWAP2 SWAP1 PUSH0 MSTORE PUSH1 0x20 PUSH0 KECCAK256 SWAP1 JUMPDEST DUP2 SLOAD DUP2 MSTORE SWAP1 PUSH1 0x1 ADD SWAP1 PUSH1 0x20 ADD DUP1 DUP4 GT PUSH2 0x1C6 JUMPI DUP3 SWAP1 SUB PUSH1 0x1F AND DUP3 ADD SWAP2 JUMPDEST POP POP POP POP POP DUP2 JUMP JUMPDEST PUSH1 0x1 PUSH1 0x40 MLOAD DUP1 PUSH1 0x40 ADD PUSH1 0x40 MSTORE DUP1 DUP5 DUP2 MSTORE PUSH1 0x20 ADD DUP4 DUP2 MSTORE POP SWAP1 DUP1 PUSH1 0x1 DUP2 SLOAD ADD DUP1 DUP3 SSTORE DUP1 SWAP2 POP POP PUSH1 0x1 SWAP1 SUB SWAP1 PUSH0 MSTORE PUSH1 0x20 PUSH0 KECCAK256 SWAP1 PUSH1 0x2 MUL ADD PUSH0 SWAP1 SWAP2 SWAP1 SWAP2 SWAP1 SWAP2 POP PUSH0 DUP3 ADD MLOAD DUP2 PUSH0 ADD SWAP1 DUP2 PUSH2 0x23B SWAP2 SWAP1 PUSH2 0xA68 JUMP JUMPDEST POP PUSH1 0x20 DUP3 ADD MLOAD DUP2 PUSH1 0x1 ADD SSTORE POP POP POP POP JUMP JUMPDEST PUSH1 0x60 PUSH1 0x1 DUP1 SLOAD DUP1 PUSH1 0x20 MUL PUSH1 0x20 ADD PUSH1 0x40 MLOAD SWAP1 DUP2 ADD PUSH1 0x40 MSTORE DUP1 SWAP3 SWAP2 SWAP1 DUP2 DUP2 MSTORE PUSH1 0x20 ADD PUSH0 SWAP1 JUMPDEST DUP3 DUP3 LT ISZERO PUSH2 0x338 JUMPI DUP4 DUP3 SWAP1 PUSH0 MSTORE PUSH1 0x20 PUSH0 KECCAK256 SWAP1 PUSH1 0x2 MUL ADD PUSH1 0x40 MLOAD DUP1 PUSH1 0x40 ADD PUSH1 0x40 MSTORE SWAP1 DUP2 PUSH0 DUP3 ADD DUP1 SLOAD PUSH2 0x29F SWAP1 PUSH2 0x898 JUMP JUMPDEST DUP1 PUSH1 0x1F ADD PUSH1 0x20 DUP1 SWAP2 DIV MUL PUSH1 0x20 ADD PUSH1 0x40 MLOAD SWAP1 DUP2 ADD PUSH1 0x40 MSTORE DUP1 SWAP3 SWAP2 SWAP1 DUP2 DUP2 MSTORE PUSH1 0x20 ADD DUP3 DUP1 SLOAD PUSH2 0x2CB SWAP1 PUSH2 0x898 JUMP JUMPDEST DUP1 ISZERO PUSH2 0x316 JUMPI DUP1 PUSH1 0x1F LT PUSH2 0x2ED JUMPI PUSH2 0x100 DUP1 DUP4 SLOAD DIV MUL DUP4 MSTORE SWAP2 PUSH1 0x20 ADD SWAP2 PUSH2 0x316 JUMP JUMPDEST DUP3 ADD SWAP2 SWAP1 PUSH0 MSTORE PUSH1 0x20 PUSH0 KECCAK256 SWAP1 JUMPDEST DUP2 SLOAD DUP2 MSTORE SWAP1 PUSH1 0x1 ADD SWAP1 PUSH1 0x20 ADD DUP1 DUP4 GT PUSH2 0x2F9 JUMPI DUP3 SWAP1 SUB PUSH1 0x1F AND DUP3 ADD SWAP2 JUMPDEST POP POP POP POP POP DUP2 MSTORE PUSH1 0x20 ADD PUSH1 0x1 DUP3 ADD SLOAD DUP2 MSTORE POP POP DUP2 MSTORE PUSH1 0x20 ADD SWAP1 PUSH1 0x1 ADD SWAP1 PUSH2 0x26F JUMP JUMPDEST POP POP POP POP SWAP1 POP SWAP1 JUMP JUMPDEST PUSH1 0x1 DUP2 DUP2 SLOAD DUP2 LT PUSH2 0x350 JUMPI PUSH0 DUP1 REVERT JUMPDEST SWAP1 PUSH0 MSTORE PUSH1 0x20 PUSH0 KECCAK256 SWAP1 PUSH1 0x2 MUL ADD PUSH0 SWAP2 POP SWAP1 POP DUP1 PUSH0 ADD DUP1 SLOAD PUSH2 0x36F SWAP1 PUSH2 0x898 JUMP JUMPDEST DUP1 PUSH1 0x1F ADD PUSH1 0x20 DUP1 SWAP2 DIV MUL PUSH1 0x20 ADD PUSH1 0x40 MLOAD SWAP1 DUP2 ADD PUSH1 0x40 MSTORE DUP1 SWAP3 SWAP2 SWAP1 DUP2 DUP2 MSTORE PUSH1 0x20 ADD DUP3 DUP1 SLOAD PUSH2 0x39B SWAP1 PUSH2 0x898 JUMP JUMPDEST DUP1 ISZERO PUSH2 0x3E6 JUMPI DUP1 PUSH1 0x1F LT PUSH2 0x3BD JUMPI PUSH2 0x100 DUP1 DUP4 SLOAD DIV MUL DUP4 MSTORE SWAP2 PUSH1 0x20 ADD SWAP2 PUSH2 0x3E6 JUMP JUMPDEST DUP3 ADD SWAP2 SWAP1 PUSH0 MSTORE PUSH1 0x20 PUSH0 KECCAK256 SWAP1 JUMPDEST DUP2 SLOAD DUP2 MSTORE SWAP1 PUSH1 0x1 ADD SWAP1 PUSH1 0x20 ADD DUP1 DUP4 GT PUSH2 0x3C9 JUMPI DUP3 SWAP1 SUB PUSH1 0x1F AND DUP3 ADD SWAP2 JUMPDEST POP POP POP POP POP SWAP1 DUP1 PUSH1 0x1 ADD SLOAD SWAP1 POP DUP3 JUMP JUMPDEST PUSH0 PUSH1 0x40 MLOAD SWAP1 POP SWAP1 JUMP JUMPDEST PUSH0 PUSH0 REVERT JUMPDEST PUSH0 PUSH0 REVERT JUMPDEST PUSH0 PUSH0 REVERT JUMPDEST PUSH0 PUSH0 REVERT JUMPDEST PUSH0 PUSH1 0x1F NOT PUSH1 0x1F DUP4 ADD AND SWAP1 POP SWAP2 SWAP1 POP JUMP JUMPDEST PUSH32 0x4E487B7100000000000000000000000000000000000000000000000000000000 PUSH0 MSTORE PUSH1 0x41 PUSH1 0x4 MSTORE PUSH1 0x24 PUSH0 REVERT JUMPDEST PUSH2 0x455 DUP3 PUSH2 0x40F JUMP JUMPDEST DUP2 ADD DUP2 DUP2 LT PUSH8 0xFFFFFFFFFFFFFFFF DUP3 GT OR ISZERO PUSH2 0x474 JUMPI PUSH2 0x473 PUSH2 0x41F JUMP JUMPDEST JUMPDEST DUP1 PUSH1 0x40 MSTORE POP POP POP JUMP JUMPDEST PUSH0 PUSH2 0x486 PUSH2 0x3F6 JUMP JUMPDEST SWAP1 POP PUSH2 0x492 DUP3 DUP3 PUSH2 0x44C JUMP JUMPDEST SWAP2 SWAP1 POP JUMP JUMPDEST PUSH0 PUSH8 0xFFFFFFFFFFFFFFFF DUP3 GT ISZERO PUSH2 0x4B1 JUMPI PUSH2 0x4B0 PUSH2 0x41F JUMP JUMPDEST JUMPDEST PUSH2 0x4BA DUP3 PUSH2 0x40F JUMP JUMPDEST SWAP1 POP PUSH1 0x20 DUP2 ADD SWAP1 POP SWAP2 SWAP1 POP JUMP JUMPDEST DUP3 DUP2 DUP4 CALLDATACOPY PUSH0 DUP4 DUP4 ADD MSTORE POP POP POP JUMP JUMPDEST PUSH0 PUSH2 0x4E7 PUSH2 0x4E2 DUP5 PUSH2 0x497 JUMP JUMPDEST PUSH2 0x47D JUMP JUMPDEST SWAP1 POP DUP3 DUP2 MSTORE PUSH1 0x20 DUP2 ADD DUP5 DUP5 DUP5 ADD GT ISZERO PUSH2 0x503 JUMPI PUSH2 0x502 PUSH2 0x40B JUMP JUMPDEST JUMPDEST PUSH2 0x50E DUP5 DUP3 DUP6 PUSH2 0x4C7 JUMP JUMPDEST POP SWAP4 SWAP3 POP POP POP JUMP JUMPDEST PUSH0 DUP3 PUSH1 0x1F DUP4 ADD SLT PUSH2 0x52A JUMPI PUSH2 0x529 PUSH2 0x407 JUMP JUMPDEST JUMPDEST DUP2 CALLDATALOAD PUSH2 0x53A DUP5 DUP3 PUSH1 0x20 DUP7 ADD PUSH2 0x4D5 JUMP JUMPDEST SWAP2 POP POP SWAP3 SWAP2 POP POP JUMP JUMPDEST PUSH0 PUSH1 0x20 DUP3 DUP5 SUB SLT ISZERO PUSH2 0x558 JUMPI PUSH2 0x557 PUSH2 0x3FF JUMP JUMPDEST JUMPDEST PUSH0 DUP3 ADD CALLDATALOAD PUSH8 0xFFFFFFFFFFFFFFFF DUP2 GT ISZERO PUSH2 0x575 JUMPI PUSH2 0x574 PUSH2 0x403 JUMP JUMPDEST JUMPDEST PUSH2 0x581 DUP5 DUP3 DUP6 ADD PUSH2 0x516 JUMP JUMPDEST SWAP2 POP POP SWAP3 SWAP2 POP POP JUMP JUMPDEST PUSH0 DUP2 MLOAD SWAP1 POP SWAP2 SWAP1 POP JUMP JUMPDEST PUSH0 DUP3 DUP3 MSTORE PUSH1 0x20 DUP3 ADD SWAP1 POP SWAP3 SWAP2 POP POP JUMP JUMPDEST DUP3 DUP2 DUP4 MCOPY PUSH0 DUP4 DUP4 ADD MSTORE POP POP POP JUMP JUMPDEST PUSH0 PUSH2 0x5BC DUP3 PUSH2 0x58A JUMP JUMPDEST PUSH2 0x5C6 DUP2 DUP6 PUSH2 0x594 JUMP JUMPDEST SWAP4 POP PUSH2 0x5D6 DUP2 DUP6 PUSH1 0x20 DUP7 ADD PUSH2 0x5A4 JUMP JUMPDEST PUSH2 0x5DF DUP2 PUSH2 0x40F JUMP JUMPDEST DUP5 ADD SWAP2 POP POP SWAP3 SWAP2 POP POP JUMP JUMPDEST PUSH0 PUSH1 0x20 DUP3 ADD SWAP1 POP DUP2 DUP2 SUB PUSH0 DUP4 ADD MSTORE PUSH2 0x602 DUP2 DUP5 PUSH2 0x5B2 JUMP JUMPDEST SWAP1 POP SWAP3 SWAP2 POP POP JUMP JUMPDEST PUSH0 DUP2 SWAP1 POP SWAP2 SWAP1 POP JUMP JUMPDEST PUSH2 0x61C DUP2 PUSH2 0x60A JUMP JUMPDEST DUP2 EQ PUSH2 0x626 JUMPI PUSH0 PUSH0 REVERT JUMPDEST POP JUMP JUMPDEST PUSH0 DUP2 CALLDATALOAD SWAP1 POP PUSH2 0x637 DUP2 PUSH2 0x613 JUMP JUMPDEST SWAP3 SWAP2 POP POP JUMP JUMPDEST PUSH0 PUSH0 PUSH1 0x40 DUP4 DUP6 SUB SLT ISZERO PUSH2 0x653 JUMPI PUSH2 0x652 PUSH2 0x3FF JUMP JUMPDEST JUMPDEST PUSH0 DUP4 ADD CALLDATALOAD PUSH8 0xFFFFFFFFFFFFFFFF DUP2 GT ISZERO PUSH2 0x670 JUMPI PUSH2 0x66F PUSH2 0x403 JUMP JUMPDEST JUMPDEST PUSH2 0x67C DUP6 DUP3 DUP7 ADD PUSH2 0x516 JUMP JUMPDEST SWAP3 POP POP PUSH1 0x20 PUSH2 0x68D DUP6 DUP3 DUP7 ADD PUSH2 0x629 JUMP JUMPDEST SWAP2 POP POP SWAP3 POP SWAP3 SWAP1 POP JUMP JUMPDEST PUSH0 DUP2 MLOAD SWAP1 POP SWAP2 SWAP1 POP JUMP JUMPDEST PUSH0 DUP3 DUP3 MSTORE PUSH1 0x20 DUP3 ADD SWAP1 POP SWAP3 SWAP2 POP POP JUMP JUMPDEST PUSH0 DUP2 SWAP1 POP PUSH1 0x20 DUP3 ADD SWAP1 POP SWAP2 SWAP1 POP JUMP JUMPDEST PUSH0 DUP3 DUP3 MSTORE PUSH1 0x20 DUP3 ADD SWAP1 POP SWAP3 SWAP2 POP POP JUMP JUMPDEST PUSH0 PUSH2 0x6DA DUP3 PUSH2 0x58A JUMP JUMPDEST PUSH2 0x6E4 DUP2 DUP6 PUSH2 0x6C0 JUMP JUMPDEST SWAP4 POP PUSH2 0x6F4 DUP2 DUP6 PUSH1 0x20 DUP7 ADD PUSH2 0x5A4 JUMP JUMPDEST PUSH2 0x6FD DUP2 PUSH2 0x40F JUMP JUMPDEST DUP5 ADD SWAP2 POP POP SWAP3 SWAP2 POP POP JUMP JUMPDEST PUSH2 0x711 DUP2 PUSH2 0x60A JUMP JUMPDEST DUP3 MSTORE POP POP JUMP JUMPDEST PUSH0 PUSH1 0x40 DUP4 ADD PUSH0 DUP4 ADD MLOAD DUP5 DUP3 SUB PUSH0 DUP7 ADD MSTORE PUSH2 0x731 DUP3 DUP3 PUSH2 0x6D0 JUMP JUMPDEST SWAP2 POP POP PUSH1 0x20 DUP4 ADD MLOAD PUSH2 0x746 PUSH1 0x20 DUP7 ADD DUP3 PUSH2 0x708 JUMP JUMPDEST POP DUP1 SWAP2 POP POP SWAP3 SWAP2 POP POP JUMP JUMPDEST PUSH0 PUSH2 0x75C DUP4 DUP4 PUSH2 0x717 JUMP JUMPDEST SWAP1 POP SWAP3 SWAP2 POP POP JUMP JUMPDEST PUSH0 PUSH1 0x20 DUP3 ADD SWAP1 POP SWAP2 SWAP1 POP JUMP JUMPDEST PUSH0 PUSH2 0x77A DUP3 PUSH2 0x697 JUMP JUMPDEST PUSH2 0x784 DUP2 DUP6 PUSH2 0x6A1 JUMP JUMPDEST SWAP4 POP DUP4 PUSH1 0x20 DUP3 MUL DUP6 ADD PUSH2 0x796 DUP6 PUSH2 0x6B1 JUMP JUMPDEST DUP1 PUSH0 JUMPDEST DUP6 DUP2 LT ISZERO PUSH2 0x7D1 JUMPI DUP5 DUP5 SUB DUP10 MSTORE DUP2 MLOAD PUSH2 0x7B2 DUP6 DUP3 PUSH2 0x751 JUMP JUMPDEST SWAP5 POP PUSH2 0x7BD DUP4 PUSH2 0x764 JUMP JUMPDEST SWAP3 POP PUSH1 0x20 DUP11 ADD SWAP10 POP POP PUSH1 0x1 DUP2 ADD SWAP1 POP PUSH2 0x799 JUMP JUMPDEST POP DUP3 SWAP8 POP DUP8 SWAP6 POP POP POP POP POP POP SWAP3 SWAP2 POP POP JUMP JUMPDEST PUSH0 PUSH1 0x20 DUP3 ADD SWAP1 POP DUP2 DUP2 SUB PUSH0 DUP4 ADD MSTORE PUSH2 0x7FB DUP2 DUP5 PUSH2 0x770 JUMP JUMPDEST SWAP1 POP SWAP3 SWAP2 POP POP JUMP JUMPDEST PUSH0 PUSH1 0x20 DUP3 DUP5 SUB SLT ISZERO PUSH2 0x818 JUMPI PUSH2 0x817 PUSH2 0x3FF JUMP JUMPDEST JUMPDEST PUSH0 PUSH2 0x825 DUP5 DUP3 DUP6 ADD PUSH2 0x629 JUMP JUMPDEST SWAP2 POP POP SWAP3 SWAP2 POP POP JUMP JUMPDEST PUSH2 0x837 DUP2 PUSH2 0x60A JUMP JUMPDEST DUP3 MSTORE POP POP JUMP JUMPDEST PUSH0 PUSH1 0x40 DUP3 ADD SWAP1 POP DUP2 DUP2 SUB PUSH0 DUP4 ADD MSTORE PUSH2 0x855 DUP2 DUP6 PUSH2 0x5B2 JUMP JUMPDEST SWAP1 POP PUSH2 0x864 PUSH1 0x20 DUP4 ADD DUP5 PUSH2 0x82E JUMP JUMPDEST SWAP4 SWAP3 POP POP POP JUMP JUMPDEST PUSH32 0x4E487B7100000000000000000000000000000000000000000000000000000000 PUSH0 MSTORE PUSH1 0x22 PUSH1 0x4 MSTORE PUSH1 0x24 PUSH0 REVERT JUMPDEST PUSH0 PUSH1 0x2 DUP3 DIV SWAP1 POP PUSH1 0x1 DUP3 AND DUP1 PUSH2 0x8AF JUMPI PUSH1 0x7F DUP3 AND SWAP2 POP JUMPDEST PUSH1 0x20 DUP3 LT DUP2 SUB PUSH2 0x8C2 JUMPI PUSH2 0x8C1 PUSH2 0x86B JUMP JUMPDEST JUMPDEST POP SWAP2 SWAP1 POP JUMP JUMPDEST PUSH0 DUP2 SWAP1 POP DUP2 PUSH0 MSTORE PUSH1 0x20 PUSH0 KECCAK256 SWAP1 POP SWAP2 SWAP1 POP JUMP JUMPDEST PUSH0 PUSH1 0x20 PUSH1 0x1F DUP4 ADD DIV SWAP1 POP SWAP2 SWAP1 POP JUMP JUMPDEST PUSH0 DUP3 DUP3 SHL SWAP1 POP SWAP3 SWAP2 POP POP JUMP JUMPDEST PUSH0 PUSH1 0x8 DUP4 MUL PUSH2 0x924 PUSH32 0xFFFFFFFFFFFFFFFFFFFFFFFFFFFFFFFFFFFFFFFFFFFFFFFFFFFFFFFFFFFFFFFF DUP3 PUSH2 0x8E9 JUMP JUMPDEST PUSH2 0x92E DUP7 DUP4 PUSH2 0x8E9 JUMP JUMPDEST SWAP6 POP DUP1 NOT DUP5 AND SWAP4 POP DUP1 DUP7 AND DUP5 OR SWAP3 POP POP POP SWAP4 SWAP3 POP POP POP JUMP JUMPDEST PUSH0 DUP2 SWAP1 POP SWAP2 SWAP1 POP JUMP JUMPDEST PUSH0 PUSH2 0x969 PUSH2 0x964 PUSH2 0x95F DUP5 PUSH2 0x60A JUMP JUMPDEST PUSH2 0x946 JUMP JUMPDEST PUSH2 0x60A JUMP JUMPDEST SWAP1 POP SWAP2 SWAP1 POP JUMP JUMPDEST PUSH0 DUP2 SWAP1 POP SWAP2 SWAP1 POP JUMP JUMPDEST PUSH2 0x982 DUP4 PUSH2 0x94F JUMP JUMPDEST PUSH2 0x996 PUSH2 0x98E DUP3 PUSH2 0x970 JUMP JUMPDEST DUP5 DUP5 SLOAD PUSH2 0x8F5 JUMP JUMPDEST DUP3 SSTORE POP POP POP POP JUMP JUMPDEST PUSH0 PUSH0 SWAP1 POP SWAP1 JUMP JUMPDEST PUSH2 0x9AD PUSH2 0x99E JUMP JUMPDEST PUSH2 0x9B8 DUP2 DUP5 DUP5 PUSH2 0x979 JUMP JUMPDEST POP POP POP JUMP JUMPDEST JUMPDEST DUP2 DUP2 LT ISZERO PUSH2 0x9DB JUMPI PUSH2 0x9D0 PUSH0 DUP3 PUSH2 0x9A5 JUMP JUMPDEST PUSH1 0x1 DUP2 ADD SWAP1 POP PUSH2 0x9BE JUMP JUMPDEST POP POP JUMP JUMPDEST PUSH1 0x1F DUP3 GT ISZERO PUSH2 0xA20 JUMPI PUSH2 0x9F1 DUP2 PUSH2 0x8C8 JUMP JUMPDEST PUSH2 0x9FA DUP5 PUSH2 0x8DA JUMP JUMPDEST DUP2 ADD PUSH1 0x20 DUP6 LT ISZERO PUSH2 0xA09 JUMPI DUP2 SWAP1 POP JUMPDEST PUSH2 0xA1D PUSH2 0xA15 DUP6 PUSH2 0x8DA JUMP JUMPDEST DUP4 ADD DUP3 PUSH2 0x9BD JUMP JUMPDEST POP POP JUMPDEST POP POP POP JUMP JUMPDEST PUSH0 DUP3 DUP3 SHR SWAP1 POP SWAP3 SWAP2 POP POP JUMP JUMPDEST PUSH0 PUSH2 0xA40 PUSH0 NOT DUP5 PUSH1 0x8 MUL PUSH2 0xA25 JUMP JUMPDEST NOT DUP1 DUP4 AND SWAP2 POP POP SWAP3 SWAP2 POP POP JUMP JUMPDEST PUSH0 PUSH2 0xA58 DUP4 DUP4 PUSH2 0xA31 JUMP JUMPDEST SWAP2 POP DUP3 PUSH1 0x2 MUL DUP3 OR SWAP1 POP SWAP3 SWAP2 POP POP JUMP JUMPDEST PUSH2 0xA71 DUP3 PUSH2 0x58A JUMP JUMPDEST PUSH8 0xFFFFFFFFFFFFFFFF DUP2 GT ISZERO PUSH2 0xA8A JUMPI PUSH2 0xA89 PUSH2 0x41F JUMP JUMPDEST JUMPDEST PUSH2 0xA94 DUP3 SLOAD PUSH2 0x898 JUMP JUMPDEST PUSH2 0xA9F DUP3 DUP3 DUP6 PUSH2 0x9DF JUMP JUMPDEST PUSH0 PUSH1 0x20 SWAP1 POP PUSH1 0x1F DUP4 GT PUSH1 0x1 DUP2 EQ PUSH2 0xAD0 JUMPI PUSH0 DUP5 ISZERO PUSH2 0xABE JUMPI DUP3 DUP8 ADD MLOAD SWAP1 POP JUMPDEST PUSH2 0xAC8 DUP6 DUP3 PUSH2 0xA4D JUMP JUMPDEST DUP7 SSTORE POP PUSH2 0xB2F JUMP JUMPDEST PUSH1 0x1F NOT DUP5 AND PUSH2 0xADE DUP7 PUSH2 0x8C8 JUMP JUMPDEST PUSH0 JUMPDEST DUP3 DUP2 LT ISZERO PUSH2 0xB05 JUMPI DUP5 DUP10 ADD MLOAD DUP3 SSTORE PUSH1 0x1 DUP3 ADD SWAP2 POP PUSH1 0x20 DUP6 ADD SWAP5 POP PUSH1 0x20 DUP2 ADD SWAP1 POP PUSH2 0xAE0 JUMP JUMPDEST DUP7 DUP4 LT ISZERO PUSH2 0xB22 JUMPI DUP5 DUP10 ADD MLOAD PUSH2 0xB1E PUSH1 0x1F DUP10 AND DUP3 PUSH2 0xA31 JUMP JUMPDEST DUP4 SSTORE POP JUMPDEST PUSH1 0x1 PUSH1 0x2 DUP9 MUL ADD DUP9 SSTORE POP POP POP JUMPDEST POP POP POP POP POP POP JUMP JUMPDEST PUSH0 DUP2 SWAP1 POP SWAP3 SWAP2 POP POP JUMP JUMPDEST PUSH0 DUP2 SLOAD PUSH2 0xB4D DUP2 PUSH2 0x898 JUMP JUMPDEST PUSH2 0xB57 DUP2 DUP7 PUSH2 0xB37 JUMP JUMPDEST SWAP5 POP PUSH1 0x1 DUP3 AND PUSH0 DUP2 EQ PUSH2 0xB71 JUMPI PUSH1 0x1 DUP2 EQ PUSH2 0xB86 JUMPI PUSH2 0xBB8 JUMP JUMPDEST PUSH1 0xFF NOT DUP4 AND DUP7 MSTORE DUP2 ISZERO ISZERO DUP3 MUL DUP7 ADD SWAP4 POP PUSH2 0xBB8 JUMP JUMPDEST PUSH2 0xB8F DUP6 PUSH2 0x8C8 JUMP JUMPDEST PUSH0 JUMPDEST DUP4 DUP2 LT ISZERO PUSH2 0xBB0 JUMPI DUP2 SLOAD DUP2 DUP10 ADD MSTORE PUSH1 0x1 DUP3 ADD SWAP2 POP PUSH1 0x20 DUP2 ADD SWAP1 POP PUSH2 0xB91 JUMP JUMPDEST DUP4 DUP9 ADD SWAP6 POP POP POP JUMPDEST POP POP POP SWAP3 SWAP2 POP POP JUMP JUMPDEST PUSH32 0x20434F4241203100000000000000000000000000000000000000000000000000 PUSH0 DUP3 ADD MSTORE POP JUMP JUMPDEST PUSH0 PUSH2 0xBF5 PUSH1 0x7 DUP4 PUSH2 0xB37 JUMP JUMPDEST SWAP2 POP PUSH2 0xC00 DUP3 PUSH2 0xBC1 JUMP JUMPDEST PUSH1 0x7 DUP3 ADD SWAP1 POP SWAP2 SWAP1 POP JUMP JUMPDEST PUSH0 PUSH2 0xC16 DUP3 DUP5 PUSH2 0xB41 JUMP JUMPDEST SWAP2 POP PUSH2 0xC21 DUP3 PUSH2 0xBE9 JUMP JUMPDEST SWAP2 POP DUP2 SWAP1 POP SWAP3 SWAP2 POP POP JUMP INVALID LOG2 PUSH5 0x6970667358 0x22 SLT KECCAK256 0x2F 0xA6 0xA5 0xAF STATICCALL 0xE 0xEF COINBASE 0x2C 0xAF SWAP16 0xF6 DUP16 0xDC PUSH25 0xF5B969CFC255D8CE81D61941A4CC381BBB64736F6C63430008 SHR STOP CALLER "
				},
				"gasEstimates": {
					"creation": {
						"codeDepositCost": "634000",
						"executionCost": "infinite",
						"totalCost": "infinite"
					},
					"external": {
						"addPerson(string,uint256)": "infinite",
						"getAllPeople()": "infinite",
						"people(uint256)": "infinite",
						"retrieve()": "infinite",
						"store(string)": "infinite",
						"word()": "infinite"
					}
				},
				"methodIdentifiers": {
					"addPerson(string,uint256)": "6f760f41",
					"getAllPeople()": "85a26d7d",
					"people(uint256)": "9e7a13ad",
					"retrieve()": "2e64cec1",
					"store(string)": "131a0680",
					"word()": "2f64d386"
				}
			},
			"storageLayout": {
				"storage": [
					{
						"astId": 4,
						"contract": "contract/SimpleStorage.sol:SimpleStorage",
						"label": "word",
						"offset": 0,
						"slot": "0",
						"type": "t_string_storage"
					},
					{
						"astId": 13,
						"contract": "contract/SimpleStorage.sol:SimpleStorage",
						"label": "people",
						"offset": 0,
						"slot": "1",
						"type": "t_array(t_struct(People)9_storage)dyn_storage"
					}
				],
				"types": {
					"t_array(t_struct(People)9_storage)dyn_storage": {
						"base": "t_struct(People)9_storage",
						"encoding": "dynamic_array",
						"label": "struct SimpleStorage.People[]",
						"numberOfBytes": "32"
					},
					"t_string_storage": {
						"encoding": "bytes",
						"label": "string",
						"numberOfBytes": "32"
					},
					"t_struct(People)9_storage": {
						"encoding": "inplace",
						"label": "struct SimpleStorage.People",
						"members": [
							{
								"astId": 6,
								"contract": "contract/SimpleStorage.sol:SimpleStorage",
								"label": "name",
								"offset": 0,
								"slot": "0",
								"type": "t_string_storage"
							},
							{
								"astId": 8,
								"contract": "contract/SimpleStorage.sol:SimpleStorage",
								"label": "age",
								"offset": 0,
								"slot": "1",
								"type": "t_uint256"
							}
						],
						"numberOfBytes": "64"
					},
					"t_uint256": {
						"encoding": "inplace",
						"label": "uint256",
						"numberOfBytes": "32"
					}
				}
			},
			"userdoc": {
				"kind": "user",
				"methods": {},
				"version": 1
			}
		}
	}
}